:020000040800F2
:100000001805002045010008D10C0008950B0008D8
:10001000CD0C0008FD080008E91C000800000000E5
:10002000000000000000000000000000D9190008D6
:10003000AD09000800000000510E0008C51A0008B4
:10004000ED1C00085F0100085F0100085D0F00085B
:100050005F0100085F0100082D0A00085F01000829
:100060005F0100085F0100085F0100085F010008F0
:100070005F0100085F0100085F0100085F010008E0
:100080005F0100085F0100085F0100085F010008D0
:100090005F0100085F0100085F0100085F010008C0
:1000A0005F0100085F0100085F0100085F010008B0
:1000B000291B00085F0100085F0100085F010008BC
:1000C0005F0100085F0100085F0100085F01000890
:1000D0005F010008411B0008351C00085F01000893
:1000E0005F0100085F0100085F0100085F01000870
:1000F0005F0100085F0100085F0100085F01000860
:100100005F0100085F0100085F0100085F0100084F
:100110005F0100085F0100085F0100085F0100083F
:100120005F0100085F0100085F0100085F0100082F
:10013000DFF80CD000F0C8FA004800472D1F000877
:10014000180500200648804706480047FEE7FEE7FE
:10015000FEE7FEE7FEE7FEE7FEE7FEE7FEE7FEE777
:10016000C91A00083101000840EA01039B0703D0C7
:1001700009E008C9121F08C0042AFAD203E011F8E6
:10018000013B00F8013B521EF9D27047D2B201E0A8
:1001900000F8012B491EFBD270470022F6E710B58C
:1001A00013460A4604461946FFF7F0FF204610BDE5
:1001B000F0B480EA0102D40F4200B2EB410F02D248
:1001C0000246084611464A0042D0C30DDDB2C1F3D3
:1001D000C752AD1A202D35DAC1F3160141F40002E1
:1001E00004B15242C5F1200602FA06F12A41104438
:1001F000B3EBD05F23D0C4B1012DA0EBC35009DC19
:10020000F0BC4FF0004202EAC352DBB200F500003E
:1002100000F0CFB9400000F1807000EBC350A0F1B6
:10022000807040EAD170490009E0490841EAC07194
:10023000A0EBC35000F50000400800EBC350F0BC39
:1002400000F0AEB96142012202EB4101001BF6E76A
:10025000F0BC704781F00041AAE780F00040A7E7BA
:1002600080EA010210B502F00043400022D04A00AB
:100270001FD0010E01EB1261C0F35600C2F356020B
:1002800040F4000042F40002A0FB022000047F3989
:10029000140400D0401C50EA124001D44000491E12
:1002A000C2B20C0604EBD010401C4008802A02D0D9
:1002B00003E0002010BD20F00100002900DA00203A
:1002C000184310BD30B480EA010202F0004530F05E
:1002D000004221F0004013D090B1C30DD40DC2F301
:1002E0001601C0F31600E41A41F4000140F40002C4
:1002F0007D34914201D3641C00E04900002C02DAF5
:1003000030BC002070474FF400000023914201D31D
:10031000891A034340084FEA4101F7D151B1914294
:1003200002D14FF0004105E002D24FF0010101E09F
:100330006FF0010103EBC450284430BC00F030B929
:100340002DE9FE4F81EA030404F0004421F000414E
:1003500000944FF0000B23F0004350EA01045ED0FC
:1003600052EA03045BD0C3F30A54C1F30A552C4488
:10037000A4F2F3340194A0FB0254C1F3130141F43D
:100380008011C3F3130343F4801301FB024400FB09
:10039000034E840A970A44EA815447EA8357A4FB30
:1003A000076802958D0A05FB07854FEA932C04FB2D
:1003B0000C542705029D4FEA065847EA1637B5EB5D
:1003C00008056EEB070C870E920E47EA811742EA8A
:1003D0008312A7FB0201B6EB0B0164EB00042B0DAB
:1003E00043EA0C335E1844EB1C50DA465146E7FBF7
:1003F0000201C5F313044FEA0B3343EA14534FEAE7
:100400000432019C43EA0603A4F10C040294009C0C
:10041000CDE900B400F00AF903B0BDE8F08F002088
:100420000146F9E72DE9F04D81EA030404F0004BA1
:1004300021F0004514464FF0000A23F0004150EA35
:10044000050220D054EA01021DD0C5F30A57024626
:10045000C5F31303C1F31300C1F30A5640F480152A
:1004600043F48013A7EB0608101BD64608F2FD38AC
:1004700073EB050002D308F1010801E092185B411B
:10048000B8F1000F03DA00200146BDE8F08D00202E
:100490004FF48011064684460EE0171B73EB0507E8
:1004A00005D3121B63EB050306434CEA010C490814
:1004B0004FEA300092185B4150EA0107EDD152EA51
:1004C000030012D082EA040083EA0501084305D044
:1004D000101BAB4106D20122002306E000224FF0A0
:1004E000004302E06FF0010253101AEB06004CEBE0
:1004F000085110EB0A0041EB0B01BDE8F04D00F094
:1005000086B896230022114600F053B80EB540F28B
:10051000334102910021CDE900110A460B4600F05B
:1005200085F803B000BD20F00040C10DC0F31600F7
:1005300040F400007F2901DA00207047962903DC8F
:10054000C1F19601C8407047963988407047C1F3A1
:100550000A5210B5C1F3130140F2FF3341F4801188
:100560009A4201DA002010BD40F233439A42A2F2CF
:10057000334203DC524200F003F810BD904010BD3E
:10058000202A04DB203A21FA02F00021704721FAE8
:1005900002F3D040C2F1200291400843194670474F
:1005A0000029A8BF7047401C490008BF20F0010087
:1005B000704710B4B0FA80FC00FA0CF050EA010465
:1005C00004BF10BC704749B1CCF1200421FA04F4F7
:1005D00011FA0CF118BF012121430843A3EB0C01D0
:1005E000CB1D4FEA00614FEA102042BF002010BC33
:1005F000704700EBC35010440029A4BF10BC7047E3
:10060000401C490008BF20F0010010BC704710B525
:10061000141E73F1000408DA401C41F10001921825
:100620005B411A4301D120F0010010BD2DE9F04DCE
:1006300092469B4611B1B1FA81F202E0B0FA80F223
:100640002032904600F052F804460F4640EA0A0075
:1006500041EA0B0153465A46084313D0114653EA68
:10066000010019D0C8F140025046FFF789FF054646
:100670000E4650465946424600F038F8084305D029
:10068000012004E020463946BDE8F08D00200543F6
:1006900046EAE0762C4337430A986305E40AA0EB68
:1006A00008000022FD0A44EA47540A3002D500201F
:1006B0000146E9E7010510196941DDE9084500191E
:1006C0006941BDE8F04DA2E7064C074D06E0E06841
:1006D00040F0010394E8070098471034AC42F6D389
:1006E000FFF72AFD4022000860220008202A04DBD0
:1006F000203A00FA02F1002070479140C2F1200335
:1007000020FA03F3194390407047000006488069BF
:1007100040F0040004498861044800680449084323
:1007200002490860704700000010024000100140BC
:1007300000FF0F004148806940F400703F49886124
:100740000846C06840F40070C8600846C06820F4DD
:100750000070C8600846406820F440404860084681
:10076000406840F4404048603548006835490840DA
:10077000334908600846006808600846006840F48D
:1007800080700860081D006820F00200091D0860E4
:100790000846006820F4602008600846006840F4BD
:1007A000602008600846006840F480100860084631
:1007B000006820F40060086021482830006820F4B8
:1007C00070001F49283108600846006808601C480E
:1007D0000C3000681C49084019490C310860084673
:1007E00000681949C943084315490C310860144889
:1007F000001D006840F001001149091D086008460D
:10080000006840F00800086000BF0D48001D006847
:1008100000F008000028F8D10948001D006840F0E9
:1008200004000749091D086000BF0548001D006855
:1008300000F004000028F8D17047000000100240CA
:1008400004240140FFFFF000C00FE0FF70B592B03C
:1008500004460E462C2107A8FFF79FFCBDF81C009C
:10086000E1780843ADF81C00BDF81C004FF6FF719D
:1008700001EA0020ADF81C00BDF81C00A178084377
:10088000ADF81C0020798DF81E0060798DF81F00EE
:10089000002505E0A81D215C08A84155681CC5B2CB
:1008A0006079A842F6DC1C220BA96846FFF75CFCC5
:1008B00007A80FC800F0A6FB12B070BD0D48006974
:1008C00040F000600B4908610846006920F00060B4
:1008D00008610846C06940F08050C8610846C06998
:1008E00040F00060C8610448006840F4807002492C
:1008F00008607047001002400070004000BFFEE733
:100900002DE9F04705460E4617469846DDE9089A58
:10091000002440F2B27085423CDB40F63300854251
:1009200038DC40F2B2730AE0184600F075F910B1F5
:100930001A48044401E01A480444581C83B2AB42EC
:10094000F2DB002310E01748C05C40F2A3214843CB
:1009500004EBC014284600F05FF918B1012B01D157
:1009600011480444581C83B2701E9842EBDC0023EB
:1009700003E00D480444581C83B2BB42F9DBC8EBCA
:100980004810C0EB082004EB0014C9EB091004EB7D
:10099000800454442046BDE8F08700000085E20151
:1009A0008033E10170210008805101007047000090
:1009B00010B504461348C06800F0010012490870E1
:1009C00008460078E0B90F48006940F002000D4980
:1009D000086108464461006940F0400008614FF436
:1009E000302000F053F808490870084600780128C4
:1009F00006D00448006941F2F461084001490861E9
:100A000010BD00000020024001000020014600202F
:100A100005E0002000E0401CB0F5FA5FFBD30A00BF
:100A2000A1F1010399B2F4D17047000010B50A207A
:100A3000FFF7ECFF04A001F08BF9012004490870D6
:100A40000449086010BD000065787469300000003A
:100A5000000000201404014004200B49C96801F083
:100A6000010109B101200EE00749C96801F0040144
:100A700009B1022007E00449C96801F0100109B179
:100A8000032000E0042070470020024000B5024629
:100A90000423FFF7E1FF034603E0FFF7DDFF034612
:100AA000521E012B01D1002AF7D102B905231846A5
:100AB00000BD000002480349486003484860704791
:100AC0002301674500200240AB89EFCD30B50246D7
:100AD0000B464FF6FF7011E01478604000210AE0E9
:100AE00000F0010424B14AF2010484EA600000E04D
:100AF00040104C1CE1B20829F2DB521C1C00A3F18F
:100B00000105ABB2E8D130BD70B51F4800785A2856
:100B10001ED11D4840783C281AD11C4801881A482B
:100B2000FFF7D4FF064626B9184801781648FFF7A4
:100B30008DFE002504E0002013494855681CC5B20D
:100B4000124800888542F6DB00201049088016E034
:100B50000D480078612804D14FF4FA70FFF756FF72
:100B60000DE0002404E0002007490855601CC4B2D1
:100B7000064800888442F6DB0020044908800020F3
:100B80000349087070BD00005A00002034000020A6
:100B90003900002000BFFEE70848806940F00800E7
:100BA0000649886106480068002005490860084633
:100BB000006840F003000860704700000010024029
:100BC000040C01401148006840F080504FF0E021D3
:100BD000C1F8000110210E4801700E48C06940F0B4
:100BE00001000C49C86100208904888447200885D9
:100BF0004FF47A708885C006808940F001008881B2
:100C00000846008840F001000880704700E100E0DD
:100C10001CE400E0001002400146CA1701EB92728A
:100C20009210A1EB820292B9642091FBF0F200FBDA
:100C3000121050B94FF4C87091FBF0F200FB121083
:100C400008B9012070470020FCE70120FAE70020E6
:100C5000F8E700000C48806940F008000A49886104
:100C60000A48006820F47060084908600846006877
:100C700040F40060086005480830006840F4806077
:100C8000024908310860704700100240040C01401E
:100C90006E280AD10C49096821F001210A4A116025
:100CA0001146096841F08071116066280AD1064931
:100CB000096821F00121044A11601146096841F4D4
:100CC0008071116070470000100C014000BFFEE70A
:100CD000704700001D48806940F6040108431B4925
:100CE00088611B48006820F4704019490860084674
:100CF000006840F4104008601648008840F0010089
:100D00001449088013481C30008840F4C040114941
:100D10001C31088040F29F500E4928310880642021
:100D2000091D08800B482030008840F440500949D4
:100D3000203108806420074940310880081D008860
:100D400040F40040091D0880704700000010024078
:100D500004080140002C01402DE9F0478EB0814687
:100D60008846164606255A208DF804003C208DF84A
:100D700005002EB9FF208DF806008DF8070009E068
:100D80002F480088C0B28DF806002D480088000A60
:100D90008DF807008DF808608DF80980002407E0C1
:100DA00019F8040001A94855681CC5B2601CC4B2FA
:100DB0004445F5DB294601A8FFF788FE074601A94F
:100DC0004F55681CC5B2380A4855681CC5B29DF815
:100DD0000600FF281DD19DF80700FF2819D11EB17C
:100DE000172E01D0192E28D11648008800F0FF0ACE
:100DF000002405E001A8005D13490855601CC4B239
:100E0000AC42F7DB114805800F49087800F052FF2B
:100E100013E00C48008800F0FF0A002405E001A858
:100E2000005D09490855601CC4B2AC42F7DB0748B5
:100E300005800549087800F03DFF0EB0BDE8F08759
:100E4000086C0040003801408C0000203600002073
:100E5000704700002DE9F05F05460E463001FFF7B0
:100E600050FB8146394905FB01F0FFF74AFB8246FA
:100E70004946FFF727FA07463846FFF754FB84B286
:100E80002046FFF73EFB83463946FFF7E6F98246E8
:100E90004FF08341FFF7E4F98146FFF744FB8046BA
:100EA0004FF6FF7000EA041404EB080084B22848EF
:100EB000806940F00400264988612648006820F4D3
:100EC0007020244908600846006840F440300860FB
:100ED0000846006820F47F4008600846006840F437
:100EE0000B4008601A48C06940F400301849C861D6
:100EF0000846006940F4003008610846006920F4A3
:100F00000030086114480480001D008842F20C0182
:100F100008431149091D08800846008840F4807084
:100F200008800846008840F02000088009481030FA
:100F3000006820F01010074910310860084600686A
:100F400040F480100860BDE8F09F000040420F00B0
:100F50000010024000080140084400401848008882
:100F600000F0010020B31748006800F48070A0B9B9
:100F700015480068401C14490860084600684FF492
:100F80006161B0FBF1F201FB120088B900200E494B
:100F9000086001200D4908700AE00B480068B0F5B0
:100FA000FA6F02D301200949087000200649086041
:100FB0000348008840F6FA710840014908807047EC
:100FC000042800400C0C01400C0000201000002000
:100FD0000948006840F4A0600749086007480078A5
:100FE000064908700648006840F008004FF0E0210C
:100FF000C1F80001704700000CED00E003E400E0E0
:1010000000E100E00FB42DE9F04F87B00024DFF8D5
:10101000FCA3DFF8FC93BDF84000FE490988884234
:1010200008D0BDF8400028B1BDF840004FF6FF7170
:1010300088427DD19DF84200012850D10021002234
:10104000F54B1B680093F44B1B1D1B680193F24B7F
:10105000DB1D1B68029300201BE01DF8203004AD4F
:101060006B544B1CD9B23DF82030C3F307236B54AB
:101070004B1CD9B25DF82030C3F307436B544B1CB3
:10108000D9B25DF820301B0E6B544B1CD9B2431CF7
:10109000D8B20328E1DB002008E011AB1B5C04ADF3
:1010A0002D5CAB4200D003E0431CD8B20C28F4DB2B
:1010B00000BF0C2812D110AB5B7C1A434FF6FF73B4
:1010C00003EA022210AB1B7C1A43D24B1B8800237D
:1010D000D04D2B802B461B8813432B8000BF9DF8DF
:1010E0004200022802D10120CC4908709DF842003C
:1010F00016284AD1002006900590002421E006A879
:1011000030F814106000401C11AA105C014306A8BE
:1011100020F8141030F814004FF6FF7101EA002097
:1011200006A921F8140006A830F8140011A900E05F
:10113000A2E011F81410084306A921F81400601C5D
:10114000C4B2082CDBDBB64DA81EFFF731FCBDF89E
:101150001800294600F0D0FDBDF81A00A91C00F0C7
:10116000CBFD28788DF814002888000A8DF815002A
:10117000A8788DF816006888000A8DF817001722E5
:10118000042105A8FFF7E8FD00BF9DF842001828DC
:1011900067D10020049005900690029003900024EF
:1011A0001FE004A830F814106000401C11AA105C65
:1011B000014304A820F8141030F814004FF6FF7112
:1011C00001EA002004A921F8140004A830F8140052
:1011D00011A911F81410084304A921F81400601C87
:1011E000C4B2062CDDDB00F04BFAFFF7F1FEBDF8D0
:1011F0001A00C0B2BDF81810C9B2CDE90010BDF890
:101200001650EBB2BDF81450EAB2BDF81250E9B274
:10121000BDF8100000F012FB00F0B8F98148007929
:101220008DF808007F488088000A8DF809007D4805
:1012300080798DF80A007B48C0798DF80B007948D9
:1012400000788DF80C00774840788DF80D007548CF
:1012500080788DF80E001922072102A8FFF77CFD87
:1012600000BF9DF84200122806D16A4800884FF658
:10127000FF710843674908806648B0F800B04FF630
:10128000FF7083457ED0BDF84000624909888842DE
:1012900003D0BDF84000002874D19DF842000A2810
:1012A00030D19DF84300401E032190FBF1F05E49D0
:1012B00008705848001D008800205649091D088004
:1012C000084600885849097808435249091D088092
:1012D0004E4800F0FDFA002408E011A9085D5146CF
:1012E00000F056FB0AF1020A601CC4B29DF84300EC
:1012F000A042F2DC002006900B22012106A8FFF795
:101300002BFD00BF9DF842000E2841D10120474926
:10131000087008460078012839D19DF8440030B99A
:101320000020434908706620FFF7B2FC25E000F07A
:1013300099FD9DF844003E4908706E20FFF7A8FC17
:101340003B480078FFF7E2F805460E46394800882A
:10135000FFF7DCF807460022374BFFF763F82A4611
:101360003346CDE90001FEF7EBFFCDE90201FFF7BF
:10137000EEF880B2059000F027FE2D480078069028
:101380000F2200E0BDE0012106A8FFF7E5FC00BF49
:101390009DF84200042831D100251F4800680090C4
:1013A0001D48001D006801901B48C01D0068029088
:1013B00000261BE01DF8260004A94855681CC5B28C
:1013C0003DF82600C0F307204855681CC5B25DF8FB
:1013D0002600C0F307404855681CC5B25DF82600DA
:1013E000000E4855681CC5B2701CC6B2032EE1DB66
:1013F00005220C2104A8FFF7AFFC00BF9DF84200B6
:10140000062832D1024800F063FA17E000F800081D
:1014100000F40008086C0040E8F7FF1F4A000020B5
:1014200002FC00085000002049000020410000207C
:10143000480000204400002000005940002408E03B
:1014400011A9085D494600F0A3FA09F10209601CE0
:10145000C4B29DF84300A042F2DC002006900722AF
:10146000012106A8FFF778FC00BF9DF8420008287C
:1014700013D109F10209002407E099F800000DF8E2
:10148000040009F10209601CC4B2142CF5DB092226
:1014900014216846FFF760FC00BF9DF84200132846
:1014A00028D1142102A8FEF778FE00F06FF8174843
:1014B00000798DF8080015488088000A8DF8090029
:1014C000124880798DF80A001048C0798DF80B0019
:1014D0000E4800788DF80C000C4840788DF80D000F
:1014E0000A4880788DF80E001522072102A8FFF720
:1014F00033FC00BF9DF84200142802D100200449AB
:10150000087007B0BDE8F00F5DF814FB5000002034
:1015100041000020F0B503460C461546642093FBBD
:10152000F0F0C6B2642093FBF0F700FB1730C1B2B5
:10153000132E02DD01F16400C1B20846CF1701EBA2
:10154000977701EBA707BAB2072092FBF0F700FBF1
:10155000172082B25719601EDFF82CC01CF800005B
:10156000384482B2CF1701EB9777BF10A1EB870702
:101570001FB9032C01DA501E82B2072092FBF0F74C
:1015800000FB1720C0B2F0BDA02100082DE9F041FA
:1015900040F2B2780025364806883604001D0088DF
:1015A00006443448B6FBF0F40FE01FFA88F0FFF76A
:1015B00033FB30B1B4F5B77F02D3A4F5B77402E0C2
:1015C00006E0A4F26D1408F10108B4F5B67FECD87A
:1015D00000BF2949A1F8048015E01FFA88F0FFF741
:1015E0001BFB30B1012D04D11D2C01D31D3C09E0A2
:1015F0000BE02248405DA04203D82048405D241AF9
:1016000000E002E06D1C1C2CE7D200BF1A49CC712F
:10161000681C88711748B6FBF0F100FB11674FF4A6
:101620006160B7FBF0F0144908704FF46160B7FBDC
:10163000F0F100FB11703C21B0FBF1F00E49487055
:101640004FF46160B7FBF0F100FB11703C21B0FB7F
:10165000F1F201FB1200084988700B46DA7999799A
:101660009888FFF757FF04490872BDE8F081000031
:10167000182800408051010050000020702100080F
:1016800010B54F4800884F4908600846008800049C
:1016900008604B48001D00880968084449490860F3
:1016A00008460068002872D14748C06940F0805061
:1016B0004549C8610846C06940F00060C8614348B8
:1016C000006840F48070414908603F48006A40F07B
:1016D00001003D49086200BF3B48006A00F002007B
:1016E0000028F9D03AA000F033FB3748006A40F4F4
:1016F0008070354908620846006A40F4004008627C
:1017000000BF2F481438008800F020000028F8D0CF
:1017100000BF2B481438008800F008000028F8D0DB
:1017200027481838008840F00100254918390880FA
:1017300000BF23481438008800F020000028F8D0AB
:101740001F481438008840F010001D4914390880E3
:101750000020091D088047F6FF70091D0880184801
:101760001438008820F0100015491439088000BF93
:1017700013481438008800F020000028F8D01348DF
:10178000006820F480701149086018E0FFE700BF8E
:101790000B481438008800F008000028F8D00848EA
:1017A0001838008840F0010005491839088000BF4A
:1017B00003481438008800F020000028F8D010BD3D
:1017C0001828004030000020001002400070004047
:1017D000696E69740000000000B51648008816495B
:1017E000086008460088000408601248001D008850
:1017F000096808441049086008460068B8B100BF8D
:101800000C481438008800F008000028F8D0094877
:101810001838008840F0010006491839088000BFD8
:1018200004481438008800F020000028F8D0FFF7A2
:10183000CFFB00BD18280040300000202DE9FC47F8
:1018400005460E4617469846DDE90A9A43463A464B
:1018500031462846CDE9009AFFF752F80446194868
:10186000C06940F080501749C8610846C06940F01F
:101870000060C8611448006840F480701249086034
:101880001248008840F01000104908800F491831B4
:101890000C80200C091F08800C48008820F01000E4
:1018A0000A49088000BF0948008800F0200000288D
:1018B000F9D00548006820F4807003490860BDE84D
:1018C000FC87000000100240007000400428004027
:1018D00070B505460024FFF7EDF845F6FF7000F0FF
:1018E00041F80446C4B90E48006940F002000C49B2
:1018F000086108464561006940F04000086145F60E
:10190000FF7000F02FF80446012C05D00448006950
:1019100020F002000249086100F01AF8204670BD6C
:10192000002002400948C16801F0010008B101200F
:10193000704701F0040008B10220F9E701F010003F
:1019400008B10320F4E70020F2E700000020024085
:101950000348006940F080000149086170470000B9
:101960000020024070B5044600BFFFF7DBFF0546CC
:10197000012D00D006E00120FFF748F8601E84B278
:10198000002CF2D100BF04B9FF25284670BD00002D
:1019900070B505460E46FFF78DF8FF20FFF7E2FF12
:1019A000044694B90B48006940F0010009490861F8
:1019B0003580FF20FFF7D6FF0446012C05D00548EF
:1019C000006920F0010003490861FFF7C1FF2046CC
:1019D00070BD000000200240704710B500F002F812
:1019E00010BD00000CB50020019000903348006845
:1019F00040F480303149086000BF3048006800F48E
:101A0000003000900198401C0190009818B901988E
:101A1000B0F5A06FF1D12948006800F4003010B192
:101A20000120009001E0002000900098012843D19F
:101A30002348006840F0100021490860084600680B
:101A400020F0030008600846006840F002000860CB
:101A50001A48406819494860084640684860084686
:101A6000406840F4806048600846406820F47C107C
:101A700048600846406840F4E8104860084600683E
:101A800040F08070086000BF0C48006800F00070F3
:101A90000028F9D00948406820F003000749486051
:101AA0000846406840F00200486000BF03484068B4
:101AB00000F00C000828F9D10CBD00000010024015
:101AC000002002407047000010B51348006840F045
:101AD00001001149086008464068104908400E4955
:101AE0004860084600680E4908400B4908600846EF
:101AF000006820F4802008600846406820F4FE005A
:101B000048604FF41F008860FFF767FF4FF00060E8
:101B10000449086010BD0000001002400000FFF8FA
:101B2000FFFFF6FE08ED00E010B54FF08040008AA0
:101B300020F001004FF08041088200F0E3FA10BD70
:101B400010B52248008800F0200098B120480078A5
:101B500080B91E48001D00881E491F4A12888854FB
:101B60001D480088401C1C4908801C4A6421012033
:101B700000F0BEFA1548008800F0400020B3184875
:101B8000007808B3174818490978405C0F49091DC7
:101B9000088015480078401C1349087008460078F2
:101BA0001249098888420FDB08480C30008820F071
:101BB000400006490C31088001200B4908700020C4
:101BC000074908700949088010BD0000003801402D
:101BD000390000205A00002034000020B51F000802
:101BE0003A0000208C000020380000203600002041
:101BF0000B4800680B49084009490860084600681E
:101C0000094908430649086030210848017008481E
:101C1000006840F020004FF0E021C1F80401704757
:101C20000CED00E0FFF8FA050004FA0525E400E0F9
:101C300004E100E00B49098801F0200181B1094964
:101C4000091D0988C8B208490978072908DA07492F
:101C5000054A1278885404490978491C024A1170CF
:101C600070470000004400400B00002004000020EA
:101C70000B4800680B49084009490860084600689D
:101C800009490843064908600848006840F04000D8
:101C90004FF0E021C1F80401302105480170704780
:101CA0000CED00E0FFF8FA050004FA0504E100E09D
:101CB00026E400E00A49088000BF0949091F098895
:101CC00001F040010029F8D00121064A11700449B1
:101CD0000831098841F04001014A083211807047FB
:101CE000043801403A00002000BFFEE7002001490F
:101CF00008607047082C004010B502460B461C4691
:101D0000FEF7D8FE1048C06800F001000F490870C7
:101D100008460078B8B90C48006940F001000A494B
:101D2000086122800846C06800F001000749087079
:101D300008460078012806D00348006941F2F661A0
:101D400008400149086110BD002002400100002048
:101D50000FB4054B10B503A9044A029800F017F818
:101D600010BC5DF814FB0000111F00084C0000209F
:101D700002E008C8121F08C1002AFAD17047704754
:101D8000002001E001C1121F002AFBD170472DE99C
:101D9000F84F9946924688460546002706E02528D2
:101DA0000AD051464A4690476D1C7F1C287800286F
:101DB000F5D13846BDE8F88F002315F8011F184605
:101DC0002E2915D115F8011F04232A290DD06FF0F3
:101DD0002F022978A1F13004092C09D800EB8000EA
:101DE00002EB400008446D1CF3E758F8040B6D1C2F
:101DF0002A78002ADDD0632A07D0732A0FD0104634
:101E000051464A4690477F1C2AE018F8042B8DF86B
:101E1000002000218DF801106E46012103E058F8E2
:101E2000046B4FF0FF315A074FF0000401D409E072
:101E3000641C84420BDA8C42FADB325D002AF7D153
:101E400005E0641C8C42FCDB305D0028F9D127449E
:101E500004E016F8010B51464A469047641EF8D23A
:101E60006D1CA3E7F0B595B05022254901A8FEF7F7
:101E70007BF9244F002406E039880BA820F81410C1
:101E8000BF1C601C84B2142CF6DB1F4806884FF47C
:101E90007A7096FBF0F085B24FF47A7096FBF0F111
:101EA00000FB1160B0F5FA7F01DD681C85B2262DBC
:101EB00002DD64201549088000241BE025B9BDF827
:101EC0002C001249088017E001A830F81400A8423D
:101ED0000CDD24B9BDF82C000C4908800CE0601E14
:101EE0000BA931F810000949088005E0601C84B294
:101EF000601C84B2142CE1DB00BF15B0F0BD000003
:101F0000AC21000800F40008046C004044000020EC
:101F100000BF054A128802F04002002AF9D0C2B27E
:101F2000014B1B1D1A80704700380140FFF7CCFDA4
:101F30004FF41651482000F069F8FFF759FE00F001
:101F400003F9FEF7BBFCFEF7E1FBFEF7F3FBFEF740
:101F500023FEFEF7BFFE6620FEF79AFE0020114921
:101F60000870FEF7A7FDFFF737FCFEF773FE4FF48E
:101F700016614820FEF76EFFFFF77AFE11E00A486F
:101F800000884FF6FF71884202D10848007810B1EE
:101F9000022000F0A3F806480078012801D1FEF7DE
:101FA000B3FDECE748000020086C00404A00002028
:101FB0003900002010B501200249087000F08EF8A9
:101FC00010BD0000390000200E490988884217D052
:101FD0000D49098821F400410B4A1180111F088026
:101FE0000849088008493039098841F00101064A4A
:101FF000303A11800449098841F40041024A1180B5
:102000007047000002000020442C01402DE9F05FE1
:1020100005460E463001FEF774FA81462B4905FB52
:1020200001F0FEF76EFA82464946FEF74BF9074685
:102030003846FEF778FA84B22046FEF762FA834605
:102040003946FEF70AF982464FF08341FEF708F958
:102050008146FEF768FA80464FF6FF7000EA0414E6
:1020600004EB080084B21A48806940F00400184963
:1020700088610846806940F480408861154800689E
:1020800020F47F60134908600846006840F40B6044
:1020900008600F48C06840F480400D49C860084699
:1020A000C06820F48040C8600B480480001D008890
:1020B00042F20C0108430849091D088008460088BF
:1020C00040F020000880BDE8F09F000040420F0073
:1020D0000010024004080140083801400021034A72
:1020E00022F8301002EBC00251607047C00000209F
:1020F000034B23F8301003EBC0035A607047000015
:10210000C000002010B5002419E00E4830F834005B
:1021100098B10C4830F83400401E0A4921F83400C8
:10212000084600EBC400406838B1084630F8340077
:1021300018B901EBC40148688047601CC4B20B2C7D
:10214000E3DB10BDC000002000B5002208E0002045
:10215000064921F8320001EBC2014860501CC2B2AE
:102160000B2AF4DBFEF72EFD00BD0000C0000020AE
:102170001F1C1F1E1F1E1F1F1E1F1E1F4A616E4693
:1021800065624D61724170724D61794A756E4A7532
:102190006C4175675365704F63744E6F7644656329
:1021A0000003030601040602050003050000020007
:1021B0000400060008000A000C000E0010001200C7
:1021C0001400160018001A001C001E002000220037
:1021D00024002600000000000000000000000000B5
:1021E00000000000000000000000000000000000EF
:1021F000000000000000000000000000467269645A
:10220000617900004D6F6E646179000053756E64F2
:102210006179000053617475726461790000000097
:102220005765646E65736461790000005475657369
:10223000646179005468757273646179000000000C
:10224000602200080000002050000000701D0008FF
:10225000B022000850000020C8040000801D0008C3
:10226000000000000000000000000000000000006E
:10227000000000000C220008042200082C220008A4
:102280002022000834220008FC2100081422000843
:10229000000000000000000001000000000000003D
:1022A000000000000000000300000000000000002B
:0400000508000131BD
:00000001FF
