:020000040800F2
:100000008006002045010008B51500083D140008D1
:10001000B1150008590C0008652500080000000013
:1000200000000000000000000000000001210008A6
:100030001D0E00080000000001190008CD22000874
:10004000092600085F0100085F010008E11A0008A6
:100050005F0100085F010008050F00085F0100084C
:100060005F0100085F0100085F0100085F010008F0
:100070005F0100085F0100085F0100085F010008E0
:100080005F0100085F0100080D0700085F0100081C
:100090005F0100085F0100085F0100085F010008C0
:1000A0005F0100085F0100085F0100085F010008B0
:1000B000312300085F0100085F0100085F010008AC
:1000C0005F0100085F0100085F0100085F01000890
:1000D0005F01000875230008712400085F01000813
:1000E0005F0100085F0100085F0100085F01000870
:1000F0005F0100085F0100085F0100085F01000860
:100100005F0100085F0100085F0100085F0100084F
:100110005F0100085F0100085F0100085F0100083F
:100120005F0100085F0100085F0100085F0100082F
:10013000DFF80CD000F0C8FA00480047A9270008F3
:10014000800600200648804706480047FEE7FEE795
:10015000FEE7FEE7FEE7FEE7FEE7FEE7FEE7FEE777
:10016000D12200083101000840EA01039B0703D0B7
:1001700009E008C9121F08C0042AFAD203E011F8E6
:10018000013B00F8013B521EF9D27047D2B201E0A8
:1001900000F8012B491EFBD270470022F6E710B58C
:1001A00013460A4604461946FFF7F0FF204610BDE5
:1001B000F0B480EA0102D40F4200B2EB410F02D248
:1001C0000246084611464A0042D0C30DDDB2C1F3D3
:1001D000C752AD1A202D35DAC1F3160141F40002E1
:1001E00004B15242C5F1200602FA06F12A41104438
:1001F000B3EBD05F23D0C4B1012DA0EBC35009DC19
:10020000F0BC4FF0004202EAC352DBB200F500003E
:1002100000F0CFB9400000F1807000EBC350A0F1B6
:10022000807040EAD170490009E0490841EAC07194
:10023000A0EBC35000F50000400800EBC350F0BC39
:1002400000F0AEB96142012202EB4101001BF6E76A
:10025000F0BC704781F00041AAE780F00040A7E7BA
:1002600080EA010210B502F00043400022D04A00AB
:100270001FD0010E01EB1261C0F35600C2F356020B
:1002800040F4000042F40002A0FB022000047F3989
:10029000140400D0401C50EA124001D44000491E12
:1002A000C2B20C0604EBD010401C4008802A02D0D9
:1002B00003E0002010BD20F00100002900DA00203A
:1002C000184310BD30B480EA010202F0004530F05E
:1002D000004221F0004013D090B1C30DD40DC2F301
:1002E0001601C0F31600E41A41F4000140F40002C4
:1002F0007D34914201D3641C00E04900002C02DAF5
:1003000030BC002070474FF400000023914201D31D
:10031000891A034340084FEA4101F7D151B1914294
:1003200002D14FF0004105E002D24FF0010101E09F
:100330006FF0010103EBC450284430BC00F030B929
:100340002DE9FE4F81EA030404F0004421F000414E
:1003500000944FF0000B23F0004350EA01045ED0FC
:1003600052EA03045BD0C3F30A54C1F30A552C4488
:10037000A4F2F3340194A0FB0254C1F3130141F43D
:100380008011C3F3130343F4801301FB024400FB09
:10039000034E840A970A44EA815447EA8357A4FB30
:1003A000076802958D0A05FB07854FEA932C04FB2D
:1003B0000C542705029D4FEA065847EA1637B5EB5D
:1003C00008056EEB070C870E920E47EA811742EA8A
:1003D0008312A7FB0201B6EB0B0164EB00042B0DAB
:1003E00043EA0C335E1844EB1C50DA465146E7FBF7
:1003F0000201C5F313044FEA0B3343EA14534FEAE7
:100400000432019C43EA0603A4F10C040294009C0C
:10041000CDE900B400F00AF903B0BDE8F08F002088
:100420000146F9E72DE9F04D81EA030404F0004BA1
:1004300021F0004514464FF0000A23F0004150EA35
:10044000050220D054EA01021DD0C5F30A57024626
:10045000C5F31303C1F31300C1F30A5640F480152A
:1004600043F48013A7EB0608101BD64608F2FD38AC
:1004700073EB050002D308F1010801E092185B411B
:10048000B8F1000F03DA00200146BDE8F08D00202E
:100490004FF48011064684460EE0171B73EB0507E8
:1004A00005D3121B63EB050306434CEA010C490814
:1004B0004FEA300092185B4150EA0107EDD152EA51
:1004C000030012D082EA040083EA0501084305D044
:1004D000101BAB4106D20122002306E000224FF0A0
:1004E000004302E06FF0010253101AEB06004CEBE0
:1004F000085110EB0A0041EB0B01BDE8F04D00F094
:1005000086B896230022114600F053B80EB540F28B
:10051000334102910021CDE900110A460B4600F05B
:1005200085F803B000BD20F00040C10DC0F31600F7
:1005300040F400007F2901DA00207047962903DC8F
:10054000C1F19601C8407047963988407047C1F3A1
:100550000A5210B5C1F3130140F2FF3341F4801188
:100560009A4201DA002010BD40F233439A42A2F2CF
:10057000334203DC524200F003F810BD904010BD3E
:10058000202A04DB203A21FA02F00021704721FAE8
:1005900002F3D040C2F1200291400843194670474F
:1005A0000029A8BF7047401C490008BF20F0010087
:1005B000704710B4B0FA80FC00FA0CF050EA010465
:1005C00004BF10BC704749B1CCF1200421FA04F4F7
:1005D00011FA0CF118BF012121430843A3EB0C01D0
:1005E000CB1D4FEA00614FEA102042BF002010BC33
:1005F000704700EBC35010440029A4BF10BC7047E3
:10060000401C490008BF20F0010010BC704710B525
:10061000141E73F1000408DA401C41F10001921825
:100620005B411A4301D120F0010010BD2DE9F04DCE
:1006300092469B4611B1B1FA81F202E0B0FA80F223
:100640002032904600F052F804460F4640EA0A0075
:1006500041EA0B0153465A46084313D0114653EA68
:10066000010019D0C8F140025046FFF789FF054646
:100670000E4650465946424600F038F8084305D029
:10068000012004E020463946BDE8F08D00200543F6
:1006900046EAE0762C4337430A986305E40AA0EB68
:1006A00008000022FD0A44EA47540A3002D500201F
:1006B0000146E9E7010510196941DDE9084500191E
:1006C0006941BDE8F04DA2E7064C074D06E0E06841
:1006D00040F0010394E8070098471034AC42F6D389
:1006E000FFF72AFDB82B0008D82B0008202A04DBCE
:1006F000203A00FA02F1002070479140C2F1200335
:1007000020FA03F31943904070470000204909681C
:1007100001F0020100293AD01D494C31096888B224
:100720001C490988B1F57A7F20DB1B4909881B4ADF
:100730001288891A1A4A1B4B1B7822F81310194980
:1007400009780A2903DB0021164A117004E01549D3
:100750000978491C134A117000210E4A11800E4A73
:10076000118040F6FF710D4A118010E00A49098896
:10077000884201DD0849088008490988884201DA71
:100780000649088003490988491C024A11807047BC
:10079000002401401C000020180000201A00002046
:1007A000E0000020160000200B4800680B490840BC
:1007B0000949086008460068094908430649086075
:1007C0003021084801700848006840F480204FF04C
:1007D000E021C1F8000170470CED00E0FFF8FA05D8
:1007E0000004FA0512E400E000E100E00648806938
:1007F00040F0040004498861044800680449084343
:1008000002490860704700000010024000100140DB
:1008100000FF0F004448806940F40070424988613D
:100820000846C06840F40070C8600846C06820F4FC
:100830000070C8600846406820F4404048600846A0
:10084000406840F4404048603848006838490840F3
:10085000364908600846006808600846006840F4A9
:1008600080700860081D006840F00200091D0860E3
:100870000846006820F4602008600846006840F4DC
:10088000602008600846006840F480100860084650
:10089000006820F40060086024482830006820F4D4
:1008A00070002249283108600846006808601F4827
:1008B0000C3000681F4908401C490C31086008468C
:1008C00000681C49C943084318490C31086017489F
:1008D000001D006840F001001449091D0860084629
:1008E000006840F00800086000BF1048001D006864
:1008F00000F008000028F8D10C48001D006840F006
:1009000004000A49091D086000BF0848001D00686E
:1009100000F004000028F8D10448006840F02000EE
:1009200002490860704700000010024004240140A2
:10093000FFFFF000C00FE0FF38B5174D1748C07833
:10094000401E032190FBF1F01549087015480088FE
:100950000020144908800846008811490978084396
:1009600010490880284601F047FB002408E00B49A5
:10097000091D085D294601F09FFBAD1C601CC4B237
:100980000648C078A042F2DC002000900B22012132
:10099000684600F039FF38BD00F80008F400002078
:1009A000710000200C6C004010B587B000210022BF
:1009B000284B1B680093274B1B1D1B680193254B7D
:1009C000DB1D1B68029300201BE01DF8203004ACE7
:1009D00063544B1CD9B23DF82030C3F30723635452
:1009E0004B1CD9B25DF82030C3F3074363544B1C52
:1009F000D9B25DF820301B0E63544B1CD9B2431C96
:100A0000D8B20328E1DB002008E0134B1B5C04ACE8
:100A1000245CA34200D003E0431CD8B20C28F4DBD2
:100A200000BF0C2814D10C4B1B1F5B7C1A434FF6E4
:100A3000FF7303EA0222084B1B1F1B7C1A43074B60
:100A40001B880023054C238023461B8813432380E7
:100A500007B010BDE8F7FF1FF8000020086C004049
:100A6000F0B587B004460F4667480688E0786749C6
:100A70000880084600884FF47F4101EA002063495E
:100A8000088008460088A1780843604908802079DA
:100A900088706079C87028215C48001DFFF77DFBD5
:100AA000002506E0A81D215C5848001D4155681C22
:100AB000C5B26079A842F5DC54480088B04203D042
:100AC00052480088002854D14FF6FF70864251D119
:100AD0004F48006801904E48001D006802904C4845
:100AE000C01D006803904948C07B01064748807BD1
:100AF00041EA00414548407B41EA00204349097BE7
:100B0000084304904148C07A01064048807A41EA8F
:100B100000413E48407A41EA00203C49097A0843B6
:100B200005903A48C07901063848807941EA004189
:100B30003648407941EA0020344909790843069053
:100B40000699019888425DD105990298884259D149
:100B5000DDE90301884255D12C488078012802D074
:100B6000022806D102E0FFF71FFF02E001F00CF8B7
:100B700000BF47E025488078112801D100F0AEF988
:100B80002448007880BB21488078001F182838D27C
:100B9000DFE800F0153718371B371E372B372137A2
:100BA0002E37122427370C370F37313401F0DCFC95
:100BB00027E001F01BFB24E000F054FC21E000F0F2
:100BC00081FA1EE000F064F81BE000F0B3FA18E0D0
:100BD000FFF7B2FE15E000F083F812E000F0CAFA69
:100BE0000FE000F04FF80CE00CE000F049FA08E0EC
:100BF00000F054F905E001F0ADFE02E001F0B4FDB3
:100C000000BF00BF07B0F0BD086C0040F40000203A
:100C1000E8F7FF1F240000200D48006940F0006045
:100C20000B4908610846006920F000600861084629
:100C3000C06940F08050C8610846C06940F000605B
:100C4000C8610448006840F4807002490860704739
:100C5000001002400070004000BFFEE7074909880D
:100C60004FF6FF72914206D10549097809B9012072
:100C700002E0002000E0002070470000086C004007
:100C800072000020002001490870704769000020B0
:100C900038B510481049086001F0AEF900240CE0A6
:100CA0000E49085D0C49096801F006FA0A48006817
:100CB000801C09490860601CC4B20848001FC07845
:100CC000A042EDDC0020009007220121684600F0E0
:100CD0009BFD38BD00F4000820000020F800002033
:100CE0002DE9FC5F01201D4908701D48007930B9CD
:100CF00000201C490870662000F03CFC23E001F055
:100D0000DDFC17480079174908706E2000F032FCAE
:100D100014480078FFF7FAFB04460D461248008895
:100D2000FFF7F4FB80460022104BFFF77BFB0646E3
:100D300022462B46FFF704FB8246FFF708FC80B2F1
:100D4000009001F0E5FD0748007801900F22012195
:100D500001A800F059FDBDE8FC9F000069000020DB
:100D6000F40000206E0000206C00002000005940BC
:100D70002DE9F04705460E4617469846DDE9089AE4
:100D8000002440F2B27085423CDB40F633008542DD
:100D900038DC40F2B2730AE0184600F0AFFB10B145
:100DA0001A48044401E01A480444581C83B2AB4278
:100DB000F2DB002310E01748C05C40F2A321484357
:100DC00004EBC014284600F099FB18B1012B01D1A7
:100DD00011480444581C83B2701E9842EBDC002377
:100DE00003E00D480444581C83B2BB42F9DBC8EB56
:100DF0004810C0EB082004EB0014C9EB091004EB09
:100E0000800454442046BDE8F08700000085E201DC
:100E10008033E101E82A000880510100704700009A
:100E200010B504461348C06800F00100124908706C
:100E300008460078E0B90F48006940F002000D490B
:100E4000086108464461006940F0400008614FF4C1
:100E5000302000F001F908490870084600780128A0
:100E600006D00448006941F2F46108400149086174
:100E700010BD000000200240260000200146002096
:100E800005E0002000E0401CB0F5FA5FFBD30A1E2D
:100E9000A1F1010399B2F4D17047000010B50C48DC
:100EA0000079352805D1022001F0D4FD0020094940
:100EB000087007480079862808D1022001F0CAFD91
:100EC00000200449087001200349087010BD00008B
:100ED000F4000020740000202400002010B500243D
:100EE00000200549087005480488054A214602206B
:100EF00001F0BAFD10BD000024000020106C00407D
:100F00004114000810B50A20FFF7B8FF04A001F053
:100F1000ADFB0120044908700449086010BD0000C1
:100F20006578746930000000250000201404014039
:100F300010B523480078E0B9062001F08BFD214868
:100F4000006820F01F001F4908600846006808601C
:100F50001C482C38006840F480001A492C3908607D
:100F6000012017490870184A6421052001F07CFD12
:100F70001DE0052001F06EFD1248006820F01F0002
:100F8000104908600846006840F0010008600D48FC
:100F90002C38006840F480000A492C390860002091
:100FA00007490870094A6421062001F05DFDAFF28F
:100FB0007F024FF47A71042001F056FD10BD00004D
:100FC0007500002034240140D10F000809100008EA
:100FD00010B5012004490870AFF20B02642106200D
:100FE00001F042FD10BD00007700002010B5012087
:100FF00004490870AFF20B024FF47A71032001F03C
:1010000033FD10BD7300002010B5012004490870A5
:10101000AFF20B026421052001F026FD10BD000097
:101020007600002004200B49C96801F0010109B1D4
:1010300001200EE00749C96801F0040109B102204E
:1010400007E00449C96801F0100109B1032000E07C
:10105000042070470020024000B502460423FFF739
:10106000E1FF034603E0FFF7DDFF0346521E012BBD
:1010700001D1002AF7D102B90523184600BD0000AE
:1010800030B589B00D4D002405E0287801A9085538
:10109000AD1C601CC4B20A48008800EB4000401C34
:1010A000A042F2DC0648008800EB4000C1B20D22ED
:1010B00001A800F0A9FB09B030BD000002F800084B
:1010C0000C6C004030B587B00024194800680090CF
:1010D0001748001D006801901548C01D0068029067
:1010E00000251BE01DF8250004A90855601CC4B2AA
:1010F0003DF82500C0F307200855601CC4B25DF818
:101100002500C0F307400855601CC4B25DF82500F7
:10111000000E0855601CC4B2681CC5B2032DE1DB8B
:1011200005220C2104A800F06FFB07B030BD0000C1
:10113000E8F7FF1F10B588B00C480D49086000247F
:101140000BE00B480068007801A9085508480068C2
:10115000801C07490860601CC4B2142CF1DB092212
:10116000142101A800F050FB08B010BD00F40008E5
:101170002000002000B585B014216846FFF70DF867
:1011800000F098FD114800798DF800000F48808824
:10119000000A8DF801000D4880798DF802000B4897
:1011A000C0798DF80300094800788DF804000748DD
:1011B00040788DF80500054880788DF806001522E6
:1011C0000721684600F020FB05B000BD200100208B
:1011D0000248034948600348486070472301674557
:1011E00000200240AB89EFCD0020002106E0074A35
:1011F00032F81120024490B24A1CD1B20A29F6DB1F
:101200000A2290FBF2F290B270470000E00000204A
:1012100030B502460B46002016E0147880EA042020
:1012200000210EE000F400442CB141F2210484EAD4
:101230004004A0B203E04FF6FF7404EA40004C1CE7
:10124000E1B20829EEDB521C1C1EA3F10105ABB272
:10125000E3D130BD30B502460B464FF6FF7011E0CA
:101260001478604000210AE000F0010424B14AF241
:10127000010484EA600000E040104C1CE1B208293F
:10128000F2DB521C1C1EA3F10105ABB2E8D130BD4C
:101290002DE9F0410C4DFFF7A7FF04462888FFF722
:1012A00030F907462046FFF72CF980463946FEF70D
:1012B000D7FF0646FFF737F984B204490C71200ABC
:1012C0004871BDE8F081000004FC0008F201002034
:1012D00070B51D4D1D48048800F0ECFC1C480078DA
:1012E000012806D11B48007800F00F00194908704A
:1012F00005E01848007840F01000164908701648BC
:10130000006800F4807030B11248007800F0F000FE
:101310001049087005E00F48007840F001000D49C1
:10132000087028780B4948700C4800788871CC7197
:10133000200A08720A480078487209484078887282
:1013400007488078C87270BD00F80008046C00403F
:1013500069000020F20100200C0C01406E0000200A
:10136000200100202DE9F0470E4DFFF73DFF044618
:101370002888FFF7C6F881460B49FEF7A3FF07460A
:101380002046FFF7BEF880463946FEF769FF06465D
:10139000FFF7C9F884B205498C70200AC870BDE80F
:1013A000F087000002FC00080000C842F2010020A3
:1013B00070B51F4800785A281ED11D4840783C2837
:1013C0001AD11C4801881A48FFF744FF054625B981
:1013D000184801781648FFF743FB002404E000207A
:1013E00013490855601CC4B2124800888442F6DBD9
:1013F00000201049088016E00D480078612804D1CB
:101400004FF4FA70FFF73AFD0DE0002404E00020ED
:1014100007490855601CC4B2064800888442F6DBC0
:1014200000200449088000200349087070BD0000B6
:101430002A0100205C0000206100002000BFFEE7C0
:1014400010B5002401200549087005480488AFF252
:101450000F022146022001F007FB10BD740000209E
:10146000106C00400020034908704FF6FF700249DD
:101470000880704772000020086C004008488069AE
:1014800040F00800064988610648006800200549C8
:1014900008600846006840F00300086070470000DC
:1014A00000100240040C01401148006840F08050D8
:1014B0004FF0E021C1F8000110210E4801700E48E4
:1014C000C06940F001000C49C8610020890488848B
:1014D000472008854FF47A708885C006808940F0DF
:1014E000010088810846008840F0010008807047AC
:1014F00000E100E01CE400E0001002400146CA17D1
:1015000001EB92729210A1EB820292B9642091FBDE
:10151000F0F200FB121050B94FF4C87091FBF0F2DA
:1015200000FB121008B9012070470020FCE70120E1
:10153000FAE70020F8E700000C48806940F0080056
:101540000A4988610A48006820F470600849086008
:101550000846006840F400600860054808300068EC
:1015600040F4806002490831086070470010024072
:10157000040C01406E280AD10C49096821F00121B0
:101580000A4A11601146096841F0807111606628AD
:101590000AD10649096821F00121044A1160114667
:1015A000096841F48071116070470000100C01401F
:1015B00000BFFEE7704700002DE9F04F99B05021C1
:1015C00005A8FEF7EAFD00BFDFF89CA100F072FB62
:1015D000664800880A2825DC00241FE004EB44004C
:1015E0003AF810004FF46161484304EB44020AF1F9
:1015F000020131F81210C1EB011100EB810005A9C5
:1016000041F8340004EB44010AF1040030F8110001
:1016100005A901EBC4014860601CC4B253480088AE
:10162000A042DBDC524800784FF4616148435049E6
:101630004978C1EB011100EB810901F03FF800246A
:1016400089E04A480088C0B204900498401EA04235
:101650003ED105A850F83400484538D84548814562
:1016600035D805A800EBC400406840B96620FFF7F4
:1016700081FF00204049087001F04AF927E06E2000
:10168000FFF778FF05A800EBC40000793A4908701D
:1016900005A901EBC4014868FEF738FFCDE9020156
:1016A00036480088FEF732FF07460022344BFEF72B
:1016B000B9FECDE90001DDE90223FEF741FE054652
:1016C000FEF745FF1FFA80FB584601F021F947E07D
:1016D00005A850F8340048453BD805A9601C51F8CE
:1016E0003000484535D905A800EBC400406840B932
:1016F0006620FFF73FFF00201F49087001F008F93E
:1017000027E06E20FFF736FF05A800EBC400007944
:101710001949087005A901EBC4014868FEF7F6FEF7
:10172000CDE9000115480088FEF7F0FE07460022CB
:10173000134BFEF777FE0546DDE90023FEF700FEBA
:10174000CDE90201FEF703FF1FFA80FB584601F0C6
:10175000DFF8601CC4B205480088A0423FF771AFB3
:1017600000BF19B0BDE8F08F02F800080C6C004013
:1017700020010020805101006E0000206C0000203C
:10178000000059401D48806940F6040108431B4988
:1017900088611B48006820F47040194908600846B9
:1017A000006840F4104008601648008840F00100CE
:1017B0001449088013481C30008840F4C040114987
:1017C0001C31088040F29F500E4928310880642067
:1017D000091D08800B482030008840F4405009491A
:1017E000203108806420074940310880081D0088A6
:1017F00040F40040091D08807047000000100240BE
:1018000004080140002C01402DE9F0478EB08146CC
:101810008846164606255A208DF804003C208DF88F
:1018200005002EB9FF208DF806008DF8070009E0AD
:101830002F480088C0B28DF806002D480088000AA5
:101840008DF807008DF808608DF80980002407E006
:1018500019F8040001A94855681CC5B2601CC4B23F
:101860004445F5DB294601A8FFF7F4FC074601A92A
:101870004F55681CC5B2380A4855681CC5B29DF85A
:101880000600FF281DD19DF80700FF2819D11EB1C1
:10189000172E01D0192E28D11648008800F0FF0A13
:1018A000002405E001A8005D13490855601CC4B27E
:1018B000AC42F7DB114805800F49087800F026FE9E
:1018C00013E00C48008800F0FF0A002405E001A89E
:1018D000005D09490855601CC4B2AC42F7DB0748FB
:1018E00005800549087800F011FE0EB0BDE8F087CC
:1018F000086C0040003801405C0100205E000020C0
:10190000704700002DE9F05F05460E463001FEF7F6
:10191000F8FD8146394905FB01F0FEF7F2FD8246EC
:101920004946FEF7CFFC07463846FEF7FCFD84B279
:101930002046FEF7E6FD83463946FEF78EFC8246DA
:101940004FF08341FEF78CFC8146FEF7ECFD8046AC
:101950004FF6FF7000EA041404EB080084B2284834
:10196000806940F00400264988612648006820F418
:101970007020244908600846006840F44030086040
:101980000846006820F47F4008600846006840F47C
:101990000B4008601A48C06940F400301849C8611B
:1019A0000846006940F4003008610846006920F4E8
:1019B0000030086114480480001D008842F20C01C8
:1019C00008431149091D08800846008840F48070CA
:1019D00008800846008840F0200008800948103040
:1019E000006820F0101007491031086008460068B0
:1019F00040F480100860BDE8F09F000040420F00F6
:101A000000100240000801400844004010B50120C9
:101A100002490870072001F01DF810BD32000020B7
:101A200010B507210F48FFF7F3FB0446A4B90D4892
:101A300000790D4908730B484078487309480078CD
:101A400088730848C078C8730648807808740748C7
:101A50000178044800F00EF8002004490870044999
:101A6000087010BD2A000020F20100203100002083
:101A70003200002010B50246174B1B6823F01013EC
:101A8000154C236023461B6843F01003236000209D
:101A90000CE000BF114B1B8803F04003002BF9D072
:101AA000135C0E4C241D2380431CD8B28842F0DB0B
:101AB00000BF0A4B1B8803F04003002BF9D0064BF4
:101AC0001B6823F01013044C236023461B6843F467
:101AD0008013236010BD0000100801400044004046
:101AE0001848008800F0010020B31748006800F48F
:101AF0008070A0B915480068401C14490860084669
:101B000000684FF46161B0FBF1F201FB120088B98B
:101B100000200E49086001200D4908700AE00B48BA
:101B20000068B0F5FA6F02D301200949087000205F
:101B3000064908600348008840F6FA7108400149E8
:101B400008807047042800400C0C0140340000203D
:101B5000380000200948006840F4A0600749086088
:101B600007480078064908700648006840F00800F9
:101B70004FF0E021C1F80001704700000CED00E0DB
:101B800003E400E000E100E0012001490870704733
:101B9000720000202DE9F04788B000242548006835
:101BA00005902448001D006806902248C01D00686A
:101BB000079000252AE0FF20064607468046824619
:101BC00005A850F8250000EA0A0A0DF804A0601CD8
:101BD000C4B205A850F8250008EA10280DF80480C2
:101BE000601CC4B205A850F8250007EA10470DF89C
:101BF0000470601CC4B205A850F8250006EA1066FF
:101C00000DF80460601CC4B2681CC5B2032DD2DBA1
:101C10000948007838B900220C216846FFF7F4FD26
:101C20004FF0010901E04FF00009484608B0BDE857
:101C3000F0870000E8F7FF1F62000020F0B50346C0
:101C40000C461546642093FBF0F0C6B2642093FB6B
:101C5000F0F700FB1730C1B2132E02DD01F1640072
:101C6000C1B20846CF1701EB977701EBA707BAB2CD
:101C7000072092FBF0F700FB172082B25719601E75
:101C8000DFF82CC01CF80000384482B2CF1701EBFB
:101C90009777BF10A1EB87071FB9032C01DA501EFD
:101CA00082B2072092FBF0F700FB1720C0B2F0BD14
:101CB000182B00082DE9F04140F2B2780025364893
:101CC00006883604001D008806443448B6FBF0F44C
:101CD0000FE01FFA88F0FFF711FC30B1B4F5B77FC1
:101CE00002D3A4F5B77402E006E0A4F26D1408F183
:101CF0000108B4F5B67FECD800BF2949A1F80480EB
:101D000015E01FFA88F0FFF7F9FB30B1012D04D17F
:101D10001D2C01D31D3C09E00BE02248405DA04290
:101D200003D82048405D241A00E002E06D1C1C2C02
:101D3000E7D200BF1A49CC71681C88711748B6FBFE
:101D4000F0F100FB11674FF46160B7FBF0F014494C
:101D500008704FF46160B7FBF0F100FB11703C219B
:101D6000B0FBF1F00E4948704FF46160B7FBF0F141
:101D700000FB11703C21B0FBF1F201FB120008499D
:101D800088700B46DA7999799888FFF757FF0449EC
:101D90000872BDE8F0810000182800408051010061
:101DA00020010020E82A000810B54F4800884F495C
:101DB000086008460088000408604B48001D008841
:101DC000096808444949086008460068002872D13B
:101DD0004748C06940F080504549C8610846C0691D
:101DE00040F00060C8614348006840F48070414999
:101DF00008603F48006A40F001003D49086200BFAA
:101E00003B48006A00F002000028F9D03AA000F038
:101E10002DFC3748006A40F4807035490862084656
:101E2000006A40F40040086200BF2F481438008860
:101E300000F020000028F8D000BF2B48143800889C
:101E400000F008000028F8D027481838008840F033
:101E5000010025491839088000BF2348143800883C
:101E600000F020000028F8D01F481438008840F007
:101E700010001D49143908800020091D088047F60C
:101E8000FF70091D088018481438008820F01000E1
:101E900015491439088000BF13481438008800F031
:101EA00020000028F8D01348006820F48070114901
:101EB000086018E0FFE700BF0B481438008800F006
:101EC00008000028F8D008481838008840F00100C1
:101ED00005491839088000BF03481438008800F00D
:101EE00020000028F8D010BD18280040580000201D
:101EF0000010024000700040696E6974000000002C
:101F000000B5164800881649086008460088000495
:101F100008601248001D00880968084410490860DC
:101F200008460068B8B100BF0C481438008800F0BB
:101F300008000028F8D009481838008840F001004F
:101F400006491839088000BF04481438008800F09A
:101F500020000028F8D0FFF7FDFD00BD1828004044
:101F6000580000202DE9FC4705460E4617469846C6
:101F7000DDE90A9A43463A4631462846CDE9009AB9
:101F8000FEF7F6FE04461948C06940F08050174934
:101F9000C8610846C06940F00060C8611448006824
:101FA00040F48070124908601248008840F0100028
:101FB000104908800F4918310C80200C091F088037
:101FC0000C48008820F010000A49088000BF09482A
:101FD000008800F020000028F9D00548006820F4AF
:101FE000807003490860BDE8FC87000000100240D3
:101FF000007000400428004070B505460024FFF73B
:10200000E7F845F6FF7000F041F80446C4B90E4801
:10201000006940F002000C4908610846456100690A
:1020200040F04000086145F6FF7000F02FF80446CC
:10203000012C05D00448006920F002000249086123
:1020400000F01AF8204670BD002002400948C1681F
:1020500001F0010008B10120704701F0040008B14F
:102060000220F9E701F0100008B10320F4E7002096
:10207000F2E70000002002400348006940F08000C1
:1020800001490861704700000020024070B5044615
:1020900000BFFFF7DBFF0546012D00D006E0012061
:1020A000FEF7ECFE601E84B2002CF2D100BF04B932
:1020B000FF25284670BD000070B505460E46FFF7A7
:1020C00087F8FF20FFF7E2FF044694B90B48006948
:1020D00040F00100094908613580FF20FFF7D6FF75
:1020E0000446012C05D00548006920F00100034991
:1020F0000861FFF7C1FF204670BD000000200240CC
:10210000704710B500F002F810BD00000CB50020BB
:10211000019000903348006840F4803031490860F5
:1021200000BF3048006800F4003000900198401C67
:102130000190009818B90198B0F5A06FF1D1294825
:10214000006800F4003010B10120009001E0002090
:1021500000900098012843D12348006840F0100007
:10216000214908600846006820F00300086008461E
:10217000006840F0020008601A4840681949486049
:102180000846406848600846406840F480604860FF
:102190000846406820F47C1048600846406840F4D7
:1021A000E81048600846006840F08070086000BF92
:1021B0000C48006800F000700028F9D00948406819
:1021C00020F00300074948600846406840F00200DC
:1021D000486000BF0348406800F00C000828F9D1AF
:1021E0000CBD0000001002400020024030B587B056
:1021F000002004900590069002900390002420E0B7
:1022000004A830F814006100491C2E4A515C0843B0
:1022100004A921F8140004A830F814004FF6FF7147
:1022200001EA002004A921F8140004A830F81400E1
:10223000114611F81410084304A921F81400601C79
:10224000C4B2062CDCDBFFF7AFFDFFF783FCBDF863
:102250001A00C0B2BDF81810C9B2CDE90010BDF81F
:102260001650EBB2BDF81450EAB2BDF81250E9B204
:10227000BDF81000FFF776FEFFF71CFD124800794D
:102280008DF8080010488088000A8DF809000E4873
:1022900080798DF80A000C48C0798DF80B000A4847
:1022A00000788DF80C00084840788DF80D0006483D
:1022B00080788DF80E001922072102A8FFF7A4FAF2
:1022C00007B030BDF800002020010020704700005A
:1022D00010B51348006840F0010011490860084635
:1022E0004068104908400E494860084600680E4999
:1022F00008400B4908600846006820F48020086008
:102300000846406820F4FE0048604FF41F008860D3
:10231000FFF7F7FE4FF000600449086010BD0000B1
:10232000001002400000FFF8FFFFF6FE08ED00E09D
:1023300010B54FF08040008A20F001004FF080413E
:10234000088200F09BFB10BD08490888411C88B238
:10235000064909880021054A118011460988014370
:1023600011800021024A117070470000046C004087
:102370003800002010B52448008800F02000C0B1CB
:102380002248007888B92048001D00882049214A49
:10239000128888541F480088401C1E4908801E4A25
:1023A0006421012000F060FB03E01748001D008855
:1023B000C4B21548008800F0400020B317480078E8
:1023C00008B3174817490978405C0F49091D088070
:1023D00014480078401C13490870084600781249D8
:1023E000098888420FDB08480C30008820F0400044
:1023F00005490C31088001200A490870002007496E
:1024000008700949088010BD0038014061000020B3
:102410002A0100205C000020FD2800086200002046
:102420005C010020600000205E0000200B48006876
:102430000B490840094908600846006809490843F3
:10244000064908603021084801700848006840F0DB
:1024500020004FF0E021C1F8040170470CED00E0CE
:10246000FFF8FA050004FA0525E400E004E100E0C5
:1024700010B51048008800F02000C8B10E48007860
:1024800090B90C48001D0088C4B20C480C4909786A
:1024900044540B480078401C09490870094A0A2135
:1024A000072000F0E1FA03E00248001D0088C4B2F2
:1024B00010BD000000440040320000202A0000202F
:1024C000310000200D1A00080B4800680B49084035
:1024D0000949086008460068094908430649086038
:1024E0000848006840F040004FF0E021C1F80401C6
:1024F00030210548017070470CED00E0FFF8FA0547
:102500000004FA0504E100E026E400E000BF0A4907
:10251000098801F040010029F9D00749091D088008
:102520000121064A117004490C31098841F040012B
:10253000014A0C32118070470038014062000020CF
:1025400010B50648007830B9032211210448FFF77E
:102550005BF9012400E00024204610BD6200002049
:10256000F201002000BFFEE77CB500200190009042
:10257000002420E001A830F814006100491C204A22
:10258000515C084301A921F8140001A830F8140097
:102590004FF6FF7101EA002001A921F8140001A8FB
:1025A00030F81400114611F81410084301A921F85D
:1025B0001400601CC4B2022CDCDB124DA81EFEF716
:1025C0002FFCBDF80400294600F024F8BDF80600F1
:1025D000A91C00F01FF828788DF800002888000A50
:1025E0008DF80100A8788DF802006888000A8DF83F
:1025F0000300172204216846FFF706F97CBD00009E
:10260000F800002002FC0008002001490860704723
:10261000082C004010B502460B461C46FEF7D8FDBC
:102620001048C06800F001000F49087008460078A3
:10263000B8B90C48006940F001000A4908612280DD
:102640000846C06800F00100074908700846007895
:10265000012806D00348006941F2F66108400149AB
:10266000086110BD0020024026000020014A0249F6
:1026700000F013B88D2700087800002002E008C899
:10268000121F08C1002AFAD170477047002001E0EC
:1026900001C1121F002AFBD170472DE9F0411646F7
:1026A0000F460446002503E03946B047641C6D1C04
:1026B00020780028F8D12846BDE8F081F0B595B023
:1026C0005022254901A8FDF74FFD244F002406E0C4
:1026D00039880BA820F81410BF1C601C84B2142C7D
:1026E000F6DB1F4806884FF47A7096FBF0F085B24F
:1026F0004FF47A7096FBF0F100FB1160B0F5FA7FB1
:1027000001DD681C85B2262D02DD64201549088094
:1027100000241BE025B9BDF82C001249088017E001
:1027200001A830F81400A8420CDD24B9BDF82C0033
:102730000C4908800CE0601E0BA931F81000094913
:10274000088005E0601C84B2601C84B2142CE1DBBC
:1027500000BF15B0F0BD0000242B000800F40008F5
:10276000046C00406C00002038B500240648048842
:10277000E0B28DF80000200A8DF801001C22022131
:102780006846FFF741F838BD106C004000BF054AAD
:10279000128802F04002002AF9D0C2B2014B1B1D80
:1027A0001A807047003801400024FFF791FD4FF474
:1027B0001651482000F0E6F8FFF738FE00F080F9E7
:1027C000FEF72AFAFEF712F8FEF724F8FDF7ECFF01
:1027D000FEF754FEFEF7D6FF6620FEF7CBFE002084
:1027E00038490870FEF7F4FCFFF78AFBFEF7A4FEF9
:1027F0004FF416614820FFF785F8FFF765FE324871
:1028000004881CB941F288302F4908802F4A4FF4C0
:102810007A71022000F028F92D4A41F28831032014
:1028200000F022F92B4A4FF47A71042000F01CF9D1
:1028300047E02948007878B1FEF710FA30B1FFF789
:10284000A9F948B100202449087005E0FFF778FE97
:1028500010B100202049087020480078012804D1D8
:10286000FEF736FD00201D4908701D48007801283C
:1028700004D1FEF777FD0020194908701948007847
:10288000012804D1FEF704FD0020164908701648FF
:10289000007850B91548007808B9FEF78DFE144845
:1028A0000078012801D1FFF74FFD12480078012878
:1028B00001D1FEF77DFD10480078012801D1FFF716
:1028C000AFF8B6E76E000020106C0040411400081D
:1028D000ED0F0008310F0008740000207300002085
:1028E00076000020770000202400002069000020EE
:1028F00038000020610000203200002010B50120C7
:102900000249087000F0A6F810BD00006100002028
:102910000E490988884217D00D49098821F40041E1
:102920000B4A1180111F0880084908800849303976
:10293000098841F00101064A303A118004490988AA
:1029400041F40041024A1180704700002800002035
:10295000442C01400020094948794FF47F4101EAA5
:102960000020064909790843054909880021044ADD
:10297000118011460988014311807047F40000203E
:10298000106C00402DE9F05F05460E463001FDF762
:10299000B8FD81462B4905FB01F0FDF7B2FD8246EB
:1029A0004946FDF78FFC07463846FDF7BCFD84B26B
:1029B0002046FDF7A6FD83463946FDF74EFC8246CC
:1029C0004FF08341FDF74CFC8146FDF7ACFD80469E
:1029D0004FF6FF7000EA041404EB080084B21A48B2
:1029E000806940F00400184988610846806940F415
:1029F000804088611548006820F47F6013490860B2
:102A00000846006840F40B6008600F48C06840F456
:102A100080400D49C8600846C06820F48040C86006
:102A20000B480480001D008842F20C01084308494D
:102A3000091D08800846008840F020000880BDE895
:102A4000F09F000040420F000010024004080140C7
:102A5000083801400021034A22F8301002EBC0027E
:102A60005160704724020020034B23F8301003EB21
:102A7000C0035A60704700002402002010B50024F3
:102A800019E00E4830F8340098B10C4830F83400A2
:102A9000401E0A4921F83400084600EBC400406893
:102AA00038B1084630F8340018B901EBC401486861
:102AB0008047601CC4B20B2CE3DB10BD2402002055
:102AC00000B5002208E00020064921F8320001EBA1
:102AD000C2014860501CC2B20B2AF4DBFEF7E4FCD2
:102AE00000BD0000240200201F1C1F1E1F1E1F1FF0
:102AF0001E1F1E1F4A616E4665624D6172417072F3
:102B00004D61794A756E4A756C4175675365704FB2
:102B100063744E6F76446563000303060104060286
:102B200005000305000002000400060008000A007A
:102B30000C000E00100012001400160018001A00FD
:102B40001C001E00200022002400260000000000BF
:102B50000000000000000000000000000000000075
:102B60000000000000000000000000000000000065
:102B70000000000046726964617900004D6F6E6468
:102B80006179000053756E6461790000536174755A
:102B900072646179000000005765646E657364615A
:102BA000790000005475657364617900546875722A
:102BB0007364617900000000D82B00080000002039
:102BC0007C0000007C260008542C00087C000020BB
:102BD000040600008C260008000000000000000031
:102BE00000000000000000000000000000000000E5
:102BF0000000FF0F000000000000000000000000C7
:102C000000000000000000000000000000000000C4
:102C100000000000842B00087C2B0008A42B000877
:102C2000982B0008AC2B0008742B00088C2B000894
:102C30000000000000000000010000000000000093
:102C40000000000000000000030000000000000081
:042C50000000000080
:0400000508000131BD
:00000001FF
