:020000040800F2
:10000000C805002001010008090100080B010008D3
:100010000D0100080F010008110100080000000098
:1000200000000000000000000000000013010008B4
:100030001501000800000000170100081901000860
:100040003D2600081B0100081B010008B11900082B
:100050001B0100081B010008651500081B010008B2
:100060001B0100081B0100081B01000861130008A8
:1000700081130008A1130008C1130008E113000850
:100080000114000821140008ED0E00081B010008EF
:100090001B0100081B0100081B0100081B010008D0
:1000A0001B0100081B0100081B0100081B010008C0
:1000B0001B0100081B0100081B0100081B010008B0
:1000C0001B0100081B0100081B0100081B010008A0
:1000D0001B01000825250008BD2500081B0100089C
:1000E0001B0100081B0100081B010008DFF80CD0F1
:1000F00000F084FC00480047E92F0008C8050020F4
:100100000648804706480047FEE7FEE7FEE7FEE7B1
:10011000FEE7FEE7FEE7FEE7FEE7FEE7C524000890
:10012000ED000008D2B201E000F8012B491EFBD21D
:1001300070470022F6E710B513460A4604461946F2
:10014000FFF7F0FF204610BD10B5002200E0521C62
:10015000835C8C5CA34201D1002BF8D1D8B2E1B210
:10016000401A10BD70B5064602F0AAFA04680546AA
:100170000A220021304600F02FFA2C6070BDF0B446
:1001800080EA0102D40F4200B2EB410F02D20246D4
:10019000084611464A0042D0C30DDDB2C1F3C75232
:1001A000AD1A202D35DAC1F3160141F4000204B175
:1001B0005242C5F1200602FA06F12A411044B3EB7F
:1001C000D05F23D0C4B1012DA0EBC35009DCF0BC3B
:1001D0004FF0004202EAC352DBB200F5000000F02B
:1001E0003CBA400000F1807000EBC350A0F1807079
:1001F00040EAD170490009E0490841EAC071A0EB2A
:10020000C35000F50000400800EBC350F0BC00F004
:100210001BBA6142012202EB4101001BF6E7F0BC70
:10022000704781F00041AAE780F00040A7E780EA2C
:10023000010210B502F00043400022D04A001FD056
:10024000010E01EB1261C0F35600C2F3560240F4F6
:10025000000042F40002A0FB022000047F391404D5
:1002600000D0401C50EA124001D44000491EC2B2E6
:100270000C0604EBD010401C4008802A02D003E09A
:10028000002010BD20F00100002900DA00201843F2
:1002900010BD30B480EA010202F0004530F00042A7
:1002A00021F0004013D090B1C30DD40DC2F316015C
:1002B000C0F31600E41A41F4000140F400027D345A
:1002C000914201D3641C00E04900002C02DA30BCEA
:1002D000002070474FF400000023914201D3891A97
:1002E000034340084FEA4101F7D151B1914202D195
:1002F0004FF0004105E002D24FF0010101E06FF044
:10030000010103EBC450284430BC00F09DB92DE935
:10031000FE4F81EA030404F0004421F00041009400
:100320004FF0000B23F0004350EA01045ED052EA84
:1003300003045BD0C3F30A54C1F30A552C44A4F25E
:10034000F3340194A0FB0254C1F3130141F4801172
:10035000C3F3130343F4801301FB024400FB034E79
:10036000840A970A44EA815447EA8357A4FB076842
:1003700002958D0A05FB07854FEA932C04FB0C546C
:100380002705029D4FEA065847EA1637B5EB0805E0
:100390006EEB070C870E920E47EA811742EA831232
:1003A000A7FB0201B6EB0B0164EB00042B0D43EA43
:1003B0000C335E1844EB1C50DA465146E7FB020151
:1003C000C5F313044FEA0B3343EA14534FEA0432E4
:1003D000019C43EA0603A4F10C040294009CCDE9BD
:1003E00000B400F077F903B0BDE8F08F00200146BB
:1003F000F9E796230022114600F02FB920F00040C3
:10040000C10DC0F3160040F400007F2901DA00207E
:100410007047962903DCC1F19601C84070479639B0
:100420008840704700F0004230F000400AD0C10D13
:1004300001F56071C0F3160042EA0151C20840079D
:100440001143704700200146704701F0004330B46B
:1004500021F0004150EA010206D00A0DA2F56072B7
:10046000C1F31301002A02DC30BC00207047440FA6
:1004700044EAC104C100E01830BC00EBC25000F0F7
:10048000E3B80000002801DBC0F10040002901DBD7
:10049000C1F1004181427047002801DBC0F10040FA
:1004A000002901DBC1F100418842704730B50B469D
:1004B000014600202022012409E021FA02F59D4294
:1004C00005D303FA02F5491B04FA02F52844151E68
:1004D000A2F10102F1DC30BD2DE9F05F05460020FC
:1004E00092469B4688460646814640241BE02846A5
:1004F00041464746224600F0A2FA53465A46C01AE1
:10050000914110D311461846224600F089FA2D1A5F
:1005100067EB01084F4622460120002100F080FAD7
:1005200017EB00094E41201EA4F10104DFDC484610
:1005300031462A464346BDE8F09F00000FB4002331
:1005400000B589B00CA900910B996FF00042CB6007
:100550001E4B06931E4B07930423CDE901321D4A1F
:10056000089202466B46002000F01AFB09B05DF8C5
:1005700014FB70B586B006464FF0FF300091CDE910
:100580000101002015460C4604903246694604A835
:10059000FFF7D4FF03460498211825B108B10A4695
:1005A00000E022462A6000280DD0002B02DD0098D2
:1005B000884208D0081B0094CDE901043246694600
:1005C00004A8FFF7BBFF06B070BD0000D90D0008FE
:1005D000F70D00088D0A00082DE9F04791460F46F7
:1005E00080460446002614F8015B2DB100F04AFA5B
:1005F0000068405DC007F6D12B2D02D02D2D18D0FC
:10060000641E4A463946204600F006FC27B1396888
:10061000A14201D1C7F8008071054FF002040BD54B
:100620004042002803DD02F04BF80460A007BDE85B
:10063000F08746F48066E4E70028F8DA02F040F834
:1006400004606FF00040F2E70029A8BF7047401C2B
:10065000490008BF20F00100704710B4B0FA80FCD8
:1006600000FA0CF050EA010404BF10BC704749B115
:10067000CCF1200421FA04F411FA0CF118BF012185
:1006800021430843A3EB0C01CB1D4FEA00614FEA65
:10069000102042BF002010BC704700EBC350104434
:1006A0000029A4BF10BC7047401C490008BF20F0BF
:1006B000010010BC704710B5141E73F1000408DA75
:1006C000401C41F1000192185B411A4301D120F016
:1006D000010010BD2DE9F04D92469B4611B1B1FAD3
:1006E00081F202E0B0FA80F22032904600F098F9F0
:1006F00004460F4640EA0A0041EA0B0153465A46B7
:10070000084313D0114653EA010019D0C8F1400242
:10071000504600F094F905460E465046594642466A
:1007200000F07EF9084305D0012004E02046394658
:10073000BDE8F08D0020054346EAE0762C433743C0
:100740000A986305E40AA0EB08000022FD0A44EAC7
:1007500047540A3002D500200146E9E70105101987
:100760006941DDE9084500196941BDE8F04DA2E79E
:100770002DE9FE4F804681EA0300C00F0C46009031
:1007800021F0004123F00045B8EB0200A94105D259
:100790004046214690461C460B46024623F0004048
:1007A000104347D0270DC7F30A00C3F30A51029044
:1007B000401A019040286BDAC3F3130040F4801B09
:1007C0000098924620B10023D2EB030A63EB0B0B97
:1007D00001985946C0F14002504600F021F9064602
:1007E0000D4650465946019A00F039F910EB0800C1
:1007F0006141002487EA115284EAE7731A4340D02A
:10080000009A62B3019A012A4FEA075215DC001BD5
:1008100061EB02014FF0004202EA0752CDE90042CB
:10082000001C41F5801132462B46FFF753FF03B001
:10083000BDE8F08F40462146F9E7001B61EB02015D
:10084000001C41F5801300185B412018A2F5001729
:1008500047EB030140EAD570B6196D4111E06D0810
:100860004FEA360645EAC0754FEA0752001B61EBB6
:100870000201001C41F5801149084FEA30000019BF
:10088000514132462B4603B0BDE8F04FFFF713BF8E
:100890000098012240000023D0EB020263EBE073DA
:1008A000009821464FEAE074B8EB000061EB0401C8
:1008B000E9E783F000435BE781F0004158E72DE969
:1008C000F04D81EA030404F0004B21F0004514468A
:1008D0004FF0000A23F0004150EA050220D054EA0C
:1008E00001021DD0C5F30A570246C5F31303C1F335
:1008F0001300C1F30A5640F4801543F48013A7EBAC
:100900000608101BD64608F2FD3873EB050002D32B
:1009100008F1010801E092185B41B8F1000F03DA19
:1009200000200146BDE8F08D00204FF480110646FE
:1009300084460EE0171B73EB050705D3121B63EB10
:10094000050306434CEA010C49084FEA30009218AF
:100950005B4150EA0107EDD152EA030012D082EA6E
:10096000040083EA0501084305D0101BAB4106D201
:100970000122002306E000224FF0004302E06FF066
:10098000010253101AEB06004CEB085110EB0A0061
:1009900041EB0B01BDE8F04DFFF78DBEC1F30A52EC
:1009A000C1F3130140F2FF3341F480119A4202DA9D
:1009B00000200146704740F233439A42A2F233428C
:1009C00002DC524200F03BB800F02AB830B5041EF9
:1009D00071F1000404DB4FF00044404264EB01017C
:1009E000141E73F1000405DB1C464FF00043524215
:1009F00063EB0403994208BF904230BD064C074D9B
:100A000006E0E06840F0010394E8070098471034DE
:100A1000AC42F6D3FFF76EFB083600082836000814
:100A2000202A04DB203A00FA02F1002070479140AE
:100A3000C2F1200320FA03F3194390407047202AA3
:100A400004DB203A21FA02F00021704721FA02F378
:100A5000D040C2F120029140084319467047202A35
:100A600006DBCB17203A41FA02F043EAE07306E0D6
:100A700041FA02F3D040C2F12002914008431946E6
:100A800070470000004870477C35000810B50446E8
:100A9000FFF7F8FF0068005D00F0010010BD0000E6
:100AA0002DE9FF4F087881B09946FF2805D0491CF1
:100AB0002D2804D00024002308E000230BE00124AB
:100AC000F9E703EB830300EB4303491C0878FF2895
:100AD000F7D104B15B4200200090147801462D2C20
:100AE00001D02B2C04D1521C2D2C12D000240094A8
:100AF00000251678FF2E0ED00A24A0FB04C801FBA7
:100B00000481002700FB0711521C16EB0C00694101
:100B1000EFE70124EBE7994450EA01020ED00024EC
:100B2000AA4D2646DFF8A88200F0D3F982468B460C
:100B3000B9F1000009DAC9F100071BE001980021B2
:100B4000C0E9001105B0BDE8F08F074612E0F807D4
:100B500007D022462B4630464146FFF7D8FB0646D3
:100B6000884622462B4610461946FFF7D0FB04461E
:100B70000D467F10002FEAD1B9F1000F32464346EF
:100B80005046594602DAFFF79AFE01E0FFF7BFFB35
:100B9000009A0AB181F00041019AC2E90001D1E74F
:100BA0002DE9FF4F1F468DB0D7E901464FF0FF38C2
:100BB0002E2045464FF000090B90B9696D1C0E9828
:100BC0008847396A824688470028F6D1BAF1FF3F44
:100BD0000AD024F4D064002E11DDBAF12B0F08D016
:100BE000BAF12D0F0BD102E0404611B0ABE744F44F
:100BF0008064B9696D1C0E9888478246761E6946E6
:100C0000600501D52D2000E02B208DF8000001F1BA
:100C1000010B0DF1200809E0B9696D1C0E98884799
:100C200082460F9844F40074761E0560002E02DDA3
:100C3000BAF1300FF0D00B998A453ED144F08004D0
:100C400006E00F99681CA9F1010944F400740860DA
:100C5000B9696D1C761E0E98884782463028F0D000
:100C60002BE00B998A4505D1200603D444F080047B
:100C7000761E18E0504601F0F5FD08B30DF11301A2
:100C8000761E44F400748B4508D2AAF130000BF8AC
:100C9000010B200607D5A9F1010003E0200602D4CC
:100CA00009F101008146A00502D50F99681C086072
:100CB000B9696D1C0E9888478246002ED1DC53E03E
:100CC000002E51DDBAF1650F02D0BAF1450F4BD1BC
:100CD000A00549D5B9696D1C24F44074761E0E98A0
:100CE00088478246002E0CDD2B2804D0BAF12D0F48
:100CF00007D144F48074B9696D1C0E988847824608
:100D0000761EE00501D52D2100E02B2108F8011BFE
:100D1000CDF82C8021E00DF12901761E44F40074F9
:100D200088450CD2AAF1300010F0FF0088F80000CE
:100D300002D10B99884509D908F1010806E0E005C0
:100D400001D5244801E042F20F708146B9696D1C5B
:100D50000E98884782460F980560002E04DD5046A5
:100D600001F080FD0028D6D1F9690E988847FF2050
:100D70008BF8000088F800000020069007904B4692
:100D80006A4608A906A8FFF78BFEA00502D46FF0FB
:100D900001002AE714F0240F0AD0E00714D1DDE99E
:100DA00006123868031D3B600068C0E900120BE0C2
:100DB000DDE90601FFF749FB0146E00704D1386889
:100DC000021D3A600068016028460EE700002440DA
:100DD0000000F03FF1D8FFFF426842B1016811F80E
:100DE000013B23B1521EC0E9001218467047012191
:100DF000C160881E704742685AB1C368016843B930
:100E000083688B4205D0491E521CC0E900120020A5
:100E100070474FF0FF3070472DE9F05F8246007851
:100E2000002715468B460AF10104B946302801D047
:100E30009DB113E014F8010B0127782803D058283E
:100E400001D045B10AE00DB1102D07D100271025C2
:100E500014F8010B02E0082500E00A250026B04640
:100E60000EE005FB080005FB06F1012701EB10462B
:100E70001FFA80F8B6F5803F00D3B94614F8010B8D
:100E8000294600F018F80028EBDABBF1000F05D076
:100E90000FB1641E00E05446CBF80040B9F1000FDA
:100EA00006D001F00DFC02210160C81EBDE8F09FD4
:100EB00048EA0640FAE73A2800D2303820F020020B
:100EC000412A01D3A2F13700884201D34FF0FF300D
:100ED00070470EB540F2334202920022CDE9002263
:100EE0001346FFF7F7FB03B000BD00000948006898
:100EF00000F0020068B107484C30006806490880DD
:100F00000120064908700348006820F002000149EA
:100F100008607047002401405A0000205C00002057
:100F20000648806940F0040004498861044800686C
:100F3000044908430249086070470000001002405D
:100F40000010014000FF0F004148806940F400702C
:100F50003F4988610846C06840F40070C860084690
:100F6000C06820F40070C8600846406820F4404023
:100F700048600846406840F4404048603548006892
:100F8000354908403349086008460068086008464B
:100F9000006840F480700860081D006820F00200BE
:100FA000091D08600846006820F4602008600846B3
:100FB000006840F4602008600846006840F4801033
:100FC00008600846006820F4006008602148283066
:100FD000006820F470001F49283108600846006846
:100FE00008601C480C3000681C49084019490C3145
:100FF0000860084600681949C943084315490C317F
:1010000008601448001D006840F001001149091DE6
:1010100008600846006840F00800086000BF0D48FE
:10102000001D006800F008000028F8D10948001DE4
:10103000006840F004000749091D086000BF05482A
:10104000001D006800F004000028F8D1704700007F
:101050000010024004240140FFFFF000C00FE0FF39
:101060002DE9F047DFF8D090B9F80000FFF7C1F99B
:1010700005463249FFF70DF93149086000241AE0AE
:101080000A21002000F0E0FA2E4908800846008876
:10109000FFF7AFF98246FFF7C5F907464FF0663212
:1010A000294BFFF734F90546FFF7CFF9274941F8F7
:1010B0002400601CC4B2642CE2DB2448006824498C
:1010C00008602449086000240EE0204951F82400FB
:1010D00020490968FFF7E0F904D21C4850F82400C1
:1010E0001C490860601CC4B2642CEEDB00240EE0D6
:1010F000164951F8240016490968FFF7C3F904D2CC
:10110000124850F8240012490860601CC4B2642CD4
:10111000EEDB0F4801680F480068FFF782F80546CC
:10112000074801682846FFF782F80B49086008461F
:101130000068BDE8F087000002FC000800007A4467
:10114000100000201800002066664A3F08010020B9
:101150000C00002008000020040000202DE9F047CA
:10116000DFF8D090B9F80000FFF743F9054632499F
:10117000FFF78FF83149086000241AE00A210120A6
:1011800000F062FA2E49088008460088FFF731F91E
:101190008246FFF747F907464FF06632294BFFF7C3
:1011A000B6F80546FFF751F9274941F82400601CBD
:1011B000C4B2642CE2DB2448006824490860244956
:1011C000086000240EE0204951F8240020490968F5
:1011D000FFF762F904D21C4850F824001C4908604B
:1011E000601CC4B2642CEEDB00240EE0164951F8FA
:1011F000240016490968FFF745F904D2124850F84F
:10120000240012490860601CC4B2642CEEDB0F4855
:1012100001680F480068FFF704F8054607480168B1
:101220002846FFF704F80B49086008460068BDE847
:10123000F087000004FC00080000C84314000020F0
:101240001800002066664A3F080100200C000020BC
:1012500008000020040000202DE9F047B2B0064647
:101260008A460025A846A9460027C8216846FEF7F9
:1012700060FF344600E0641C20787B28FBD1641CAE
:101280003EE031E02078222801D1641C1FE017B134
:10129000012F1BD10CE0227805EB8500694601EB9C
:1012A00080034046411C01F0FF081A54641C0DE005
:1012B000237805EB8500694601EB80000A3049463A
:1012C0004A1C02F0FF094354641C00BF00BF207891
:1012D0003A2809D12046411C08460978222902D122
:1012E000A41C791CCFB200BF20782C2802D0207813
:1012F0007D28C7D1641C681CC5B20027B846B94612
:1013000020780028BDD10A21684600F093FB32B056
:10131000BDE8F087F0B502460C46002100231046D8
:1013200015E0002111E009E0057801EB81060A4F84
:1013300007EB4606F5545D1CEBB2401C05782C2DDE
:10134000F2D1401C00234D1CE9B20929EBDB0578E2
:10135000202DE6D1F0BD00005801002070470000AC
:1013600010B50548006800F00F04034844602046AB
:10137000FFF7F4FF10BD00000000024070470000BE
:1013800010B505480068C0F3031420010249486005
:101390002046FFF7F3FF10BD000002407047000039
:1013A00010B505480068C0F30324200202494860D4
:1013B0002046FFF7F3FF10BD000002407047000019
:1013C00010B505480068C0F30334200302494860A3
:1013D0002046FFF7F3FF10BD0000024070470000F9
:1013E00010B505480068C0F3034420040249486072
:1013F0002046FFF7F3FF10BD0000024070470000D9
:1014000010B505480068C0F3035420050249486040
:101410002046FFF7F3FF10BD0000024070470000B8
:1014200010B505480068C0F303642006024948600F
:101430002046FFF7F3FF10BD000002402DE9F04702
:1014400005460E4617469846DDE9089A002440F204
:10145000B27085423CDB40F63300854238DC40F216
:10146000B2730AE0184600F083F910B11A48044438
:1014700001E01A480444581C83B2AB42F2DB00235B
:1014800010E01748C05C40F2A321484304EBC014AD
:10149000284600F06DF918B1012B01D11148044420
:1014A000581C83B2701E9842EBDC002303E00D4809
:1014B0000444581C83B2BB42F9DBC8EB4810C0EBB4
:1014C000082004EB0014C9EB091004EB8004544419
:1014D0002046BDE8F08700000085E2018033E1018D
:1014E000BC3400088051010010B504461348C068A0
:1014F00000F001001249087008460078E0B90F4872
:10150000006940F002000D49086108464461006925
:1015100040F0400008614FF4302000F053F80849D3
:10152000087008460078012806D00448006941F296
:10153000F46108400149086110BD0000002002402C
:101540001A0000200146002005E0002000E0401CB9
:10155000B0F5FA5FFBD30A1EA1F1010399B2F4D1F1
:101560007047000010B50A20FFF7ECFF04A001F05F
:1015700097F80120044908700449086010BD000074
:1015800065787469300000005000002014040140A8
:1015900004200B49C96801F0010109B101200EE0E6
:1015A0000749C96801F0040109B1022007E00449B4
:1015B000C96801F0100109B1032000E00420704760
:1015C0000020024000B502460423FFF7E1FF034676
:1015D00003E0FFF7DDFF0346521E012B01D1002A75
:1015E000F7D102B90523184600BD0000024803499F
:1015F0004860034848607047230167450020024067
:10160000AB89EFCD01460F48006820F01F000D4A5E
:10161000106010460068084310600A482C380068C3
:1016200040F48000074A2C3A106000BF0548343867
:10163000006800F002000028F8D002481830006866
:1016400080B270473424014070B506460B46002432
:10165000002505E03046FFF7D5FF0444681CC5B2FD
:101660009D42F7DBB4FBF3F080B270BD30B50246AB
:101670000B46002016E0147880EA042000210EE0DA
:1016800000F400442CB141F2210484EA4004A0B2E9
:1016900003E04FF6FF7404EA40004C1CE1B2082955
:1016A000EEDB521C1C1EA3F10105ABB2E3D130BD31
:1016B0004AF6AA2001490860704700000030004047
:1016C00045F25552054B1A601A46506091604AF631
:1016D000AA221A604CF6CC421A60704700300040D3
:1016E0000848806940F0080006498861064800689B
:1016F0000020054908600846006840F003000860C3
:101700007047000000100240040C014017480068B8
:1017100040F001001549086000BF1448006800F05F
:1017200002000028F9D01148406810494860084676
:10173000406840F4E01048600846006840F080705F
:10174000086000BF0948006800F000700028F9D068
:101750000648406840F002000449486000BF034862
:10176000406800F008000028F9D0704700100240DF
:101770000146CA1701EB92729210A1EB820292B954
:10178000642091FBF0F200FB121050B94FF4C870C6
:1017900091FBF0F200FB121008B901207047002005
:1017A000FCE70120FAE70020F8E700000C48806918
:1017B00040F008000A4988610A48006820F4706017
:1017C000084908600846006840F400600860054861
:1017D0000830006840F480600249083108607047B2
:1017E00000100240040C01406E280AD10C4909681F
:1017F00021F001210A4A11601146096841F0807107
:10180000116066280AD10649096821F00121044ABD
:1018100011601146096841F4807111607047000041
:10182000100C01401D48806940F6040108431B4923
:1018300088611B48006820F4704019490860084618
:10184000006840F4104008601648008840F001002D
:101850001449088013481C30008840F4C0401149E6
:101860001C31088040F29F500E49283108806420C6
:10187000091D08800B482030008840F44050094979
:10188000203108806420074940310880081D008805
:1018900040F40040091D088070470000001002401D
:1018A00004080140002C01402DE9F05F05460E467A
:1018B0003001FEF79EFD8146394905FB01F0FEF738
:1018C00098FD82464946FEF7E4FC07463846FEF797
:1018D00095FD84B22046FEF78CFD83463946FEF71F
:1018E000A3FC82464FF08341FEF7A1FC8146FEF740
:1018F00085FD80464FF6FF7000EA041404EB0800F3
:1019000084B22848806940F004002649886126484E
:10191000006820F47020244908600846006840F4FC
:10192000403008600846006820F47F4008600846A0
:10193000006840F40B4008601A48C06940F4003069
:101940001849C8610846006940F40030086108463B
:10195000006920F40030086114480480001D0088EC
:1019600042F20C0108431149091D0880084600880D
:1019700040F4807008800846008840F0200008800D
:1019800009481030006820F0101007491031086035
:101990000846006840F480100860BDE8F09F000031
:1019A00040420F000010024000080140084400407F
:1019B0000F48008800F0010090B10E48006800F464
:1019C000807028B90C480068401C0B49086002E090
:1019D00000200949086009480088401C0749088020
:1019E0000348008840F6FA710840014908807047B2
:1019F000042800400C0C01402C000020280000208E
:101A00000948006840F4A06007490860074800786A
:101A1000064908700648006840F008004FF0E021D1
:101A2000C1F80001704700000CED00E01DE400E08B
:101A300000E100E02DE9F04F87B004460027B846EA
:101A40000026002500200690FE480590DFF8F8A348
:101A500000BF74E207EB870104EB8100FBA1FEF7F6
:101A600073FB00287DD107EB870104EB810101F1B5
:101A70000A00FEF777FB81B20598008881420AD000
:101A800007EB870104EB810101F10A00FEF76AFB15
:101A900080B20028E6D14FF000084AE208EB880146
:101AA00004EB8100EAA1FEF74FFB00287ED108EB92
:101AB000880104EB810101F10A00E7A1FEF744FB74
:101AC000002874D10025E6E005EB850104EB8100D8
:101AD000E3A1FEF739FB00286AD105EB850104EB91
:101AE000810101F10A00DFA1FEF72EFB48B90A20AF
:101AF000DD4908806E20FFF777FEDB48008801F0A3
:101B00005BFC05EB850104EB810101F10A00D7A123
:101B1000FEF71AFB48B91420D34908806E20FFF75E
:101B200063FED148008801F047FC05EB850104EB1A
:101B3000810101F10A00CEA1FEF706FB48B91E2083
:101B4000C94908806E20FFF74FFEC748008801F0A2
:101B500033FC05EB850104EB810101F10A00C5A10D
:101B600000E0EAE1FEF7F0FA48B92820BE49088013
:101B70006E20FFF739FEBC48008801F01DFC05EB24
:101B8000850104EB810101F10A00BBA1FEF7DCFA3B
:101B900048B93220B44908806E20FFF725FEB248CC
:101BA000008801F009FC05EB850102E0EFE075E03B
:101BB0006FE004EB810101F10A00B0A1FEF7C4FA65
:101BC00048B93C20A84908806E20FFF70DFEA648C2
:101BD000008801F0F1FB05EB850104EB8100A8A171
:101BE000FEF7B2FA48B946209F4908806E20FFF7F9
:101BF000FBFD9D48008801F0DFFB05EB850104EB50
:101C0000810101F10A009FA1FEF79EFA48B9502018
:101C1000954908806E20FFF7E7FD9348008801F0A2
:101C2000CBFB05EB850104EB810101F10A0096A1D4
:101C3000FEF78AFA48B95A208B4908806E20FFF7D0
:101C4000D3FD8948008801F0B7FB05EB850104EB63
:101C5000810101F10A008DA1FEF776FA48B96420EE
:101C6000814908806E20FFF7BFFD7F48008801F0A2
:101C7000A3FB05EB850104EB810101F10A0084A1BE
:101C8000FEF762FA28B90020774908806620FFF73E
:101C9000ABFD681CC5B20A2DFFF616AF08EB880134
:101CA00004EB810101F10A007AA1FEF74DFA002848
:101CB0006DD10026BEE006EB860104EB810076A123
:101CC000FEF742FA48B906EB860104EB810101F107
:101CD0000A00FEF747FA7249088006EB860104EB1A
:101CE000810070A1FEF730FA48B906EB860104EBDB
:101CF000810101F10A00FEF735FA6949488006EBD7
:101D0000860104EB810068A1FEF71EFAF0BB0020FB
:101D10000290039004908346019006EB860004EB4A
:101D2000800000F10A091AE099F800003A2807D16A
:101D30004FF0000B0198401CC0B2019009F101095D
:101D400099F80010019800EB800002AA104400F8F6
:101D50000B1009F101090BF1010000F0FF0B99F8DC
:101D600000000028E0D152480078401C504908701B
:101D700002A8FEF7F7F94A494D4A127821F81200F5
:101D80004B480078401C4A49087001E00BE0CCE069
:101D90000DF10D00FEF7E6F981B24148444A127890
:101DA00020F8121000BF06EB860104EB81002CA185
:101DB000FEF7CAF988B93E480078401C3C490870D3
:101DC00006EB860104EB810101F10A00FEF7CAF976
:101DD0003349374A127821F8120006EB860104EBEA
:101DE000810034A1FEF7B0F910BB06EB860104EBCD
:101DF000810101F10A0031A1FEF7A6F908B901201D
:101E0000069006EB860104EB810101F10A002DA189
:101E1000FEF79AF960B9012025490870002705E00E
:101E200000201F4921F81700781CC7B21E2FF7DBCE
:101E3000701CC6B20A2EFFF63EAF0698012874D178
:101E4000174843E000FC000800F80008494400007F
:101E500054595045000000004354524C000000000B
:101E600050574D0031300000220000203230000079
:101E700033300000343000003530000036300000D0
:101E80003730000038300000393000003130300089
:101E900030000000534554004C494E4500000000FE
:101EA000680000204E554D0054494D45000000008B
:101EB00027000020464C41470000000053544F507B
:101EC000000000005354415254000000408800EBD1
:101ED0004000401C1D490978884226D100201B493A
:101EE00008701B4800F0F6F90EE01A49174A1278FC
:101EF00031F81200514600F04DFA0AF1020A134877
:101F00000078401C11490870104800781D28ECD159
:101F1000002705E000200F4921F81700781CC7B200
:101F20001E2FF7DB01200949087008F1010000F0BD
:101F3000FF08B8F10A0FFFF6B1AD781CC7B20A2F3F
:101F4000FFF688AD07B0BDE8F08F00002700002045
:101F500000F8000868000020F0B503460C4615465E
:101F6000642093FBF0F0C6B2642093FBF0F700FB13
:101F70001730C1B2132E02DD01F16400C1B2084670
:101F8000CF1701EB977701EBA707BAB2072092FBB7
:101F9000F0F700FB172082B25719601EDFF82CC043
:101FA0001CF80000384482B2CF1701EB9777BF10BE
:101FB000A1EB87071FB9032C01DA501E82B207205C
:101FC00092FBF0F700FB1720C0B2F0BDEC34000824
:101FD0002DE9F04140F2B2780025364806883604F3
:101FE000001D008806443448B6FBF0F40FE01FFAE9
:101FF00088F0FFF7BDFB30B1B4F5B77F02D3A4F58D
:10200000B77402E006E0A4F26D1408F10108B4F51B
:10201000B67FECD800BF2949A1F8048015E01FFA6B
:1020200088F0FFF7A5FB30B1012D04D11D2C01D3A1
:102030001D3C09E00BE02248405DA04203D8204847
:10204000405D241A00E002E06D1C1C2CE7D200BFAA
:102050001A49CC71681C88711748B6FBF0F100FB77
:1020600011674FF46160B7FBF0F0144908704FF44A
:102070006160B7FBF0F100FB11703C21B0FBF1F0A7
:102080000E4948704FF46160B7FBF0F100FB11702E
:102090003C21B0FBF1F201FB1200084988700B46AD
:1020A000DA7999799888FFF757FF04490872BDE8F3
:1020B000F08100001828004080510100BC01002080
:1020C000BC34000810B54F4800884F4908600846E6
:1020D0000088000408604B48001D00880968084417
:1020E0004949086008460068002872D14748C0691D
:1020F00040F080504549C8610846C06940F0006022
:10210000C8614348006840F48070414908603F4816
:10211000006A40F001003D49086200BF3B48006A88
:1021200000F002000028F9D03AA000F0B9FA3748D0
:10213000006A40F48070354908620846006A40F43D
:102140000040086200BF2F481438008800F02000CB
:102150000028F8D000BF2B481438008800F0080091
:102160000028F8D027481838008840F00100254999
:102170001839088000BF23481438008800F0200078
:102180000028F8D01F481438008840F010001D497E
:10219000143908800020091D088047F6FF70091DCA
:1021A000088018481438008820F0100015491439A8
:1021B000088000BF13481438008800F02000002871
:1021C000F8D01348006820F480701149086018E0C6
:1021D000FFE700BF0B481438008800F00800002813
:1021E000F8D008481838008840F00100054918392F
:1021F000088000BF03481438008800F02000002841
:10220000F8D010BD182800404C00002000100240FB
:1022100000700040696E6974000000002DE9FC4701
:1022200005460E4617469846DDE90A9A43463A4661
:1022300031462846CDE9009AFFF700F904462146C9
:102240001AA000F02DFA2048C06940F080501E49C5
:10225000C8610846C06940F00060C8611B4800685A
:1022600040F48070194908601948008840F0100057
:1022700017490880164918310C80200C091F088066
:102280001348008820F010001149088000BF104852
:10229000008800F020000028F9D00C48006820F4E5
:1022A00080700A490860BDE8FC8700000A52746328
:1022B0002054494D45205365742020536563203DCB
:1022C0002025780A00000000001002400070004045
:1022D0000428004070B505460024FFF787F945F64D
:1022E000FF7000F041F80446C4B90E48006940F0A0
:1022F00002000C49086108464561006940F0400051
:10230000086145F6FF7000F02FF80446012C05D057
:102310000448006920F002000249086100F01AF840
:10232000204670BD002002400948C16801F001004C
:1023300008B10120704701F0040008B10220F9E75C
:1023400001F0100008B10320F4E70020F2E70000DC
:10235000002002400348006940F080000149086104
:10236000704700000020024070B5044600BFFFF730
:10237000DBFF0546012D00D006E00120FFF7E2F863
:10238000601E84B2002CF2D100BF04B9FF2528469C
:1023900070BD000070B505460E46FFF727F9FF2017
:1023A000FFF7E2FF044694B90B48006940F00100D2
:1023B000094908613580FF20FFF7D6FF0446012C4C
:1023C00005D00548006920F0010003490861FFF7C6
:1023D000C1FF204670BD00000020024010B500F093
:1023E00001F810BD0CB50020019000903348006842
:1023F00040F480303149086000BF3048006800F484
:10240000003000900198401C0190009818B9019884
:10241000B0F5A06FF1D12948006800F4003010B188
:102420000120009001E0002000900098012843D195
:102430002348006840F01000214908600846006801
:1024400020F0030008600846006840F002000860C1
:102450001A4840681949486008464068486008467C
:10246000406840F4806048600846406820F47C1072
:1024700048600846406840F4E81048600846006834
:1024800040F08070086000BF0C48006800F00070E9
:102490000028F9D00948406820F003000749486047
:1024A0000846406840F00200486000BF03484068AA
:1024B00000F00C000828F9D10CBD0000001002400B
:1024C0000020024010B51348006840F00100114997
:1024D000086008464068104908400E4948600846B0
:1024E00000680E4908400B4908600846006820F45F
:1024F000802008600846406820F4FE0048604FF4E1
:102500001F008860FFF76AFF4FF000600449086011
:1025100010BD0000001002400000FFF8FFFFF6FEB3
:1025200008ED00E00E48008800F02000B0B10C4833
:10253000001D00880B490870084600787D2802D1EC
:10254000012009490870074800780849084A12889C
:10255000885407480088401C0549088070470000DF
:10256000003801400200002003000020A4000020E9
:10257000000000200C4800680C4908400A49086027
:10258000084600680A490843074908600948007876
:10259000084908700848006840F020004FF0E0212A
:1025A000C1F80401704700000CED00E0FFF8FA05E7
:1025B0000004FA051DE400E004E100E00B4909888D
:1025C00001F0200181B10949091D0988C8B20849F3
:1025D0000978072908DA0749054A12788854044916
:1025E0000978491C024A11707047000000440040FD
:1025F00058000020510000200B4800680B4908409B
:102600000949086008460068094908430649086006
:102610000848006840F040004FF0E021C1F8040194
:1026200030210548017070470CED00E0FFF8FA0515
:102630000004FA0504E100E025E400E0002001497F
:1026400008607047082C004010B502460B461C4637
:10265000FEF7CCFF1048C06800F001000F49087079
:1026600008460078B8B90C48006940F001000A49F2
:10267000086122800846C06800F001000749087020
:1026800008460078012806D00348006941F2F66147
:1026900008400149086110BD002002401A000020D6
:1026A0000FB4054B10B503A9044A029800F0E2F8F4
:1026B00010BC5DF814FB0000CD2F00086000002066
:1026C000004870476400002001480068704700001F
:1026D0006400002002E008C8121F08C1002AFAD1D5
:1026E00070477047002001E001C1121F002AFBD192
:1026F0007047000001490860704700006400002036
:102700002DE9FF5FDDE90220010DDDF838B002435D
:1027100018D044F61050A1F2FF3141430D140F9828
:10272000012820D0A5EB0B00401C5FEA000A4FF007
:102730000004474EDFF81C91A046504616D5CAF15A
:10274000000728E00F98012443A2012808D00021A7
:1027500000980F9BC0E90021C0E90243BDE8FF9F3C
:102760006FEA0B01F4E7CBF10000DEE7074612E069
:10277000F80707D02246334640464946FDF7C7FDD5
:10278000804689462246334610461946FDF7BFFD6E
:1027900004460E467F10002FEAD1DDE90201BAF1AE
:1027A000000F42464B4602DAFDF7B1FD01E0FEF7AD
:1027B00086F804460E460022284BFEF707F903D898
:1027C0004FF0FF30014607E00022254B20463146FE
:1027D000FDF7CEFFFEF7E2F8102409E0002C0ADB3B
:1027E0000A220023FDF778FE019B30321A55641E41
:1027F00050EA0102F2D1641C019AC4F1110314449D
:102800000F9A012A03D0012208430DD10AE00843A0
:1028100004D000204FF0110B0F9080E7A3EB0B05C5
:102820006D1E0DE05B4504DD4FF0000205F1010572
:1028300004E003DA4FF00002A5F10105002AECD014
:1028400000980F99C0E90231C0E9004586E7000011
:10285000000024400000F03F300000000000F04382
:102860000000E03F30380A2801D2012070470020E4
:10287000704700002DE9FF4F95B09B4689460646FC
:1028800000250FE2252877D100242746F84A0121A8
:10289000059400E0044316F8013F203B01FA03F0E1
:1028A0001042F7D130782A2811D06FF02F033078FA
:1028B000A0F13002092A16D8059A44F0020402EB6E
:1028C000820203EB42021044761C0590EFE759F8B0
:1028D000042B0592002A03DA504244F40054059078
:1028E00044F00204761C30782E2816D116F8010F19
:1028F00044F004042A280DD06FF02F023078A0F1A4
:102900003003092B09D807EB870302EB4303C718F1
:10291000761CF3E759F8047B761C30786C280FD0CE
:1029200006DC4C2817D068280DD06A2814D104E0A2
:10293000742810D07A280FD10DE044F400140AE076
:1029400044F4801401E044F440147278824202D1CD
:1029500004F58014761C761C307866280BD013DCC6
:10296000582877D009DC002875D04528F6D04628AD
:10297000F4D047281AD19DE118E0632835D06428A7
:1029800079D0652812D195E1702873D008DC6728CA
:10299000F1D069286FD06E280DD06F2806D1B5E030
:1029A00073282CD0752875D0782874D05A4617997A
:1029B00090476D1C75E1C4F30250022809D003282A
:1029C0000DD0D9F8001004280DD00D6009F10409CC
:1029D00067E1D9F80010EA17C1E90052F6E7D9F823
:1029E00000100D80F2E70D70F0E719F8041B8DF868
:1029F000001000208DF80100EA46012003E059F89C
:102A000004AB4FF0FF3061074FF0000102D40DE03E
:102A100008F101018846B9420FDA8045F8DB1AF85F
:102A200008100029F4D108E008F10101884681422C
:102A3000FADB1AF808100029F6D105985B46A0EBDE
:102A4000080721463846179A00F094FA284400EB0C
:102A5000080507E04DE029E10DE01AF8010B5A46A0
:102A600017999047B8F10108F7D25B4621463846DE
:102A7000179A13E142E00A220092C4F302524FF087
:102A8000000A022A08D059F804CB032A4FEAEC7155
:102A90000AD00DE029E02AE009F1070121F0070240
:102AA000F2E802C1914609E00FFA8CFC4FEAEC71A2
:102AB000042A03D14FFA8CFC4FEAEC71002907DAA3
:102AC0000A460021DCF1000C61EB02012D2202E03C
:102AD000220504D52B228DF80420012203E0E20711
:102AE00001D02022F7E7904659E00A2102E01022A7
:102AF0000DE010214FF0000A00910BE010224FF082
:102B0000000A44F004040827009203E008224FF072
:102B1000000A0092C4F30252022A05D059F804CBED
:102B20000021032A08D009E009F1070121F007027A
:102B3000F2E802C1914605E01FFA8CFC042A01D19B
:102B40000CF0FF0C4FF00008220728D5702806D0A3
:102B5000009B83F0100353EA0A0305D00EE04022E5
:102B60008DF80420012208E05CEA010206D0302240
:102B70008DF804208DF8050002229046009B83F01A
:102B8000080353EA0A030AD15CEA010201D1620791
:102B900005D530228DF804204FF001087F1E5828FB
:102BA00004D034A003900EA802900DE036A0F9E7FF
:102BB00053466046009AFDF78FFC84460398825C7A
:102BC0000298401E029002705CEA0100F0D1029867
:102BD00006A9081A00F1200A600702D524F48034FF
:102BE00000E00127574502DDA7EB0A0000E00020C6
:102BF00000EB0A01009005984144401A0590E0035B
:102C000006D45B462146179A059800F0B3F90544AF
:102C1000002706E001A85A46C05D179990476D1C31
:102C20007F1C4745F6DBE0030CD55B462146179A2F
:102C3000059800F09FF9054404E030205A461799A2
:102C400090476D1C0099481E00900029F5DC08E0B3
:102C5000029802995A460078491C029117999047A8
:102C60006D1CBAF10001AAF1010AF1DC65E1000076
:102C70000928010030313233343536373839616252
:102C80006364656600000000303132333435363716
:102C900038394142434445460000000000F058F9ED
:102CA0000544761C307800287FF4ECAD19B0284636
:102CB000BDE8F08F620700D4062709F1070222F071
:102CC000070CFCE80223E14603F000485FEA080C29
:102CD00002D00FF2702C0DE05FEA045C02D50FF217
:102CE000682C07E05FEAC47C02D00FF2602C01E0A0
:102CF000AFF2700C4FF0FF3823F00043CDF850C016
:102D000065280CD006DC452809D046281DD0472868
:102D10003DD13DE0662818D067287ED138E00021FB
:102D2000112F01DB112000E0781CCDE9000106A97C
:102D30000EA8FFF7E5FCDDE90F010E9A03910021D3
:102D4000009207F1010A04914DE04FF00040009716
:102D5000CDE9011006A90EA8FFF7D2FCDDE90F02AC
:102D600003920E9B11990022DDF80CA000930492AF
:102D700011B9791C00EB010AB7EB0A0004D4C0F1C9
:102D8000FF3007F1010A0490AAEB0700019044E02C
:102D9000012F00DA01270021112F01DD112000E0B1
:102DA0003846CDE9000106A90EA8FFF7A9FCDDE928
:102DB0000F010E9A0391002104910092BA46210757
:102DC0000CD40399514500DA8A46BAF1010F05DDAA
:102DD000009AAAF10101515C302908D0B84202DA08
:102DE00010F1040F06DA0121CDE9011015E0AAF176
:102DF0000101E9E7002805DC049901440491AAEBEC
:102E0000000102E0411C514500DD8A460499401A48
:102E1000401C01904FF000400290200704D401981C
:102E2000504501DBCDF8048000208DF84F0002985A
:102E30000DF14F07B0F1004F25D02B200E900298D6
:102E40004FF0020800280CDA404202902D200E902C
:102E500007E00A210298FDF729FB3031029007F8BC
:102E6000011DB8F10001A8F10108F2DC0298002868
:102E7000EFD1791E0E980870307800F0200040F0F5
:102E8000450007F8020D12A8C01B00F107081498AE
:102E9000007800B1012000EB0A01019801EBE0711C
:102EA00005984144401A401E0590E00306D45B4655
:102EB0002146179A059800F05DF8054414980078AB
:102EC00018B15A46179990476D1CE00324D55B460C
:102ED0002146179A059800F04DF805441CE0049827
:102EE000002807DBDDE90301884203DD0098405C30
:102EF000179901E0179930205A469047049805F138
:102F00000105401C04900198401E019004D12E2020
:102F10005A46179990476D1CBAF10001AAF1010AAF
:102F2000DDDC05E017F8010B5A46179990476D1C38
:102F3000B8F10001A8F10108F4DC5B462146179ABC
:102F40000598ABE62D0000002B00000020000000DB
:102F50002DE9F041044600251E461746880404D496
:102F600005E039462020B0476D1C641EF9D528467F
:102F7000BDE8F0812DE9F041044600251E4690464B
:102F8000C80301D5302700E02027880404D505E0D8
:102F900041463846B0476D1C641EF9D52846BDE849
:102FA000F08130B583B00446FFF78EFB0546002064
:102FB000CDE90000024621466846FDF7DAFA2846C8
:102FC000FFF798FBDDE9000103B030BD00BF054A03
:102FD000128802F04002002AF9D0C2B2014B1B1D38
:102FE0001A8070470038014092B0D0480E90D04807
:102FF0000F9000F10208051DFEF788FB4FF41651F3
:10300000482000F0F3F9FFF7B5FACAA0FFF748FB34
:10301000FDF786FFFDF798FFFEF762FBFEF702FC67
:103020006620FEF7E1FB0020C3490880FEF7DEFAC8
:10303000C2480088C2490860084600880004086049
:10304000BE48001D008809680844BD49086008465C
:103050000068B8B100BFB9481438008800F0080013
:103060000028F8D0B5481838008840F00100B3496E
:103070001839088000BFB1481438008800F02000DB
:103080000028F8D0FEF7BCFCFEF790FB4FF4166169
:103090004820FEF709FCFFF7AFFA4FF47A710420DD
:1030A000FEF70EFB41E1FEF703FBFEF791FFB8F8D8
:1030B00000000A2830DA00242AE0A248007804EB55
:1030C000440135F81110884220D19E48417804EB24
:1030D0004402A81C30F81200814217D101209949FE
:1030E000887098B104EB4401281D30F8110018B91C
:1030F0006620FEF779FB09E06E20FEF775FB04EB16
:103100004402291D31F8120000F056F9601CC4B2C7
:10311000B8F80000A042D0DC8B480088142859D1B0
:10312000FEF71CF81090FDF79BFF119007218748D0
:10313000FEF79CFAC0B20D900D98A0B9834890F8A4
:1031400000904FF6FF7000EA0929804890F801903E
:1031500090F802A04FF6FF7000EA0A2A7B4890F828
:1031600003A000790C901198FDF75CF906460F4614
:103170001098FDF757F9CDE90A016F480088CDE9AD
:103180000209CDE900670E98018871A0DDE90A23E4
:10319000FFF786FA4FF4FA70FEF7D4F97B4801681E
:1031A0000C98CDE900010F9803880E9801885246CB
:1031B0007748FFF775FA002063490880002404E08F
:1031C000002062490855601CC4B2072CF8DB0020BF
:1031D0007049087070480078A8B17048017870484C
:1031E000FEF73AF8002604E000206D498855701C6F
:1031F000C6B26A4800888642F6DB0020674908802C
:103200006549087000BF6748006800F480600028C6
:103210007DD1624801786248FEF77CF86248FCF78D
:10322000A1FF1FFA80FB60480A30FFF7BAFECDE924
:103230000001FDF70AF90A905B481430FFF7B1FE70
:10324000CDE90001FDF701F90B9057481E30FCF75E
:1032500089FF079054482830FCF784FF06905248B5
:103260003230FCF77FFF05904F483C30FCF77AFF87
:1032700004904D484630FCF775FF03904A485030A3
:10328000FCF770FF029049490B98FCF7D0FF0190C2
:10329000FDF7B4F880B2099045490A98FCF7C7FFDA
:1032A0000190FDF7ABF880B20890204E3046FEF753
:1032B0001BF958463146FFF7C7F9B11C0998FFF7CB
:1032C000C3F9311D0898FFF7BFF9318839A0FFF71E
:1032D000E7F9FEF7F7FEFEF793FB0298C0B20399F9
:1032E000C9B2CDE90010DDF810C00CF0FF03DDF825
:1032F00014C00CF0FF02DDF818C00CF0FF01DDF87F
:103300001CC01FFA8CF0FEF789FF002705E00CE0D7
:1033100000202349C855781CC7B22048008887423E
:10332000F6DB00201D49088000BFBCE600FC000859
:1033300000F80008474F0000220000201828004035
:103340004C000020BC01002028000020510000207B
:103350007B224944223A222564222C2255223A22F9
:10336000252E3466222C2249223A22252E3466222A
:103370002C2250574D223A222564222C224C4541C2
:103380004B5F4931223A222564227D002C00002027
:1033900080350008580000200300002000000020B5
:1033A000A4000020080C01405801002000007A44CD
:1033B0000000C843256400000B49098821F400413E
:1033C000094A1180111F088007493039098841F0E6
:1033D0000101054A303A11800349098841F400414E
:1033E000014A118070470000442C01402DE9F05F34
:1033F00005460E463001FCF7FCFF81462B4905FBD4
:1034000001F0FCF7F6FF82464946FCF742FF07460B
:103410003846FCF7F3FF84B22046FCF7EAFF834608
:103420003946FCF701FF82464FF08341FCF7FFFE6F
:103430008146FCF7E3FF80464FF6FF7000EA041474
:1034400004EB080084B21A48806940F0040018496F
:1034500088610846806940F48040886115480068AA
:1034600020F47F60134908600846006840F40B6050
:1034700008600F48C06840F480400D49C8600846A5
:10348000C06820F48040C8600B480480001D00889C
:1034900042F20C0108430849091D088008460088CB
:1034A00040F020000880BDE8F09F000040420F007F
:1034B0000010024004080140083801401F1C1F1E74
:1034C0001F1E1F1F1E1F1E1F4A616E4665624D6133
:1034D000724170724D61794A756E4A756C417567BB
:1034E0005365704F63744E6F764465630003030643
:1034F00001040602050003050040404040404040F2
:1035000040404141414141404040404040404040B6
:10351000404040404040404040050202020202025A
:1035200002020202020202020220202020202020A9
:1035300020202002020202020202909090909090BD
:10354000101010101010101010101010101010107B
:1035500010101010020202020202888888888888EF
:1035600008080808080808080808080808080808DB
:10357000080808080202020240000000F9340008AE
:103580007B224944223A222564222C224C45414B7D
:103590005F4932223A222564222C224C494E452290
:1035A0003A222564222C22574554223A22256422AD
:1035B0002C224F50454E5F54494D45223A222564F6
:1035C000227D000046726964617900004D6F6E646F
:1035D0006179000053756E64617900005361747500
:1035E00072646179000000005765646E6573646100
:1035F00079000000547565736461790054687572D0
:103600007364617900000000283600080000002083
:1036100068000000D42600089036000868000020EA
:1036200060050000E4260008000000000000000023
:10363000000000000000000000000000000000008A
:103640000000000000000000000000000000000179
:103650000000000000000000D4350008CC35000850
:10366000F4350008E8350008FC350008C4350008CA
:10367000DC35000800000000000000000000000031
:10368000000000000000000000000000000000003A
:0400000508000101ED
:00000001FF
