:020000040800F2
:10000000584C00200D0100081501000817010008D8
:10001000190100081B0100081D0100080000000074
:100020000000000000000000000000001F010008A8
:10003000210100080000000023010008250100083C
:1000400027010008270100082701000827010008F0
:1000500027010008270100082701000827010008E0
:10006000270100082701000827010008E90300080C
:10007000090400082904000849040008690400086C
:1000800089040008A9040008B1030008270100083A
:1000900027010008270100082701000827010008A0
:1000A0002701000827010008270100082701000890
:1000B00027010008E50900082701000827010008BA
:1000C0002701000827010008270100082701000870
:1000D00027010008990A0008190B000827010008E9
:1000E000270100082701000827010008DFF80CD0CD
:1000F00000F04CF900480047D50D0008584C00208E
:1001000030BF72B662B680F30888704706488047F1
:1001100006480047FEE7FEE7FEE7FEE7FEE7FEE7EC
:10012000FEE7FEE7FEE7FEE785090008ED000008B0
:10013000F0B480EA0102D40F4200B2EB410F02D2C8
:100140000246084611464A0042D0C30DDDB2C1F353
:10015000C752AD1A202D35DAC1F3160141F4000261
:1001600004B15242C5F1200602FA06F12A411044B8
:10017000B3EBD05F23D0C4B1012DA0EBC35009DC99
:10018000F0BC4FF0004202EAC352DBB200F50000BF
:1001900000F0CEB8400000F1807000EBC350A0F139
:1001A000807040EAD170490009E0490841EAC07115
:1001B000A0EBC35000F50000400800EBC350F0BCBA
:1001C00000F0ADB86142012202EB4101001BF6E7ED
:1001D000F0BC704781F00041AAE780F00040A7E73B
:1001E00080EA010210B502F00043400022D04A002C
:1001F0001FD0010E01EB1261C0F35600C2F356028C
:1002000040F4000042F40002A0FB022000047F3909
:10021000140400D0401C50EA124001D44000491E92
:10022000C2B20C0604EBD010401C4008802A02D059
:1002300003E0002010BD20F00100002900DA0020BA
:10024000184310BD30B480EA010202F0004530F0DE
:10025000004221F0004013D090B1C30DD40DC2F381
:100260001601C0F31600E41A41F4000140F4000244
:100270007D34914201D3641C00E04900002C02DA75
:1002800030BC002070474FF400000023914201D39E
:10029000891A034340084FEA4101F7D151B1914215
:1002A00002D14FF0004105E002D24FF0010101E020
:1002B0006FF0010103EBC450284430BC00F02FB8AC
:1002C00096230022114600F033B820F00040C10D03
:1002D000C0F3160040F400007F2901DA00207047C7
:1002E000962903DCC1F19601C840704796398840D1
:1002F000704730B50B46014600202022012409E05A
:1003000021FA02F59D4205D303FA02F5491B04FACE
:1003100002F52844151EA2F10102F1DC30BD0029CE
:10032000A8BF7047401C490008BF20F0010070477B
:1003300010B4B0FA80FC00FA0CF050EA010404BFDB
:1003400010BC704749B1CCF1200421FA04F411FA31
:100350000CF118BF012121430843A3EB0C01CB1D75
:100360004FEA00614FEA102042BF002010BC7047E6
:1003700000EBC35010440029A4BF10BC7047401CC0
:10038000490008BF20F0010010BC7047064C074D23
:1003900006E0E06840F0010394E807009847103455
:1003A000AC42F6D3FFF7A6FE6C0F00088C0F0008D6
:1003B0000948006800F0020068B107484C30006846
:1003C000064908800120064908700348006820F0AB
:1003D0000200014908607047002401400C00002021
:1003E0000E0000207047000010B50548006800F0BE
:1003F0000F04034844602046FFF7F4FF10BD0000DF
:10040000000002407047000010B505480068C0F3C6
:1004100003142001024948602046FFF7F3FF10BD96
:10042000000002407047000010B505480068C0F3A6
:1004300003242002024948602046FFF7F3FF10BD65
:10044000000002407047000010B505480068C0F386
:1004500003342003024948602046FFF7F3FF10BD34
:10046000000002407047000010B505480068C0F366
:1004700003442004024948602046FFF7F3FF10BD03
:10048000000002407047000010B505480068C0F346
:1004900003542005024948602046FFF7F3FF10BDD2
:1004A000000002407047000010B505480068C0F326
:1004B00003642006024948602046FFF7F3FF10BDA1
:1004C000000002400146002005E0002000E0401C42
:1004D000B0F5FA5FFBD30A1EA1F1010399B2F4D182
:1004E0007047000030B5044604254FF4302000F07A
:1004F0006FF80546042D17D10C48006940F0020042
:100500000A49086108464461006940F040000861FA
:100510004FF4302000F05CF805460448006941F6CD
:10052000FD71084001490861284630BD00200240A5
:1005300004200B49C96801F0010109B101200EE056
:100540000749C96801F0040109B1022007E0044924
:10055000C96801F0100109B1032000E004207047D0
:10056000002002400348006940F080000149086112
:10057000704700000020024070B504460D46042676
:10058000F00200F025F80646042E11D10948006952
:1005900040F00100074908612580F00200F018F8DA
:1005A00006460448006941F6FE71084001490861A9
:1005B000304670BD002002400248034948600348AD
:1005C000486070472301674500200240AB89EFCDAA
:1005D00000B502460423FFF7ABFF034603E0FFF735
:1005E000A7FF0346521E012B01D1002AF7D102B901
:1005F0000523184600BD00001748006840F00100C0
:100600001549086000BF1448006800F00200002887
:10061000F9D011484068104948600846406840F4E5
:10062000E01048600846006840F08070086000BF35
:100630000948006800F000700028F9D006484068BA
:1006400040F002000449486000BF0348406800F0E1
:1006500008000028F9D07047001002402DE9F05F33
:1006600005460E463001FFF72BFE8146394905FB52
:1006700001F0FFF725FE82464946FFF7E3FD0746F6
:100680003846FFF722FE84B22046FFF719FE834664
:100690003946FFF7A2FD82464FF08341FFF7A0FDE8
:1006A0008146FFF712FE80464FF6FF7000EA041401
:1006B00004EB080084B22848806940F00400264911
:1006C00088612648006820F47020244908600846A4
:1006D000006840F4403008600846006820F47F401D
:1006E00008600846006840F40B4008601A48C0697A
:1006F00040F400301849C8610846006940F40030F1
:1007000008610846006920F400300861144804803C
:10071000001D008842F20C0108431149091D0880A0
:100720000846008840F4807008800846008840F041
:100730002000088009481030006820F01010074998
:10074000103108600846006840F480100860BDE879
:10075000F09F000040420F000010024000080140DE
:100760000844004030B503460C461546002207E019
:10077000184600F008F824F812009B1C501C82B2A6
:10078000AA42F5DB30BD0146088870472DE9F05FCD
:1007900080468A461746B8F1006F02D33348804539
:1007A00001D3BDE8F09FFFF707FFA8F1006B4FEA08
:1007B0009B25CBF34809C9F50074A74200DC3C46F1
:1007C0004DE04FF0006101EB85208A142849FFF7C6
:1007D000C9FF00260BE009EB0600254931F810009F
:1007E0004FF6FF71884200D003E0701C86B2A6422B
:1007F000F1DB00BFA6421BDA4FF0006101EB852060
:10080000FFF770FE002608E03AF8160006EB090133
:10081000174A22F81100701C86B2A642F4DB4FF092
:10082000006101EB85208A14114900F023F804E0EF
:1008300022465146404600F01DF8A74200D10FE085
:100840006D1C4FF000090AEB440AA044381B87B224
:10085000B7F5007F02DD4FF4007400E03C46B0E7DE
:1008600000BFFFF77FFE00BF9BE70000000001080C
:10087000540800202DE9F04105460E461746002495
:1008800007E036F814102846FFF776FEAD1C601C12
:1008900084B2BC42F5DBBDE8F08110B500F002F88F
:1008A00010BD00000CB50020019000903348006896
:1008B00040F480303149086000BF3048006800F4DF
:1008C000003000900198401C0190009818B90198E0
:1008D000B0F5A06FF1D12948006800F4003010B1E4
:1008E0000120009001E0002000900098012843D1F1
:1008F0002348006840F0100021490860084600685D
:1009000020F0030008600846006840F0020008601C
:100910001A484068194948600846406848600846D7
:10092000406840F4806048600846406820F47C10CD
:1009300048600846406840F4E8104860084600688F
:1009400040F08070086000BF0C48006800F0007044
:100950000028F9D00948406820F0030007494860A2
:100960000846406840F00200486000BF0348406805
:1009700000F00C000828F9D10CBD00000010024066
:100980000020024010B51348006840F001001149F2
:10099000086008464068104908400E49486008460B
:1009A00000680E4908400B4908600846006820F4BA
:1009B000802008600846406820F4FE0048604FF43C
:1009C0001F008860FFF769FF4FF00060044908606E
:1009D00010BD0000001002400000FFF8FFFFF6FE0F
:1009E00008ED00E00A48008800F0010048B109481D
:1009F0000078401C0749087041F2873004491C31D7
:100A000008800348008820F00100014908807047F1
:100A1000100400400A0000200D4AD26942F0020290
:100A20000B4BDA610B4A1080121F1180094A203AE1
:100A3000128842F00102074B203B1A80054A2C3AEB
:100A4000128842F00102034B2C3B1A8070470000D1
:100A5000001002402C04004010B50B48006840F420
:100A6000A06009490860094800780849087008A092
:100A700000F08EF80748006840F000504FF0E02189
:100A8000C1F8000110BD00000CED00E01DE400E025
:100A90005454000000E100E00A48008800F0200003
:100AA00078B10848001D008807490870084600789A
:100AB0000649074A1288885405480088401C0449A2
:100AC000088070470038014000000020140000201A
:100AD000020000200B4800680B49084009490860E3
:100AE0000846006809490843064908600848006844
:100AF00040F020004FF0E021C1F80401302105480A
:100B0000017070470CED00E0FFF8FA050004FA05EB
:100B100004E100E025E400E00949098801F0200132
:100B200061B10749091D0988C8B20649064A1288F9
:100B3000885405490988491C034A11807047000000
:100B400000440040540C0020080000200B480068BE
:100B50000B490840094908600846006809490843EC
:100B6000064908600848006840F040004FF0E02166
:100B7000C1F8040130210548017070470CED00E018
:100B8000FFF8FA050004FA0504E100E025E400E0BE
:100B90000FB4054B10B503A9044A029800F018F8E9
:100BA00010BC5DF814FB0000250D000810000020AB
:100BB00002E008C8121F08C1002AFAD17047704726
:100BC000002001E001C1121F002AFBD17047000084
:100BD0002DE9FF4F89B09B460446002506E02528F5
:100BE0000BD05A460B999047641C6D1C2078002846
:100BF000F5D10DB02846BDE8F08F0027B846012298
:100C0000474900E0074314F8013F203B02FA03F094
:100C10000842F7D120782E2819D114F8010F47F097
:100C200004072A280ED06FF02F022078A0F130019F
:100C300009290CD808EB880102EB410100EB0108FF
:100C4000641CF2E70A98641C50F8048B0A90207820
:100C50000028CED0642808D0692806D075281ED078
:100C60005A460B9990476D1C58E00A994FF00A09B3
:100C700001C90A91002802DA40422D2102E039051B
:100C800004D52B218DF82010012103E0F90704D0B1
:100C90002021F7E78A4608AE0DE00021FAE70A991D
:100CA0004FF00A0901C90A91F7E74946FFF721FB0E
:100CB000303106F8011D0028F7D1ADEB060000F138
:100CC0002009780701D44FF00108C84502DDA8EBE0
:100CD000090000E000208046002706E008A85A46E8
:100CE000C05D0B9990476D1C7F1C5745F6DB04E0F7
:100CF00030205A460B9990476D1CB8F10001A8F1BD
:100D00000108F5DC05E016F8010B5A460B999047EF
:100D10006D1CB9F10001A9F10109F4DC641C65E75F
:100D20000928010000BF054A128802F04002002A8B
:100D3000F9D0C2B2014B1B1D1A8070470038014028
:100D400010B50446206807490840B0F1005F08D19B
:100D50006068054908602068FFF7D5F90248006817
:100D6000804710BD0000FE2F040000202DE9F05F39
:100D700006460F4690460024B3463D46A1461CE079
:100D800068784FEA002A287850441FFA80FAAD1C90
:100D90002046611C8CB20E4921F810A0B4F5806F7A
:100DA00007D100244FF480625846FFF7EFFC0BF5A3
:100DB000006B09F102001FFA80F9C145E0D324B1AC
:100DC000224603495846FFF7E1FCBDE8F09F0000CA
:100DD0005400002000BF00BFFFF70EFC4FF4165177
:100DE000482000F05BF8FFF775FE4FF416612420F1
:100DF000FFF734FCFFF7AAFE41F61F4141F28730AE
:100E0000FFF70AFEFFF728FE38E01D480078282883
:100E100034D100201A4908701A48008820F00100D7
:100E20001849088018480088F0B11748018817A0B1
:100E3000FFF7AEFE1448028815491648FFF796FFE3
:100E40006420FFF73FFB14A0FFF7A2FE00200E492D
:100E500008801048406800F07F40B0F1006F0DD16D
:100E60000C48FFF76DFF09E00A48406800F07F403A
:100E7000B0F1006F02D10748FFF762FFC5E700003D
:100E80000A00002000040040080000202564000043
:100E9000540C002000300008414100002DE9F05FB3
:100EA00005460E463001FFF70BFA81462B4905FB3C
:100EB00001F0FFF705FA82464946FFF7C3F90746F6
:100EC0003846FFF702FA84B22046FFF7F9F9834665
:100ED0003946FFF782F982464FF08341FFF780F9E8
:100EE0008146FFF7F2F980464FF6FF7000EA0414DE
:100EF00004EB080084B21A48806940F004001849E5
:100F000088610846806940F480408861154800681F
:100F100020F47F60134908600846006840F40B60C5
:100F200008600F48C06840F480400D49C86008461A
:100F3000C06820F48040C8600B480480001D008811
:100F400042F20C0108430849091D08800846008840
:100F500040F020000880BDE8F09F000040420F00F4
:100F60000010024004080140083801408C0F0008BE
:100F70000000002014000000B00B0008A00F0008C3
:100F800014000020444C0000C00B000800000000CA
:100F90000000000000000000000000000000000051
:04000005080000ED02
:00000001FF
