:020000040800F2
:10000000D005002001010008090100080B010008CB
:100010000D0100080F010008110100080000000098
:1000200000000000000000000000000013010008B4
:100030001501000800000000170100081901000860
:10004000752900081B0100081B010008311A00086F
:100050001B0100081B010008151600081B01000801
:100060001B0100081B0100081B01000811140008F7
:10007000311400085114000871140008911400088C
:10008000B1140008D11400085D0F00081B0100081E
:100090001B0100081B0100081B0100081B010008D0
:1000A0001B0100081B0100081B0100081B010008C0
:1000B0001B0100081B0100081B0100081B010008B0
:1000C0001B0100081B0100081B0100081B010008A0
:1000D0001B0100085D280008F52800081B01000826
:1000E0001B0100081B0100081B010008DFF80CD0F1
:1000F00000F0CCFC00480047A1330008D0050020E8
:100100000648804706480047FEE7FEE7FEE7FEE7B1
:10011000FEE7FEE7FEE7FEE7FEE7FEE7FD27000855
:10012000ED00000840EA01039B0703D009E008C97D
:10013000121F08C0042AFAD203E011F8013B00F8AC
:10014000013B521EF9D27047D2B201E000F8012BF8
:10015000491EFBD270470022F6E710B513460A4647
:1001600004461946FFF7F0FF204610BD10B50022E7
:1001700000E0521C835C8C5CA34201D1002BF8D1BF
:10018000D8B2E1B2401A10BD70B5064602F034FC98
:10019000046805460A220021304600F0D3FA2C609C
:1001A00070BDF0B480EA0102D40F4200B2EB410FFF
:1001B00002D20246084611464A0042D0C30DDDB2C3
:1001C000C1F3C752AD1A202D35DAC1F3160141F43F
:1001D000000204B15242C5F1200602FA06F12A419A
:1001E0001044B3EBD05F23D0C4B1012DA0EBC350BA
:1001F00009DCF0BC4FF0004202EAC352DBB200F56A
:10020000000000F0E0BA400000F1807000EBC35045
:10021000A0F1807040EAD170490009E0490841EA44
:10022000C071A0EBC35000F50000400800EBC350C4
:10023000F0BC00F0BFBA6142012202EB4101001B99
:10024000F6E7F0BC704781F00041AAE780F000407B
:10025000A7E780EA010210B502F00043400022D077
:100260004A001FD0010E01EB1261C0F35600C2F329
:10027000560240F4000042F40002A0FB02200004F9
:100280007F39140400D0401C50EA124001D44000D1
:10029000491EC2B20C0604EBD010401C4008802A54
:1002A00002D003E0002010BD20F00100002900DA98
:1002B0000020184310BD30B480EA010202F000456E
:1002C00030F0004221F0004013D090B1C30DD40DA6
:1002D000C2F31601C0F31600E41A41F4000140F421
:1002E00000027D34914201D3641C00E04900002CDF
:1002F00002DA30BC002070474FF400000023914226
:1003000001D3891A034340084FEA4101F7D151B1A3
:10031000914202D14FF0004105E002D24FF00101BD
:1003200001E06FF0010103EBC450284430BC00F041
:1003300041BA2DE9FE4F81EA030404F0004421F0A4
:10034000004100944FF0000B23F0004350EA0104F9
:100350005ED052EA03045BD0C3F30A54C1F30A55DA
:100360002C44A4F2F3340194A0FB0254C1F3130112
:1003700041F48011C3F3130343F4801301FB0244DF
:1003800000FB034E840A970A44EA815447EA8357E4
:10039000A4FB076802958D0A05FB07854FEA932C9D
:1003A00004FB0C542705029D4FEA065847EA16370E
:1003B000B5EB08056EEB070C870E920E47EA811726
:1003C00042EA8312A7FB0201B6EB0B0164EB0004C7
:1003D0002B0D43EA0C335E1844EB1C50DA465146B1
:1003E000E7FB0201C5F313044FEA0B3343EA14534E
:1003F0004FEA0432019C43EA0603A4F10C04029480
:10040000009CCDE900B400F01BFA03B0BDE8F08F0A
:1004100000200146F9E72DE9F04D81EA030404F0DC
:10042000004B21F0004514464FF0000A23F0004134
:1004300050EA050220D054EA01021DD0C5F30A5744
:100440000246C5F31303C1F31300C1F30A5640F487
:10045000801543F48013A7EB0608101BD64608F25C
:10046000FD3873EB050002D308F1010801E0921892
:100470005B41B8F1000F03DA00200146BDE8F08DC2
:1004800000204FF48011064684460EE0171B73EBE4
:10049000050705D3121B63EB050306434CEA010C69
:1004A00049084FEA300092185B4150EA0107EDD14C
:1004B00052EA030012D082EA040083EA05010843ED
:1004C00005D0101BAB4106D20122002306E000221A
:1004D0004FF0004302E06FF0010253101AEB0600E8
:1004E0004CEB085110EB0A0041EB0B01BDE8F04D5D
:1004F00000F097B996230022114600F064B90EB5BA
:1005000040F2334102910021CDE900110A460B4629
:1005100000F096F903B000BD20F00040C10DC0F31B
:10052000160040F400007F2901DA00207047962968
:1005300003DCC1F19601C840704796398840704786
:10054000C1F30A5210B5C1F3130140F2FF3341F475
:1005500080119A4201DA002010BD40F233439A42E2
:10056000A2F2334203DC524200F08DF810BD9040FD
:1005700010BD00F0004230F000400AD0C10D01F57E
:100580006071C0F3160042EA0151C20840071143EE
:10059000704700200146704701F0004330B421F05D
:1005A000004150EA010206D00A0DA2F56072C1F3C3
:1005B0001301002A02DC30BC00207047440F44EADB
:1005C000C104C100E01830BC00EBC25000F0F2B82A
:1005D000002801DBC0F10040002901DBC1F100412E
:1005E00081427047002801DBC0F10040002901DB97
:1005F000C1F100418842704730B50B4601460020EA
:100600002022012409E021FA02F59D4205D303FAD4
:1006100002F5491B04FA02F52844151EA2F1010255
:10062000F1DC30BD2DE9F05F0546002092469B4687
:1006300088460646814640241BE0284641464746F8
:10064000224600F020F853465A46C01A914110D372
:1006500011461846224600F02BFA2D1A67EB0108C6
:100660004F4622460120002100F022FA17EB000934
:100670004E41201EA4F10104DFDC484631462A46E3
:100680004346BDE8F09F202A04DB203A21FA02F01D
:100690000021704721FA02F3D040C2F120029140BC
:1006A00008431946704700000FB4002300B589B015
:1006B0000CA900910B996FF00042CB601E4B069382
:1006C0001E4B07930423CDE901321D4A08920246CE
:1006D0006B46002000F09CFA09B05DF814FB70B581
:1006E00086B006464FF0FF300091CDE901010020B1
:1006F00015460C4604903246694604A8FFF7D4FF1D
:1007000003460498211825B108B10A4600E02246A4
:100710002A6000280DD0002B02DD0098884208D006
:10072000081B0094CDE901043246694604A8FFF78E
:10073000BBFF06B070BD0000490E0008670E000840
:10074000FD0A00082DE9F04791460F468046044611
:10075000002614F8015B2DB100F0CCF90068405D73
:10076000C007F6D12B2D02D02D2D18D0641E4A467D
:100770003946204600F088FB27B13968A14201D1F3
:10078000C7F8008071054FF002040BD540420028E5
:1007900003DD02F031F90460A007BDE8F08746F4FC
:1007A0008066E4E70028F8DA02F026F904606FF0CA
:1007B0000040F2E70029A8BF7047401C490008BF6D
:1007C00020F00100704710B4B0FA80FC00FA0CF081
:1007D00050EA010404BF10BC704749B1CCF12004B9
:1007E00021FA04F411FA0CF118BF01212143084346
:1007F000A3EB0C01CB1D4FEA00614FEA102042BF72
:10080000002010BC704700EBC35010440029A4BF67
:1008100010BC7047401C490008BF20F0010010BC0C
:10082000704710B5141E73F1000408DA401C41F142
:10083000000192185B411A4301D120F0010010BD64
:100840002DE9F04D92469B4611B1B1FA81F202E0DA
:10085000B0FA80F22032904600F02AF904460F46A2
:1008600040EA0A0041EA0B0153465A46084313D0B6
:10087000114653EA010019D0C8F140025046FFF773
:1008800002FF05460E4650465946424600F010F912
:10089000084305D0012004E020463946BDE8F08D2C
:1008A0000020054346EAE0762C4337430A98630567
:1008B000E40AA0EB08000022FD0A44EA47540A308B
:1008C00002D500200146E9E7010510196941DDE97B
:1008D000084500196941BDE8F04DA2E72DE9FE4F3A
:1008E000804681EA0300C00F0C46009021F00041D1
:1008F00023F00045B8EB0200A94105D2404621464D
:1009000090461C460B46024623F00040104347D059
:10091000270DC7F30A00C3F30A510290401A019051
:1009200040286BDAC3F3130040F4801B0098924612
:1009300020B10023D2EB030A63EB0B0B019859465D
:10094000C0F14002504600F0B3F806460D4650464E
:100950005946019A00F0BBF810EB080061410024F1
:1009600087EA115284EAE7731A4340D0009A62B3CF
:10097000019A012A4FEA075215DC001B61EB0201C4
:100980004FF0004202EA0752CDE90042001C41F557
:10099000801132462B46FFF753FF03B0BDE8F08FBE
:1009A00040462146F9E7001B61EB0201001C41F5BE
:1009B000801300185B412018A2F5001747EB0301D4
:1009C00040EAD570B6196D4111E06D084FEA360660
:1009D00045EAC0754FEA0752001B61EB0201001C9B
:1009E00041F5801149084FEA300000195141324663
:1009F0002B4603B0BDE8F04FFFF713BF009801226C
:100A000040000023D0EB020263EBE0730098214624
:100A10004FEAE074B8EB000061EB0401E9E783F012
:100A200000435BE781F0004158E7C1F30A52C1F38C
:100A3000130140F2FF3341F480119A4202DA0020A0
:100A40000146704740F233439A42A2F2334202DC3D
:100A50005242FFF718BE00F02BB8000030B5041E5C
:100A600071F1000404DB4FF00044404264EB0101EB
:100A7000141E73F1000405DB1C464FF00043524284
:100A800063EB0403994208BF904230BD064C074D0A
:100A900006E0E06840F0010394E80700984710344E
:100AA000AC42F6D3FFF726FB883A0008A83A0008C4
:100AB000202A04DB203A00FA02F10020704791401E
:100AC000C2F1200320FA03F3194390407047202A13
:100AD00006DBCB17203A41FA02F043EAE07306E066
:100AE00041FA02F3D040C2F1200291400843194676
:100AF0007047000000487047FC39000810B50446F4
:100B0000FFF7F8FF0068005D00F0010010BD000075
:100B10002DE9FF4F087881B09946FF2805D0491C80
:100B20002D2804D00024002308E000230BE001243A
:100B3000F9E703EB830300EB4303491C0878FF2824
:100B4000F7D104B15B4200200090147801462D2CAF
:100B500001D02B2C04D1521C2D2C12D00024009437
:100B600000251678FF2E0ED00A24A0FB04C801FB36
:100B70000481002700FB0711521C16EB0C00694191
:100B8000EFE70124EBE7994450EA01020ED000247C
:100B9000AA4D2646DFF8A88200F0D3F982468B469C
:100BA000B9F1000009DAC9F100071BE00198002142
:100BB000C0E9001105B0BDE8F08F074612E0F80764
:100BC00007D022462B4630464146FFF7B2FB064689
:100BD000884622462B4610461946FFF7AAFB0446D4
:100BE0000D467F10002FEAD1B9F1000F324643467F
:100BF0005046594602DAFFF70EFC01E0FFF799FB79
:100C0000009A0AB181F00041019AC2E90001D1E7DE
:100C10002DE9FF4F1F468DB0D7E901464FF0FF3851
:100C20002E2045464FF000090B90B9696D1C0E98B7
:100C30008847396A824688470028F6D1BAF1FF3FD3
:100C40000AD024F4D064002E11DDBAF12B0F08D0A5
:100C5000BAF12D0F0BD102E0404611B0ABE744F4DE
:100C60008064B9696D1C0E9888478246761E694675
:100C7000600501D52D2000E02B208DF8000001F14A
:100C8000010B0DF1200809E0B9696D1C0E98884729
:100C900082460F9844F40074761E0560002E02DD33
:100CA000BAF1300FF0D00B998A453ED144F0800460
:100CB00006E00F99681CA9F1010944F4007408606A
:100CC000B9696D1C761E0E98884782463028F0D090
:100CD0002BE00B998A4505D1200603D444F080040B
:100CE000761E18E0504601F059FF08B30DF11301CC
:100CF000761E44F400748B4508D2AAF130000BF83C
:100D0000010B200607D5A9F1010003E0200602D45B
:100D100009F101008146A00502D50F99681C086001
:100D2000B9696D1C0E9888478246002ED1DC53E0CD
:100D3000002E51DDBAF1650F02D0BAF1450F4BD14B
:100D4000A00549D5B9696D1C24F44074761E0E982F
:100D500088478246002E0CDD2B2804D0BAF12D0FD7
:100D600007D144F48074B9696D1C0E988847824697
:100D7000761EE00501D52D2100E02B2108F8011B8E
:100D8000CDF82C8021E00DF12901761E44F4007489
:100D900088450CD2AAF1300010F0FF0088F800005E
:100DA00002D10B99884509D908F1010806E0E00550
:100DB00001D5244801E042F20F708146B9696D1CEB
:100DC0000E98884782460F980560002E04DD504635
:100DD00001F0E4FE0028D6D1F9690E988847FF207B
:100DE0008BF8000088F800000020069007904B4622
:100DF0006A4608A906A8FFF78BFEA00502D46FF08B
:100E000001002AE714F0240F0AD0E00714D1DDE92D
:100E100006123868031D3B600068C0E900120BE051
:100E2000DDE90601FFF7B8FB0146E00704D13868A9
:100E3000021D3A600068016028460EE70000244069
:100E40000000F03FF1D8FFFF426842B1016811F89D
:100E5000013B23B1521EC0E9001218467047012120
:100E6000C160881E704742685AB1C368016843B9BF
:100E700083688B4205D0491E521CC0E90012002035
:100E800070474FF0FF3070472DE9F05F82460078E1
:100E9000002715468B460AF10104B946302801D0D7
:100EA0009DB113E014F8010B0127782803D05828CE
:100EB00001D045B10AE00DB1102D07D10027102552
:100EC00014F8010B02E0082500E00A250026B046D0
:100ED0000EE005FB080005FB06F1012701EB1046BB
:100EE0001FFA80F8B6F5803F00D3B94614F8010B1D
:100EF000294600F018F80028EBDABBF1000F05D006
:100F00000FB1641E00E05446CBF80040B9F1000F69
:100F100006D001F071FD02210160C81EBDE8F09FFE
:100F200048EA0640FAE73A2800D2303820F020029A
:100F3000412A01D3A2F13700884201D34FF0FF309C
:100F400070470EB540F2334202920022CDE90022F2
:100F50001346FFF775FC03B000BD000009480068A8
:100F600000F0020068B107484C300068064908806C
:100F70000120064908700348006820F0020001497A
:100F800008607047002401406200002064000020D7
:100F90000648806940F004000449886104480068FC
:100FA00004490843024908607047000000100240ED
:100FB0000010014000FF0F004148806940F40070BC
:100FC0003F4988610846C06840F40070C860084620
:100FD000C06820F40070C8600846406820F44040B3
:100FE00048600846406840F4404048603548006822
:100FF00035490840334908600846006808600846DB
:10100000006840F480700860081D006820F002004D
:10101000091D08600846006820F460200860084642
:10102000006840F4602008600846006840F48010C2
:1010300008600846006820F40060086021482830F5
:10104000006820F470001F492831086008460068D5
:1010500008601C480C3000681C49084019490C31D4
:101060000860084600681949C943084315490C310E
:1010700008601448001D006840F001001149091D76
:1010800008600846006840F00800086000BF0D488E
:10109000001D006800F008000028F8D10948001D74
:1010A000006840F004000749091D086000BF0548BA
:1010B000001D006800F004000028F8D1704700000F
:1010C0000010024004240140FFFFF000C00FE0FFC9
:1010D0002DE9F047DFF8D090B9F80000FFF70AFAE1
:1010E00005463249FFF7E7F83149086000241AE065
:1010F0000A21002000F000FB2E49088008460088E5
:10110000FFF7F8F98246FFF734FA07464FF06632E8
:10111000294BFFF70EF90546FFF73EFA274941F83C
:101120002400601CC4B2642CE2DB2448006824491B
:1011300008602449086000240EE0204951F824008A
:1011400020490968FFF74EFA04D21C4850F82400E1
:101150001C490860601CC4B2642CEEDB00240EE065
:10116000164951F8240016490968FFF731FA04D2EC
:10117000124850F8240012490860601CC4B2642C64
:10118000EEDB0F4801680F480068FFF75CF8054682
:10119000074801682846FFF75CF80B4908600846D5
:1011A0000068BDE8F087000002FC000800007A44F7
:1011B000100000201800002066664A3F1001002041
:1011C0000C00002008000020040000202DE9F0475A
:1011D000DFF8D090B9F80000FFF78CF905463249E6
:1011E000FFF769F83149086000241AE00A2101205C
:1011F00000F082FA2E49088008460088FFF77AF945
:101200008246FFF7B6F907464FF06632294BFFF7E3
:1012100090F80546FFF7C0F9274941F82400601C03
:10122000C4B2642CE2DB24480068244908602449E5
:10123000086000240EE0204951F824002049096884
:10124000FFF7D0F904D21C4850F824001C4908606C
:10125000601CC4B2642CEEDB00240EE0164951F889
:10126000240016490968FFF7B3F904D2124850F870
:10127000240012490860601CC4B2642CEEDB0F48E5
:1012800001680F480068FEF7DEFF05460748016861
:101290002846FEF7DEFF0B49086008460068BDE8F7
:1012A000F087000004FC00080000C8431400002080
:1012B0001800002066664A3F100100200C00002044
:1012C00008000020040000202DE9F047B2B00646D7
:1012D0008A460025A846A9460027C8216846FEF789
:1012E0003AFF344600E0641C20787B28FBD1641C64
:1012F0003EE031E02078222801D1641C1FE017B1C4
:10130000012F1BD10CE0227805EB8500694601EB2B
:1013100080034046411C01F0FF081A54641C0DE094
:10132000237805EB8500694601EB80000A304946C9
:101330004A1C02F0FF094354641C00BF00BF207820
:101340003A2809D12046411C08460978222902D1B1
:10135000A41C791CCFB200BF20782C2802D02078A2
:101360007D28C7D1641C681CC5B20027B846B946A1
:1013700020780028BDD10A21684600F0E1FB32B098
:10138000BDE8F087F0B502460C4600210023104668
:1013900015E0002111E009E0057801EB81060A4F14
:1013A00007EB4606F5545D1CEBB2401C05782C2D6E
:1013B000F2D1401C00234D1CE9B20929EBDB057872
:1013C000202DE6D1F0BD0000600100200D4800692D
:1013D00040F000600B4908610846006920F0006099
:1013E00008610846C06940F08050C8610846C0697D
:1013F00040F00060C8610448006840F48070024911
:101400000860704700100240007000407047000004
:1014100010B50548006800F00F04034844602046FA
:10142000FFF7F4FF10BD000000000240704700000D
:1014300010B505480068C0F3031420010249486054
:101440002046FFF7F3FF10BD000002407047000088
:1014500010B505480068C0F3032420020249486023
:101460002046FFF7F3FF10BD000002407047000068
:1014700010B505480068C0F30334200302494860F2
:101480002046FFF7F3FF10BD000002407047000048
:1014900010B505480068C0F30344200402494860C1
:1014A0002046FFF7F3FF10BD000002407047000028
:1014B00010B505480068C0F3035420050249486090
:1014C0002046FFF7F3FF10BD000002407047000008
:1014D00010B505480068C0F303642006024948605F
:1014E0002046FFF7F3FF10BD000002402DE9F04752
:1014F00005460E4617469846DDE9089A002440F254
:10150000B27085423CDB40F63300854238DC40F265
:10151000B2730AE0184600F06BF910B11A4804449F
:1015200001E01A480444581C83B2AB42F2DB0023AA
:1015300010E01748C05C40F2A321484304EBC014FC
:10154000284600F055F918B1012B01D11148044487
:10155000581C83B2701E9842EBDC002303E00D4858
:101560000444581C83B2BB42F9DBC8EB4810C0EB03
:10157000082004EB0014C9EB091004EB8004544468
:101580002046BDE8F08700000085E2018033E101DC
:101590003C3900088051010010B504461348C0686A
:1015A00000F001001249087008460078E0B90F48C1
:1015B000006940F002000D49086108464461006975
:1015C00040F0400008614FF4302000F053F8084923
:1015D000087008460078012806D00448006941F2E6
:1015E000F46108400149086110BD0000002002407C
:1015F0001A0000200146002005E0002000E0401C09
:10160000B0F5FA5FFBD30A1EA1F1010399B2F4D140
:101610007047000010B50A20FFF7ECFF04A001F0AE
:10162000DBF90120044908700449086010BD00007E
:1016300065787469300000005800002014040140EF
:1016400004200B49C96801F0010109B101200EE035
:101650000749C96801F0040109B1022007E0044903
:10166000C96801F0100109B1032000E004207047AF
:101670000020024000B502460423FFF7E1FF0346C5
:1016800003E0FFF7DDFF0346521E012B01D1002AC4
:10169000F7D102B90523184600BD000002480349EE
:1016A00048600348486070472301674500200240B6
:1016B000AB89EFCD01460F48006820F01F000D4AAE
:1016C000106010460068084310600A482C38006813
:1016D00040F48000074A2C3A106000BF05483438B7
:1016E000006800F002000028F8D0024818300068B6
:1016F00080B270473424014070B506460B46002482
:10170000002505E03046FFF7D5FF0444681CC5B24C
:101710009D42F7DBB4FBF3F080B270BD30B50246FA
:101720000B46002016E0147880EA042000210EE029
:1017300000F400442CB141F2210484EA4004A0B238
:1017400003E04FF6FF7404EA40004C1CE1B20829A4
:10175000EEDB521C1C1EA3F10105ABB2E3D130BD80
:101760000848806940F0080006498861064800681A
:101770000020054908600846006840F00300086042
:101780007047000000100240040C01401748006838
:1017900040F001001549086000BF1448006800F0DF
:1017A00002000028F9D011484068104948600846F6
:1017B000406840F4E01048600846006840F08070DF
:1017C000086000BF0948006800F000700028F9D0E8
:1017D0000648406840F002000449486000BF0348E2
:1017E000406800F008000028F9D07047001002405F
:1017F0000146CA1701EB92729210A1EB820292B9D4
:10180000642091FBF0F200FB121050B94FF4C87045
:1018100091FBF0F200FB121008B901207047002084
:10182000FCE70120FAE70020F8E700000C48806997
:1018300040F008000A4988610A48006820F4706096
:10184000084908600846006840F4006008600548E0
:101850000830006840F48060024908310860704731
:1018600000100240040C01406E280AD10C4909689E
:1018700021F001210A4A11601146096841F0807186
:10188000116066280AD10649096821F00121044A3D
:1018900011601146096841F48071116070470000C1
:1018A000100C01401D48806940F6040108431B49A3
:1018B00088611B48006820F4704019490860084698
:1018C000006840F4104008601648008840F00100AD
:1018D0001449088013481C30008840F4C040114966
:1018E0001C31088040F29F500E4928310880642046
:1018F000091D08800B482030008840F440500949F9
:10190000203108806420074940310880081D008884
:1019100040F40040091D088070470000001002409C
:1019200004080140002C01402DE9F05F05460E46F9
:101930003001FEF7DFFD8146394905FB01F0FEF776
:10194000D9FD82464946FEF7B6FC07463846FEF703
:10195000E3FD84B22046FEF7CDFD83463946FEF70F
:1019600075FC82464FF08341FEF773FC8146FEF71B
:10197000D3FD80464FF6FF7000EA041404EB080024
:1019800084B22848806940F00400264988612648CE
:10199000006820F47020244908600846006840F47C
:1019A000403008600846006820F47F400860084620
:1019B000006840F40B4008601A48C06940F40030E9
:1019C0001849C8610846006940F4003008610846BB
:1019D000006920F40030086114480480001D00886C
:1019E00042F20C0108431149091D0880084600888D
:1019F00040F4807008800846008840F0200008808D
:101A000009481030006820F01010074910310860B4
:101A10000846006840F480100860BDE8F09F0000B0
:101A200040420F00001002400008014008440040FE
:101A30001FB52248008800F00100002836D000F0D1
:101A400063FC1F48007A1F4951F820001C4989781F
:101A50001B4A52781A4B1B78CDE90032CDE90210AF
:101A60001748C3798279818817A000F0B5FF234811
:101A7000006800F4807088B921480068401C204943
:101A80000860084600684FF46161B0FBF1F201FBA9
:101A9000120030B901201B49087002E000201849EB
:101AA000086019480088401C1749088003480088CE
:101AB00040F6FA710840014908801FBD0428004023
:101AC000C4010020380000200D0A2054696D6520F3
:101AD0003A202564202D202564202D2025642C25E6
:101AE00064203A202564203A202564202C546F6419
:101AF0006179206973202573200D0A000C0C0140C8
:101B000030000020340000202C000020094800682C
:101B100040F4A0600749086007480078064908704B
:101B20000648006840F008004FF0E021C1F80001CD
:101B3000704700000CED00E01DE400E000E100E073
:101B40002DE9F04F89B004464FF00009CA4600263F
:101B5000002500200890FE480790FE48069000BF30
:101B600069E309EB890104EB8100FBA1FEF7FEFAB2
:101B700000287CD109EB890104EB810101F10A0005
:101B8000FEF702FB81B20798008881420AD009EB78
:101B9000890104EB810101F10A00FEF7F5FA80B238
:101BA0000028E6D14FF0000A3DE30AEB8A0104EB7E
:101BB0008100EAA1FEF7DAFA00287DD10AEB8A015A
:101BC00004EB810101F10A00E6A1FEF7CFFA00283B
:101BD00073D100251BE205EB850104EB8100E3A135
:101BE000FEF7C4FA002869D101F078FB05EB850106
:101BF00004EB810101F10A00DDA1FEF7B7FA18BB81
:101C00000A20DC4908806E20FFF72EFED9480088A4
:101C1000FEF775FCCDE90201D7480088FEF76FFC9E
:101C200007460022D54BFEF7F6FBCDE90001DDE9C2
:101C30000223FEF77EFBCDE90401FEF781FC1FFACB
:101C400080FB584601F0D0FD05EB850104EB8101D6
:101C500001F10A00CAA1FEF789FA30BB1420C54978
:101C600008806E20FFF700FEC248008800E0DEE238
:101C7000FEF745FC07468846BF480088FEF73FFC54
:101C80000022BE4BCDE90001FEF7C5FB3A464346B4
:101C9000CDE90201FEF74DFBCDE90401FEF750FC52
:101CA0001FFA80FB584601F09FFD05EB850104EB10
:101CB000810101F10A0002E025E2ABE1A5E1B1A159
:101CC000FEF754FA20BB1E20AA4908806E20FFF7B9
:101CD000CBFDA8480088FEF712FC07468846A648B8
:101CE0000088FEF70CFC0022A44BCDE90001FEF7B2
:101CF00092FB3A464346CDE90201FEF71AFBCDE9D5
:101D00000401FEF71DFC1FFA80FB584601F06CFD34
:101D100005EB850104EB810101F10A009AA1FEF7B0
:101D200025FA20BB2820934908806E20FFF79CFDF0
:101D300090480088FEF7E3FB074688468E480088F7
:101D4000FEF7DDFB00228D4BCDE90001FEF763FBC2
:101D50003A464346CDE90201FEF7EBFACDE904012C
:101D6000FEF7EEFB1FFA80FB584601F03DFD05EB48
:101D7000850104EB810101F10A0084A1FEF7F6F967
:101D800018BB32207B4908806E20FFF76DFD794833
:101D90000088FEF7B4FBCDE9020177480088FEF722
:101DA000AEFB0022754BCDE90001FEF734FB074680
:101DB000DDE90223FEF7BDFACDE90401FEF7C0FB21
:101DC0001FFA80FB584601F00FFD05EB850104EB7F
:101DD000810101F10A006EA1FEF7C8F918BB3C2091
:101DE000644908806E20FFF73FFD62480088FEF7D7
:101DF00086FBCDE9020160480088FEF780FB0746BC
:101E000000225E4BFEF707FBCDE90001DDE902236E
:101E1000FEF78FFACDE90401FEF792FB1FFA80FB73
:101E2000584601F0E1FC05EB850104EB810059A166
:101E3000FEF79CF918BB46204E4908806E20FFF73C
:101E400013FD4C480088FEF75AFBCDE902014A48D1
:101E50000088FEF754FB0022484BCDE90001FEF755
:101E6000DAFA0746DDE90223FEF763FACDE9040159
:101E7000FEF766FB1FFA80FB584601F0B5FC05EB48
:101E8000850104EB810101F10A0043A1FEF76EF91F
:101E900018BB5020374908806E20FFF7E5FC354815
:101EA0000088FEF72CFBCDE9020133480088FEF7DD
:101EB00026FB07460022314BFEF7ADFACDE90001C3
:101EC000DDE90223FEF735FACDE90401FEF738FB20
:101ED0001FFA80FB584601F087FC05EB850104EBF7
:101EE000810101F10A002DA1FEF740F918BB5A202B
:101EF000204908806E20FFF7B7FC1E480088FEF7D7
:101F0000FEFACDE902011C480088FEF7F8FA074600
:101F100000221A4BFEF77FFACDE90001DDE902232A
:101F2000FEF707FACDE90401FEF70AFB1FFA80FB72
:101F3000584601F059FC05EB850104EB810101F1E4
:101F40000A0017A1FEF712F960BB642009492AE0D4
:101F500000FC000800F800084944000054595045AE
:101F6000000000004354524C0000000050574D0048
:101F700031300000220000202600002000005940DF
:101F800032300000333000003430000035300000C3
:101F900036300000373000003830000039300000A3
:101FA0003130300021E008806E20FFF75DFCA5484D
:101FB0000088FEF7A4FACDE90201A3480088FEF7E5
:101FC0009EFA0022A14BCDE90001FEF724FA074654
:101FD000DDE90223FEF7ADF9CDE90401FEF7B0FA21
:101FE0001FFA80FB584601F0FFFB05EB850104EB6F
:101FF000810101F10A0096A1FEF7B8F828B9002086
:10200000904908806620FFF72FFC681CC5B20A2D96
:10201000FFF6E1AD0AEB8A0104EB810101F10A0050
:102020008CA1FEF7A3F800286DD10026BCE006EBDA
:10203000860104EB810088A1FEF798F848B906EB09
:10204000860104EB810101F10A00FEF79DF8844945
:10205000088006EB860104EB810082A1FEF786F87A
:1020600048B906EB860104EB810101F10A00FEF795
:102070008BF87B49488006EB860104EB81007AA14E
:10208000FEF774F8F0BB00200390049005908046A2
:10209000834606EB860004EB800000F10A0715E09A
:1020A00038783A2806D14FF000080BF1010000F013
:1020B000FF0B7F1C38780BEB8B0103AA114401F84E
:1020C00008007F1C08F1010000F0FF0838780028A4
:1020D000E6D167480078401C6549087003A8FEF700
:1020E00053F85F49624A127821F81200604800787C
:1020F000401C5F4908700DF11100FEF745F8584982
:102100005B4A01E004E08AE0127821F8120000BF87
:1021100006EB860104EB8100AFF2B011FEF726F862
:1021200088B953480078401C5149087006EB860175
:1021300004EB810101F10A00FEF726F848494C4AF8
:10214000127821F8120006EB860104EB810049A108
:10215000FEF70CF830BB06EB860104EB810101F1C0
:102160000A0046A1FEF702F808B90120089006EB24
:10217000860104EB810101F10A0042A1FDF7F6FF9F
:1021800080B901203A4908704FF0000907E00020AB
:10219000334921F8190009F1010000F0FF09B9F1F4
:1021A0001E0FF4DB701CC6B20A2EFFF640AF089873
:1021B000012834D12A48408800EB4000401C2C49BB
:1021C000097888422BD10020294908702F4800F057
:1021D0001DFA0FE02249264A127831F812000699BA
:1021E00000F074FA0698801C069021480078401C84
:1021F0001F4908701E4800781D28EBD14FF00009D8
:1022000007E00020164921F8190009F1010000F04B
:10221000FF09B9F11E0FF4DB0120154908700AF11E
:10222000010000F0FF0ABAF10A0FFFF6BEAC09F197
:10223000010000F0FF09B9F10A0FFFF692AC09B0F6
:10224000BDE8F08F22000020260000200000594049
:1022500030000000534554004C494E45000000003A
:10226000700000204E554D0054494D4500000000BF
:1022700029000020464C41470000000053544F50B5
:1022800000000000535441525400000000F80008C0
:10229000F0B503460C461546642093FBF0F0C6B239
:1022A000642093FBF0F700FB1730C1B2132E02DD60
:1022B00001F16400C1B20846CF1701EB977701EB3B
:1022C000A707BAB2072092FBF0F700FB172082B2F3
:1022D0005719601EDFF82CC01CF80000384482B289
:1022E000CF1701EB9777BF10A1EB87071FB9032C1E
:1022F00001DA501E82B2072092FBF0F700FB172094
:10230000C0B2F0BD6C3900082DE9F04140F2B2785E
:102310000025364806883604001D008806443448E7
:10232000B6FBF0F40FE01FFA88F0FFF761FA30B166
:10233000B4F5B77F02D3A4F5B77402E006E0A4F2C7
:102340006D1408F10108B4F5B67FECD800BF294937
:10235000A1F8048015E01FFA88F0FFF749FA30B1C0
:10236000012D04D11D2C01D31D3C09E00BE02248B6
:10237000405DA04203D82048405D241A00E002E0FE
:102380006D1C1C2CE7D200BF1A49CC71681C8871E7
:102390001748B6FBF0F100FB11674FF46160B7FB23
:1023A000F0F0144908704FF46160B7FBF0F100FBE6
:1023B00011703C21B0FBF1F00E4948704FF46160A0
:1023C000B7FBF0F100FB11703C21B0FBF1F201FB17
:1023D0001200084988700B46DA7999799888FFF7D6
:1023E00057FF04490872BDE8F0810000182800403A
:1023F00080510100C40100203C39000810B54F484D
:1024000000884F49086008460088000408604B486F
:10241000001D0088096808444949086008460068AA
:10242000002872D14748C06940F080504549C861D2
:102430000846C06940F00060C8614348006840F445
:102440008070414908603F48006A40F001003D4902
:10245000086200BF3B48006A00F002000028F9D083
:102460003AA000F0B9FA3748006A40F48070354964
:1024700008620846006A40F40040086200BF2F4826
:102480001438008800F020000028F8D000BF2B4846
:102490001438008800F008000028F8D027481838C1
:1024A000008840F0010025491839088000BF234802
:1024B0001438008800F020000028F8D01F48143895
:1024C000008840F010001D49143908800020091DC3
:1024D000088047F6FF70091D0880184814380088E6
:1024E00020F0100015491439088000BF1348143833
:1024F000008800F020000028F8D01348006820F47D
:1025000080701149086018E0FFE700BF0B481438DD
:10251000008800F008000028F8D008481838008823
:1025200040F0010005491839088000BF03481438FD
:10253000008800F020000028F8D010BD18280040C6
:10254000540000200010024000700040696E697461
:10255000000000002DE9FC4705460E461746984648
:10256000DDE90A9A43463A4631462846CDE9009AC3
:10257000FEF7BCFF044621461AA000F02DFA2048C1
:10258000C06940F080501E49C8610846C06940F0EB
:102590000060C8611B48006840F4807019490860F9
:1025A0001948008840F01000174908801649183172
:1025B0000C80200C091F08801348008820F01000B0
:1025C0001149088000BF1048008800F02000002852
:1025D000F9D00C48006820F480700A490860BDE812
:1025E000FC8700000A5274632054494D452053650E
:1025F000742020536563203D2025780A00000000E8
:1026000000100240007000400428004070B50546EC
:102610000024FFF743F845F6FF7000F041F8044648
:10262000C4B90E48006940F002000C490861084630
:102630004561006940F04000086145F6FF7000F018
:102640002FF80446012C05D00448006920F0020050
:102650000249086100F01AF8204670BD00200240CF
:102660000948C16801F0010008B10120704701F07C
:10267000040008B10220F9E701F0100008B10320BE
:10268000F4E70020F2E70000002002400348006960
:1026900040F08000014908617047000000200240BE
:1026A00070B5044600BFFFF7DBFF0546012D00D0E3
:1026B00006E00120FEF79EFF601E84B2002CF2D1DE
:1026C00000BF04B9FF25284670BD000070B505465F
:1026D0000E46FEF7E3FFFF20FFF7E2FF044694B942
:1026E0000B48006940F00100094908613580FF206E
:1026F000FFF7D6FF0446012C05D00548006920F0FD
:10270000010003490861FFF7C1FF204670BD0000CA
:102710000020024010B500F001F810BD0CB50020FB
:10272000019000903348006840F4803031490860DF
:1027300000BF3048006800F4003000900198401C51
:102740000190009818B90198B0F5A06FF1D129480F
:10275000006800F4003010B10120009001E000207A
:1027600000900098012843D12348006840F01000F1
:10277000214908600846006820F003000860084608
:10278000006840F0020008601A4840681949486033
:102790000846406848600846406840F480604860E9
:1027A0000846406820F47C1048600846406840F4C1
:1027B000E81048600846006840F08070086000BF7C
:1027C0000C48006800F000700028F9D00948406803
:1027D00020F00300074948600846406840F00200C6
:1027E000486000BF0348406800F00C000828F9D199
:1027F0000CBD0000001002400020024010B513483C
:10280000006840F00100114908600846406810491E
:1028100008400E494860084600680E4908400B49C8
:1028200008600846006820F4802008600846406878
:1028300020F4FE0048604FF41F008860FFF76AFF35
:102840004FF000600449086010BD00000010024015
:102850000000FFF8FFFFF6FE08ED00E00E480088DC
:1028600000F02000B0B10C48001D00880B49087032
:10287000084600787D2802D10120094908700748E0
:1028800000780849084A1288885407480088401C84
:102890000549088070470000003801400200002010
:1028A00003000020AC000020000000200C4800685D
:1028B0000C4908400A490860084600680A4908436C
:1028C0000749086009480078084908700848006806
:1028D00040F020004FF0E021C1F8040170470000F3
:1028E0000CED00E0FFF8FA050004FA051DE400E035
:1028F00004E100E00B49098801F0200181B1094998
:10290000091D0988C8B208490978072908DA074962
:10291000054A1278885404490978491C024A117002
:102920007047000000440040600000205900002073
:102930000B4800680B4908400949086008460068D0
:1029400009490843064908600848006840F040000B
:102950004FF0E021C1F804013021054801707047B3
:102960000CED00E0FFF8FA050004FA0504E100E0D0
:1029700025E400E00020014908607047082C004071
:1029800010B502460B461C46FEF788FE1048C0688C
:1029900000F001000F49087008460078B8B90C48EB
:1029A000006940F001000A49086122800846C068B9
:1029B00000F001000749087008460078012806D099
:1029C0000348006941F2F66108400149086110BD01
:1029D000002002401A0000200FB4054B10B503A9D7
:1029E000044A029800F0E2F810BC5DF814FB000005
:1029F0008533000868000020004870476C00002004
:102A000001480068704700006C00002002E008C820
:102A1000121F08C1002AFAD170477047002001E058
:102A200001C1121F002AFBD1704700000149086054
:102A3000704700006C0000202DE9FF5FDDE90220F7
:102A4000010DDDF838B0024318D044F61050A1F261
:102A5000FF3141430D140F98012820D0A5EB0B0046
:102A6000401C5FEA000A4FF00004474EDFF81C915B
:102A7000A046504616D5CAF1000728E00F98012459
:102A800043A2012808D0002100980F9BC0E9002133
:102A9000C0E90243BDE8FF9F6FEA0B01F4E7CBF109
:102AA0000000DEE7074612E0F80707D0224633466B
:102AB00040464946FDF73DFC80468946224633465E
:102AC00010461946FDF735FC04460E467F10002FD0
:102AD000EAD1DDE90201BAF1000F42464B4602DAC3
:102AE000FDF727FC01E0FDF796FC04460E460022A8
:102AF000284BFDF7B3FF03D84FF0FF30014607E046
:102B00000022254B20463146FDF7E8FEFDF78DFFFC
:102B1000102409E0002C0ADB0A220023FDF782FDC5
:102B2000019B30321A55641E50EA0102F2D1641C36
:102B3000019AC4F1110314440F9A012A03D001220F
:102B400008430DD10AE0084304D000204FF0110BD8
:102B50000F9080E7A3EB0B056D1E0DE05B4504DDD8
:102B60004FF0000205F1010504E003DA4FF0000226
:102B7000A5F10105002AECD000980F99C0E90231B7
:102B8000C0E9004586E70000000024400000F03F57
:102B9000300000000000F0430000E03F30380A2819
:102BA00001D2012070470020704700002DE9FF4F3F
:102BB00095B09B468946064600250FE2252877D129
:102BC00000242746F84A0121059400E0044316F842
:102BD000013F203B01FA03F01042F7D130782A2858
:102BE00011D06FF02F033078A0F13002092A16D8E7
:102BF000059A44F0020402EB820203EB4202104405
:102C0000761C0590EFE759F8042B0592002A03DAA9
:102C1000504244F40054059044F00204761C30788D
:102C20002E2816D116F8010F44F004042A280DD0DE
:102C30006FF02F023078A0F13003092B09D807EB91
:102C4000870302EB4303C718761CF3E759F8047BAC
:102C5000761C30786C280FD006DC4C2817D06828FA
:102C60000DD06A2814D104E0742810D07A280FD12E
:102C70000DE044F400140AE044F4801401E044F44C
:102C800040147278824202D104F58014761C761CBE
:102C9000307866280BD013DC582877D009DC002860
:102CA00075D04528F6D04628F4D047281AD19DE1A2
:102CB00018E0632835D0642879D0652812D195E1D1
:102CC000702873D008DC6728F1D069286FD06E288F
:102CD0000DD06F2806D1B5E073282CD0752875D09B
:102CE000782874D05A46179990476D1C75E1C4F343
:102CF0000250022809D003280DD0D9F8001004286A
:102D00000DD00D6009F1040967E1D9F80010EA1748
:102D1000C1E90052F6E7D9F800100D80F2E70D7016
:102D2000F0E719F8041B8DF8001000208DF8010061
:102D3000EA46012003E059F804AB4FF0FF30610789
:102D40004FF0000102D40DE008F101018846B942BC
:102D50000FDA8045F8DB1AF808100029F4D108E0F2
:102D600008F1010188468142FADB1AF808100029AF
:102D7000F6D105985B46A0EB080721463846179A1E
:102D800000F094FA284400EB080507E04DE029E143
:102D90000DE01AF8010B5A4617999047B8F101084F
:102DA000F7D25B4621463846179A13E142E00A22E1
:102DB0000092C4F302524FF0000A022A08D059F8D8
:102DC00004CB032A4FEAEC710AD00DE029E02AE097
:102DD00009F1070121F00702F2E802C1914609E07A
:102DE0000FFA8CFC4FEAEC71042A03D14FFA8CFCE9
:102DF0004FEAEC71002907DA0A460021DCF1000CE9
:102E000061EB02012D2202E0220504D52B228DF870
:102E10000420012203E0E20701D02022F7E79046D8
:102E200059E00A2102E010220DE010214FF0000AC3
:102E300000910BE010224FF0000A44F00404082730
:102E4000009203E008224FF0000A0092C4F30252FD
:102E5000022A05D059F804CB0021032A08D009E042
:102E600009F1070121F00702F2E802C1914605E0ED
:102E70001FFA8CFC042A01D10CF0FF0C4FF0000863
:102E8000220728D5702806D0009B83F0100353EA50
:102E90000A0305D00EE040228DF80420012208E04C
:102EA0005CEA010206D030228DF804208DF805007E
:102EB00002229046009B83F0080353EA0A030AD1DA
:102EC0005CEA010201D1620705D530228DF80420A9
:102ED0004FF001087F1E582804D034A003900EA89C
:102EE00002900DE036A0F9E753466046009AFDF7E0
:102EF00099FB84460398825C0298401E02900270FF
:102F00005CEA0100F0D1029806A9081A00F1200A33
:102F1000600702D524F4803400E00127574502DD24
:102F2000A7EB0A0000E0002000EB0A0100900598E2
:102F30004144401A0590E00306D45B462146179AA7
:102F4000059800F0B3F90544002706E001A85A46A9
:102F5000C05D179990476D1C7F1C4745F6DBE00369
:102F60000CD55B462146179A059800F09FF9054459
:102F700004E030205A46179990476D1C0099481E6E
:102F800000900029F5DC08E0029802995A46007882
:102F9000491C0291179990476D1CBAF10001AAF1E2
:102FA000010AF1DC65E1000009280100303132330B
:102FB0003435363738396162636465660000000075
:102FC000303132333435363738394142434445465F
:102FD0000000000000F058F90544761C3078002805
:102FE0007FF4ECAD19B02846BDE8F08F620700D43D
:102FF000062709F1070222F0070CFCE80223E1464C
:1030000003F000485FEA080C02D00FF2702C0DE0CC
:103010005FEA045C02D50FF2682C07E05FEAC47C2B
:1030200002D00FF2602C01E0AFF2700C4FF0FF38CD
:1030300023F00043CDF850C065280CD006DC4528AD
:1030400009D046281DD047283DD13DE0662818D03C
:1030500067287ED138E00021112F01DB112000E02C
:10306000781CCDE9000106A90EA8FFF7E5FCDDE913
:103070000F010E9A03910021009207F1010A0491B9
:103080004DE04FF000400097CDE9011006A90EA8D1
:10309000FFF7D2FCDDE90F0203920E9B119900228B
:1030A000DDF80CA00093049211B9791C00EB010A21
:1030B000B7EB0A0004D4C0F1FF3007F1010A049015
:1030C000AAEB0700019044E0012F00DA012700215C
:1030D000112F01DD112000E03846CDE9000106A9DD
:1030E0000EA8FFF7A9FCDDE90F010E9A039100215C
:1030F00004910092BA4621070CD40399514500DA95
:103100008A46BAF1010F05DD009AAAF10101515C6E
:10311000302908D0B84202DA10F1040F06DA012192
:10312000CDE9011015E0AAF10101E9E7002805DC6D
:10313000049901440491AAEB000102E0411C5145AD
:1031400000DD8A460499401A401C01904FF000406F
:103150000290200704D40198504501DBCDF804808B
:1031600000208DF84F0002980DF14F07B0F1004F8D
:1031700025D02B200E9002984FF0020800280CDA80
:10318000404202902D200E9007E00A210298FDF7A0
:1031900033FA3031029007F8011DB8F10001A8F1AF
:1031A0000108F2DC02980028EFD1791E0E98087011
:1031B000307800F0200040F0450007F8020D12A81A
:1031C000C01B00F107081498007800B1012000EB43
:1031D0000A01019801EBE07105984144401A401E34
:1031E0000590E00306D45B462146179A059800F047
:1031F0005DF805441498007818B15A46179990471D
:103200006D1CE00324D55B462146179A059800F013
:103210004DF805441CE00498002807DBDDE90301B4
:10322000884203DD0098405C179901E0179930202F
:103230005A469047049805F10105401C04900198F6
:10324000401E019004D12E205A46179990476D1CBC
:10325000BAF10001AAF1010ADDDC05E017F8010B63
:103260005A46179990476D1CB8F10001A8F1010862
:10327000F4DC5B462146179A0598ABE62D0000006A
:103280002B000000200000002DE9F041044600253D
:103290001E461746880404D405E039462020B0476E
:1032A0006D1C641EF9D52846BDE8F0812DE9F0417A
:1032B000044600251E469046C80301D5302700E08D
:1032C0002027880404D505E041463846B0476D1CE8
:1032D000641EF9D52846BDE8F081000070B594B0B1
:1032E0000024502219496846FCF71CFF184806883C
:1032F0004FF47A7096FBF0F085B24FF47A7096FB3B
:10330000F0F100FB1160B0F5FA7F01DD681C85B2B9
:10331000262D02DD64200F49088012E03DF81400DC
:10332000A8420CDD24B9BDF828000A4908800AE04B
:10333000601E0AA931F810000649088003E0601CED
:1033400084B2142CEAD100BF14B070BDEC38000870
:10335000046C00402600002030B583B00446FFF71F
:103360004FFB05460020CDE9000002462146684695
:10337000FDF7B5F92846FFF759FBDDE9000103B079
:1033800030BD000000BF054A128802F04002002A4A
:10339000F9D0C2B2014B1B1D1A80704700380140A2
:1033A00092B0DFF8A8B3EA480F90861C051DFEF71F
:1033B000EDF94FF41651482000F030FAFFF776FA95
:1033C000FEF704F8E3A0FFF707FBFDF7E1FDFDF7CB
:1033D000F3FDFEF7C5F9FEF765FA6E20FEF744FA35
:1033E0001E20DD490880FEF759F9DC480088DC49D9
:1033F00008600846008800040860D848001D00885E
:1034000009680844D649086008460068B8B100BF9A
:10341000D2481438008800F008000028F8D0CF48BF
:103420001838008840F00100CC491839088000BFE6
:10343000CA481438008800F020000028F8D0FEF7B1
:1034400065FBFEF7F3F94FF416614820FEF76CFABE
:10345000FFF76EFA79E1FEF757FF30880A2851DA54
:1034600000244CE0BF48007804EB440135F811100B
:10347000884242D1BB48417804EB4402A81C30F892
:103480001200814239D1B7488078012835D1FFF741
:1034900025FF04EB4401281D30F8110030B96620E7
:1034A000FEF7E2F90020AC49088026E06E20FEF726
:1034B000DBF904EB4401281D30F81100A64908800F
:1034C00008460088FDF71BF8CDE90801A6480088EA
:1034D000FDF715F807460022A44BFCF79CFFCDE949
:1034E0000601DDE90823FCF724FFCDE90A01FDF719
:1034F00027F880B20C9000F077F9601CC4B23088D5
:10350000A042AFDC9A480078012810D19949088878
:10351000411C88B2974909880021964A11801146BA
:103520000988014311800021914A117000BF92481F
:103530000088142859D1FDF749FE1090FDF7C8FD09
:10354000119007218D48FEF7E9F8C0B20E900E9851
:10355000A0B98A4890F800904FF6FF7000EA092958
:10356000864890F8019090F802A04FF6FF7000EAAC
:103570000A2A824890F803A000790D901198FCF770
:10358000F8FF074688461098FCF7F3FFCDE90A01DB
:1035900071480088CDE90209CDE90078BBF8001038
:1035A00077A0DDE90A23FFF717FA4FF4FA70FEF768
:1035B00021F8824801680D98CDE900010F98038831
:1035C000BBF8001052467E48FFF706FA00206A4911
:1035D0000880002404E0002068490855601CC4B23B
:1035E000072CF8DB00207749087077480078A8B1ED
:1035F000764801787648FDF767FE002704E0002052
:103600007349C855781CC7B2704800888742F6DBFA
:1036100000206E4908806C49087000BF6D48006842
:1036200000F4806000287CD1684801786848FDF784
:10363000A9FE6948FCF7A8FD80B2089066480A30E8
:10364000FFF78AFECDE90001FCF7A6FF0B90624868
:103650001430FFF781FECDE90001FCF79DFF0C90CF
:103660005D481E30FCF790FD07905B482830FCF762
:103670008BFD069058483230FCF786FD0590564881
:103680003C30FCF781FD049053484630FCF77CFD4C
:10369000039051485030FCF777FD02904F490C9849
:1036A000FCF7D7FD0190FCF737FF80B20A904C4938
:1036B0000B98FCF7CEFD0190FCF72EFF80B209902D
:1036C000224F3846FDF768FF39460898FFF758F94A
:1036D000B91C0A98FFF754F9391D0998FFF750F9FA
:1036E000398840A0FFF778F9FEF788FEFEF70EFA5A
:1036F0000298C0B20399C9B2CDE90010DDF810C03C
:103700000CF0FF03DDF814C00CF0FF02DDF818C068
:103710000CF0FF01DDF81CC01FFA8CF0FEF71AFF59
:1037200000E012E04FF0000807E00020284901F80F
:10373000080008F1010000F0FF08244800888045D7
:10374000F3DB00202149088000BF84E600FC00086C
:1037500000F80008474F0000220000201828004011
:1037600054000020C4010020260000200000594021
:1037700034000020046C00402C0000205900002080
:103780007B224944223A222564222C2255223A22C5
:10379000252E3466222C2249223A22252E346622F6
:1037A0002C2250574D223A222564222C224C45418E
:1037B0004B5F4931223A222564227D0030000020EF
:1037C000003A0008600000200300002000000020F4
:1037D000AC000020080C01406001002000007A4489
:1037E0000000C843256400000B49098821F400410A
:1037F000094A1180111F088007493039098841F0B2
:103800000101054A303A11800349098841F4004119
:10381000014A118070470000442C01402DE9F05FFF
:1038200005460E463001FCF765FE81462B4905FB37
:1038300001F0FCF75FFE82464946FCF73CFD074677
:103840003846FCF769FE84B22046FCF753FE8346F7
:103850003946FCF7FBFC82464FF08341FCF7F9FC4C
:103860008146FCF759FE80464FF6FF7000EA0414CB
:1038700004EB080084B21A48806940F0040018493B
:1038800088610846806940F4804088611548006876
:1038900020F47F60134908600846006840F40B601C
:1038A00008600F48C06840F480400D49C860084671
:1038B000C06820F48040C8600B480480001D008868
:1038C00042F20C0108430849091D08800846008897
:1038D00040F020000880BDE8F09F000040420F004B
:1038E00000100240040801400838014000000200B6
:1038F0000400060008000A000C000E001000120070
:103900001400160018001A001C001E0020002200DF
:10391000240026005000500050005000510052007A
:1039200053005400550056005700580059005A00E3
:103930005C005E0060006200640064001F1C1F1ECB
:103940001F1E1F1F1E1F1E1F4A616E4665624D61AE
:10395000724170724D61794A756E4A756C41756736
:103960005365704F63744E6F7644656300030306BE
:10397000010406020500030500404040404040406D
:103980004040414141414140404040404040404032
:1039900040404040404040404005020202020202D6
:1039A0000202020202020202022020202020202025
:1039B0002020200202020202020290909090909039
:1039C00010101010101010101010101010101010F7
:1039D000101010100202020202028888888888886B
:1039E0000808080808080808080808080808080857
:1039F00008080808020202024000000079390008A5
:103A00007B224944223A222564222C224C45414BF8
:103A10005F4932223A222564222C224C494E45220B
:103A20003A222564222C22574554223A2225642228
:103A30002C224F50454E5F54494D45223A22256471
:103A4000227D000046726964617900004D6F6E64EA
:103A50006179000053756E6461790000536174757B
:103A600072646179000000005765646E657364617B
:103A7000790000005475657364617900546875724B
:103A80007364617900000000A83A0008000000207B
:103A9000700000000C2A0008183B0008700000208D
:103AA000600500001C2A0008000000000000000063
:103AB0000000000000000000000000000000000006
:103AC00000000000000000000000000000000000F6
:103AD00000010000000000000000000000000000E5
:103AE000543A00084C3A0008743A0008683A000852
:103AF0007C3A0008443A00085C3A000800000000E4
:103B000000000000000000000000000000000000B5
:083B10000000000000000000AD
:0400000508000101ED
:00000001FF
