:020000040800F2
:103000001004002001310008093100080B310008CC
:103010000D3100080F3100081131000800000000D8
:103020000000000000000000000000001331000854
:1030300015310008000000001731000819310008A0
:103040001B3100081B3100081B3100081B31000830
:103050001B3100081B3100081B3100081B31000820
:103060001B3100081B3100081B310008B133000878
:10307000D1330008F133000811340008313400085E
:103080005134000871340008793300081B310008FE
:103090001B3100081B3100081B3100081B310008E0
:1030A0001B3100081B3100081B3100081B310008D0
:1030B0001B3100081B3100081B3100081B310008C0
:1030C0001B3100081B3100081B3100081B310008B0
:1030D0001B3100083D3600081B3100081B31000879
:1030E0001B3100081B3100081B310008DFF80CD031
:1030F00000F030F9004800475D3700081004002058
:103100000648804706480047FEE7FEE7FEE7FEE781
:10311000FEE7FEE7FEE7FEE7FEE7FEE7DD35000837
:10312000ED300008F0B480EA0102D40F4200B2EBA7
:10313000410F02D20246084611464A0042D0C30D52
:10314000DDB2C1F3C752AD1A202D35DAC1F3160135
:1031500041F4000204B15242C5F1200602FA06F120
:103160002A411044B3EBD05F23D0C4B1012DA0EBB2
:10317000C35009DCF0BC4FF0004202EAC352DBB29C
:1031800000F5000000F0B8B8400000F1807000EBDE
:10319000C350A0F1807040EAD170490009E04908AD
:1031A00041EAC071A0EBC35000F50000400800EBFD
:1031B000C350F0BC00F097B86142012202EB41011C
:1031C000001BF6E7F0BC704781F00041AAE780F0F1
:1031D0000040A7E780EA010210B502F0004340007A
:1031E00022D04A001FD0010E01EB1261C0F356003D
:1031F000C2F3560240F4000042F40002A0FB022099
:1032000000047F39140400D0401C50EA124001D45D
:103210004000491EC2B20C0604EBD010401C40080E
:10322000802A02D003E0002010BD20F00100002918
:1032300000DA0020184310BD30B480EA010202F029
:10324000004530F0004221F0004013D090B1C30D92
:10325000D40DC2F31601C0F31600E41A41F40001C4
:1032600040F400027D34914201D3641C00E0490027
:10327000002C02DA30BC002070474FF4000000231D
:10328000914201D3891A034340084FEA4101F7D123
:1032900051B1914202D14FF0004105E002D24FF00E
:1032A000010101E06FF0010103EBC450284430BC80
:1032B00000F019B896230022114600F01DB820F046
:1032C0000040C10DC0F3160040F400007F2901DA70
:1032D00000207047962903DCC1F19601C840704771
:1032E0009639884070470029A8BF7047401C4900A4
:1032F00008BF20F00100704710B4B0FA80FC00FA5B
:103300000CF050EA010404BF10BC704749B1CCF185
:10331000200421FA04F411FA0CF118BF0121214311
:103320000843A3EB0C01CB1D4FEA00614FEA1020CC
:1033300042BF002010BC704700EBC350104400296E
:10334000A4BF10BC7047401C490008BF20F001001A
:1033500010BC7047064C074D06E0E06840F00103E2
:1033600094E8070098471034AC42F6D3FFF7C2FE4A
:1033700068380008883800080948006800F0020032
:1033800068B107484C3000680649088001200649AA
:1033900008700348006820F0020001490860704787
:1033A00000240140060000200800002070470000B3
:1033B00010B50548006800F00F040348446020463B
:1033C000FFF7F4FF10BD000000000240704700004E
:1033D00010B505480068C0F3031420010249486095
:1033E0002046FFF7F3FF10BD0000024070470000C9
:1033F00010B505480068C0F3032420020249486064
:103400002046FFF7F3FF10BD0000024070470000A8
:1034100010B505480068C0F3033420030249486032
:103420002046FFF7F3FF10BD000002407047000088
:1034300010B505480068C0F3034420040249486001
:103440002046FFF7F3FF10BD000002407047000068
:1034500010B505480068C0F30354200502494860D0
:103460002046FFF7F3FF10BD000002407047000048
:1034700010B505480068C0F303642006024948609F
:103480002046FFF7F3FF10BD000002401848006817
:1034900040F001001649086000BF1548006800F0C0
:1034A00002000028F9D01248406840F480301049EA
:1034B00048600846406840F4E010486008460068EC
:1034C00040F08070086000BF0948006800F000709C
:1034D0000028F9D00648406840F0020004494860DE
:1034E00000BF0348406800F008000028F9D070478A
:1034F0000010024010B500F001F810BD0CB500201E
:10350000019000903348006840F4803031490860F1
:1035100000BF3048006800F4003000900198401C63
:103520000190009818B90198B0F5A06FF1D1294821
:10353000006800F4003010B10120009001E000208C
:1035400000900098012843D12348006840F0100003
:10355000214908600846006820F00300086008461A
:10356000006840F0020008601A4840681949486045
:103570000846406848600846406840F480604860FB
:103580000846406820F47C1048600846406840F4D3
:10359000E81048600846006840F08070086000BF8E
:1035A0000C48006800F000700028F9D00948406815
:1035B00020F00300074948600846406840F00200D8
:1035C000486000BF0348406800F00C000828F9D1AB
:1035D0000CBD0000001002400020024010B513484E
:1035E000006840F001001149086008464068104931
:1035F00008400E494860084600680E4908400B49DB
:1036000008600846006820F480200860084640688A
:1036100020F4FE0048604FF41F008860FFF76AFF47
:103620004FF000600449086010BD00000010024027
:103630000000FFF8FFFFF6FE08ED00E010B540F2D5
:103640002551094800F036F80748008800F02000AE
:1036500040B10548001D00880449087008460078FC
:1036600000F038F810BD00000038014004000020D0
:103670000B4800680B490840094908600846006883
:1036800009490843064908600848006840F02000DE
:103690004FF0E021C1F80401302105480170704766
:1036A0000CED00E0FFF8FA050004FA0504E100E083
:1036B00025E400E010B50022002340F66A14A14280
:1036C00000D100BF0A1201249440A3B2DC4304805D
:1036D00010BD00000549088000BF0449091F098882
:1036E00001F040010029F8D0704700000438014083
:1036F000014A024900F013B8413700080C000020CD
:1037000002E008C8121F08C1002AFAD170477047AA
:10371000002001E001C1121F002AFBD170472DE9F2
:10372000F04116460F460446002503E03946B047EF
:10373000641C6D1C20780028F8D12846BDE8F08173
:1037400000BF054A128802F04002002AF9D0C2B236
:10375000014B1B1D1A8070470038014009480A4977
:103760000860FFF793FE4FF41651482000F014F85C
:10377000FFF77EFF05A0FFF7BBFF02E005A0FFF704
:10378000B7FFFBE70030000808ED00E061646673F6
:1037900061646600474F00002DE9F05F05460E4664
:1037A0003001FFF787FD81462B4905FB01F0FFF74C
:1037B00081FD82464946FFF73FFD07463846FFF741
:1037C0007EFD84B22046FFF775FD83463946FFF73C
:1037D000FEFC82464FF08341FFF7FCFC8146FFF779
:1037E0006EFD80464FF6FF7000EA041404EB0800FB
:1037F00084B21A48806940F004001849886108467C
:10380000806940F4804088611548006820F47F603A
:10381000134908600846006840F40B6008600F48D0
:10382000C06840F480400D49C8600846C06820F474
:103830008040C8600B480480001D008842F20C01E3
:1038400008430849091D08800846008840F0200008
:103850000880BDE8F09F000040420F0000100240C9
:1038600004080140083801408838000800000020A2
:1038700010000000003700089838000810000020F1
:1038800000040000103700080000000000000000E5
:08389000000000000000000030
:04000005080030EDD2
:00000001FF
