:020000040800F2
:100000000005002001010008090100080B0100089B
:100010000D0100080F010008110100080000000098
:1000200000000000000000000000000013010008B4
:100030001501000800000000170100081901000860
:10004000192500081B0100081B01000831150008D4
:100050001B0100081B010008750D00081B010008AA
:100060001B0100081B0100081B010008710B0008A0
:10007000910B0008B10B0008D10B0008F10B000830
:10008000110C0008310C0008510700081B01000882
:100090001B0100081B0100081B0100081B010008D0
:1000A0001B0100081B0100081B0100081B010008C0
:1000B0001B010008C12100081B0100081B010008EA
:1000C0001B0100081B0100081B0100081B010008A0
:1000D0001B010008B5220008552300081B01000879
:1000E0001B0100081B0100081B010008DFF80CD0F1
:1000F00000F00CFB004800475927000800050020CD
:100100000648804706480047FEE7FEE7FEE7FEE7B1
:10011000FEE7FEE7FEE7FEE7FEE7FEE761210008F7
:10012000ED00000840EA01039B0703D009E008C97D
:10013000121F08C0042AFAD203E011F8013B00F8AC
:10014000013B521EF9D27047D2B201E000F8012BF8
:10015000491EFBD270470022F6E710B513460A4647
:1001600004461946FFF7F0FF204610BDF0B480EAC0
:100170000102D40F4200B2EB410F02D20246084600
:1001800011464A0042D0C30DDDB2C1F3C752AD1AC9
:10019000202D35DAC1F3160141F4000204B15242B8
:1001A000C5F1200602FA06F12A411044B3EBD05FF4
:1001B00023D0C4B1012DA0EBC35009DCF0BC4FF03B
:1001C000004202EAC352DBB200F5000000F013BAAD
:1001D000400000F1807000EBC350A0F1807040EA55
:1001E000D170490009E0490841EAC071A0EBC35051
:1001F00000F50000400800EBC350F0BC00F0F2B97D
:100200006142012202EB4101001BF6E7F0BC70479E
:1002100081F00041AAE780F00040A7E780EA0102F0
:1002200010B502F00043400022D04A001FD0010E5A
:1002300001EB1261C0F35600C2F3560240F4000015
:1002400042F40002A0FB022000047F39140400D015
:10025000401C50EA124001D44000491EC2B20C06B4
:1002600004EBD010401C4008802A02D003E000209C
:1002700010BD20F00100002900DA0020184310BD55
:1002800030B480EA010202F0004530F0004221F073
:10029000004013D090B1C30DD40DC2F31601C0F3CA
:1002A0001600E41A41F4000140F400027D3491424A
:1002B00001D3641C00E04900002C02DA30BC0020AD
:1002C00070474FF400000023914201D3891A034381
:1002D00040084FEA4101F7D151B1914202D14FF0AC
:1002E000004105E002D24FF0010101E06FF0010191
:1002F00003EBC450284430BC00F074B92DE9FE4F24
:1003000081EA030404F0004421F0004100944FF01E
:10031000000B23F0004350EA01045ED052EA0304CC
:100320005BD0C3F30A54C1F30A552C44A4F2F3344E
:100330000194A0FB0254C1F3130141F48011C3F3F3
:10034000130343F4801301FB024400FB034E840AB1
:10035000970A44EA815447EA8357A4FB0768029549
:100360008D0A05FB07854FEA932C04FB0C542705E7
:10037000029D4FEA065847EA1637B5EB08056EEBC3
:10038000070C870E920E47EA811742EA8312A7FBF9
:100390000201B6EB0B0164EB00042B0D43EA0C33B6
:1003A0005E1844EB1C50DA465146E7FB0201C5F3E8
:1003B00013044FEA0B3343EA14534FEA0432019C0F
:1003C00043EA0603A4F10C040294009CCDE900B4B6
:1003D00000F04EF903B0BDE8F08F00200146F9E7C8
:1003E0002DE9F04D81EA030404F0004B21F00045B3
:1003F00014464FF0000A23F0004150EA050220D0D5
:1004000054EA01021DD0C5F30A570246C5F313038F
:10041000C1F31300C1F30A5640F4801543F480136E
:10042000A7EB0608101BD64608F2FD3873EB050053
:1004300002D308F1010801E092185B41B8F1000F06
:1004400003DA00200146BDE8F08D00204FF4801152
:10045000064684460EE0171B73EB050705D3121BF7
:1004600063EB050306434CEA010C49084FEA3000F0
:1004700092185B4150EA0107EDD152EA030012D015
:1004800082EA040083EA0501084305D0101BAB4152
:1004900006D20122002306E000224FF0004302E0D2
:1004A0006FF0010253101AEB06004CEB085110EBF1
:1004B0000A0041EB0B01BDE8F04D00F0CAB89623ED
:1004C0000022114600F097B80EB540F23341029178
:1004D0000021CDE900110A460B4600F0C9F803B02F
:1004E00000BD20F00040C10DC0F3160040F4000034
:1004F0007F2901DA00207047962903DCC1F19601BB
:10050000C8407047963988407047C1F30A5210B509
:10051000C1F3130140F2FF3341F480119A4201DA32
:10052000002010BD40F233439A42A2F2334203DC72
:10053000524200F047F810BD904010BD00F000425C
:1005400030F000400AD0C10D01F56071C0F3160013
:1005500042EA0151C208400711437047002001469A
:10056000704701F0004330B421F0004150EA01022D
:1005700006D00A0DA2F56072C1F31301002A02DC55
:1005800030BC00207047440F44EAC104C100E018A9
:1005900030BC00EBC25000F025B80000002801DBA1
:1005A000C0F10040002901DBC1F1004181427047E8
:1005B000002801DBC0F10040002901DBC1F100414E
:1005C00088427047202A04DB203A21FA02F00021F9
:1005D000704721FA02F3D040C2F120029140084353
:1005E000194670470029A8BF7047401C490008BF42
:1005F00020F00100704710B4B0FA80FC00FA0CF053
:1006000050EA010404BF10BC704749B1CCF120048A
:1006100021FA04F411FA0CF118BF01212143084317
:10062000A3EB0C01CB1D4FEA00614FEA102042BF43
:10063000002010BC704700EBC35010440029A4BF39
:1006400010BC7047401C490008BF20F0010010BCDE
:10065000704710B5141E73F1000408DA401C41F114
:10066000000192185B411A4301D120F0010010BD36
:100670002DE9F04D92469B4611B1B1FA81F202E0AC
:10068000B0FA80F22032904600F052F804460F464D
:1006900040EA0A0041EA0B0153465A46084313D088
:1006A000114653EA010019D0C8F140025046FFF745
:1006B00089FF05460E4650465946424600F038F836
:1006C000084305D0012004E020463946BDE8F08DFE
:1006D0000020054346EAE0762C4337430A98630539
:1006E000E40AA0EB08000022FD0A44EA47540A305D
:1006F00002D500200146E9E7010510196941DDE94D
:10070000084500196941BDE8F04DA2E7064C074DC8
:1007100006E0E06840F0010394E8070098471034D1
:10072000AC42F6D3FFF7E6FCC0290008E029000838
:10073000202A04DB203A00FA02F1002070479140A1
:10074000C2F1200320FA03F31943904070470000E0
:100750000948006800F0020068B107484C300068A2
:10076000064908800120064908700348006820F007
:100770000200014908607047002401406600002023
:10078000680000200648806940F004000449886140
:1007900004480068044908430249086070470000A3
:1007A000001002400010014000FF0F004148806926
:1007B00040F400703F4988610846C06840F400700A
:1007C000C8600846C06820F40070C86008464068E9
:1007D00020F4404048600846406840F4404048608B
:1007E00035480068354908403349086008460068C4
:1007F00008600846006840F480700860081D0068C2
:1008000020F00200091D08600846006820F46020FE
:1008100008600846006840F46020086008460068E8
:1008200040F4801008600846006820F4006008600A
:1008300021482830006820F470001F4928310860E2
:100840000846006808601C480C3000681C490840D5
:1008500019490C310860084600681949C943084322
:1008600015490C3108601448001D006840F0010073
:100870001149091D08600846006840F0080008603A
:1008800000BF0D48001D006800F008000028F8D1E6
:100890000948001D006840F004000749091D086070
:1008A00000BF0548001D006800F004000028F8D1D2
:1008B000704700000010024004240140FFFFF000D8
:1008C000C00FE0FF2DE9F047DFF8D090B9F8000045
:1008D000FFF7F5FD05463249FFF7D2FC31490860C4
:1008E00000241AE00A21002000F0B6FA2E49088000
:1008F00008460088FFF7E3FD8246FFF71FFE074624
:100900004FF06632294BFFF7F9FC0546FFF729FE49
:10091000274941F82400601CC4B2642CE2DB24485F
:100920000068244908602449086000240EE020493A
:1009300051F8240020490968FFF73AFE04D21C4808
:1009400050F824001C490860601CC4B2642CEEDB23
:1009500000240EE0164951F8240016490968FFF7F3
:100960001DFE04D2124850F8240012490860601C91
:10097000C4B2642CEEDB0F4801680F480068FFF733
:1009800047FC0546074801682846FFF747FC0B4926
:10099000086008460068BDE8F087000004FC000815
:1009A0000000C842140000201C00002066664A3F78
:1009B000A4000020100000200C00002008000020EF
:1009C0002DE9F047DFF8D090B9F80000FFF777FD88
:1009D00005463249FFF754FC3149086000241AE00B
:1009E0000A21012000F038FA2E49088008460088C4
:1009F000FFF765FD8246FFF7A1FD07464FF066321F
:100A0000294BFFF77BFC0546FFF7ABFD274941F873
:100A10002400601CC4B2642CE2DB24480068244932
:100A200008602449086000240EE0204951F82400A1
:100A300020490968FFF7BCFD04D21C4850F8240087
:100A40001C490860601CC4B2642CEEDB00240EE07C
:100A5000164951F8240016490968FFF79FFD04D292
:100A6000124850F8240012490860601CC4B2642C7B
:100A7000EEDB0F4801680F480068FFF7C9FB054629
:100A8000074801682846FFF7C9FB0B49086008467C
:100A90000068BDE8F087000002FC00080000C842C2
:100AA000180000201C00002066664A3FA4000020B9
:100AB000100000200C0000200800002070B592B04B
:100AC00004460E462C2107A8FFF745FBBDF81C0085
:100AD000E1780843ADF81C00BDF81C004FF6FF712B
:100AE00001EA0020ADF81C00BDF81C00A178084305
:100AF000ADF81C0020798DF81E0060798DF81F007C
:100B0000002505E0A81D215C08A84155681CC5B258
:100B10006079A842F6DC1C220BA96846FFF702FBAD
:100B200007A80FC800F05CFD12B070BD0D48006949
:100B300040F000600B4908610846006920F0006041
:100B400008610846C06940F08050C8610846C06925
:100B500040F00060C8610448006840F480700249B9
:100B600008607047001002400070004070470000AD
:100B700010B50548006800F00F04034844602046A3
:100B8000FFF7F4FF10BD00000000024070470000B6
:100B900010B505480068C0F30314200102494860FD
:100BA0002046FFF7F3FF10BD000002407047000031
:100BB00010B505480068C0F30324200202494860CC
:100BC0002046FFF7F3FF10BD000002407047000011
:100BD00010B505480068C0F303342003024948609B
:100BE0002046FFF7F3FF10BD0000024070470000F1
:100BF00010B505480068C0F303442004024948606A
:100C00002046FFF7F3FF10BD0000024070470000D0
:100C100010B505480068C0F3035420050249486038
:100C20002046FFF7F3FF10BD0000024070470000B0
:100C300010B505480068C0F3036420060249486007
:100C40002046FFF7F3FF10BD000002402DE9F047FA
:100C500005460E4617469846DDE9089A002440F2FC
:100C6000B27085423CDB40F63300854238DC40F20E
:100C7000B2730AE0184600F0EBF910B11A480444C8
:100C800001E01A480444581C83B2AB42F2DB002353
:100C900010E01748C05C40F2A321484304EBC014A5
:100CA000284600F0D5F918B1012B01D111480444B0
:100CB000581C83B2701E9842EBDC002303E00D4801
:100CC0000444581C83B2BB42F9DBC8EB4810C0EBAC
:100CD000082004EB0014C9EB091004EB8004544411
:100CE0002046BDE8F08700000085E2018033E10185
:100CF000402900088051010010B504461348C0681F
:100D000000F001001249087008460078E0B90F4869
:100D1000006940F002000D4908610846446100691D
:100D200040F0400008614FF4302000F053F80849CB
:100D3000087008460078012806D00448006941F28E
:100D4000F46108400149086110BD00000020024024
:100D50001E0000200146002005E0002000E0401CAD
:100D6000B0F5FA5FFBD30A1EA1F1010399B2F4D1E9
:100D70007047000010B50A20FFF7ECFF04A001F057
:100D8000FDFB0120044908700449086010BD000003
:100D900065787469300000005C0000201404014094
:100DA00004200B49C96801F0010109B101200EE0DE
:100DB0000749C96801F0040109B1022007E00449AC
:100DC000C96801F0100109B1032000E00420704758
:100DD0000020024000B502460423FFF7E1FF03466E
:100DE00003E0FFF7DDFF0346521E012B01D1002A6D
:100DF000F7D102B90523184600BD00000248034997
:100E0000486003484860704723016745002002405E
:100E1000AB89EFCD01460F48006820F01F000D4A56
:100E2000106010460068084310600A482C380068BB
:100E300040F48000074A2C3A106000BF054834385F
:100E4000006800F002000028F8D00248183000685E
:100E500080B270473424014070B506460B4600242A
:100E6000002505E03046FFF7D5FF0444681CC5B2F5
:100E70009D42F7DBB4FBF3F080B270BD30B50246A3
:100E80000B46002016E0147880EA042000210EE0D2
:100E900000F400442CB141F2210484EA4004A0B2E1
:100EA00003E04FF6FF7404EA40004C1CE1B208294D
:100EB000EEDB521C1C1EA3F10105ABB2E3D130BD29
:100EC00030B502460B464FF6FF7011E014786040D3
:100ED00000210AE000F0010424B14AF2010484EA8E
:100EE000600000E040104C1CE1B20829F2DB521C0B
:100EF0001C1EA3F10105ABB2E8D130BD70B521488D
:100F0000007801283CD1204800785A281ED11E487C
:100F100040783C281AD11D4801881B48FFF7D0FFB4
:100F2000064626B9194801781748FFF7C7FD00257E
:100F300004E0002014494855681CC5B213480088D5
:100F40008542F6DB00201149088016E00E48007843
:100F5000612804D14FF4FA70FFF7FCFE0DE0002485
:100F600004E0002008490855601CC4B20748008806
:100F70008442F6DB00200549088000200149087002
:100F800070BD000004000020700000200000002060
:100F90004AF6AA200149086070470000003000406E
:100FA00045F25552054B1A601A46506091604AF658
:100FB000AA221A604CF6CC421A60704700300040FA
:100FC0000848806940F008000649886106480068C2
:100FD0000020054908600846006840F003000860EA
:100FE0007047000000100240040C014017480068E0
:100FF00040F001001549086000BF1448006800F087
:1010000002000028F9D0114840681049486008469D
:10101000406840F4E01048600846006840F0807086
:10102000086000BF0948006800F000700028F9D08F
:101030000648406840F002000449486000BF034889
:10104000406800F008000028F9D070470010024006
:101050000146CA1701EB92729210A1EB820292B97B
:10106000642091FBF0F200FB121050B94FF4C870ED
:1010700091FBF0F200FB121008B90120704700202C
:10108000FCE70120FAE70020F8E700000C4880693F
:1010900040F008000A4988610A48006820F470603E
:1010A000084908600846006840F400600860054888
:1010B0000830006840F480600249083108607047D9
:1010C00000100240040C01406E280AD10C49096846
:1010D00021F001210A4A11601146096841F080712E
:1010E000116066280AD10649096821F00121044AE5
:1010F00011601146096841F4807111607047000069
:10110000100C01402DE9F04F99B0DFF8B0A100F0CC
:101110008DFD6B48007800287DD1502105A8FFF790
:101120001AF800BF674800880A2825DC00241FE061
:1011300004EB44003AF810004FF46161484304EBBB
:1011400044020AF1020131F81210C1EB011100EB67
:10115000810005A941F8340004EB44010AF10400C0
:1011600030F8110005A901EBC4014860601CC4B24D
:1011700054480088A042DBDC534800784FF461619A
:10118000484351494978C1EB011100EB810901F055
:101190007FFA002487E04B480088C0B2049004988E
:1011A000401EA0423ED105A850F83400484538D82A
:1011B0004648814535D805A800EBC400406830B9E1
:1011C0006620FFF781FF00204149087029E06E206A
:1011D000FFF77AFF05A800EBC40000793C490870CE
:1011E00005A901EBC4014868FFF76EF9CDE90201DA
:1011F00038480088FFF768F907460022364BFFF7AA
:10120000EFF8CDE90001DDE90223FFF777F80546A5
:10121000FFF77BF900E04DE01FFA80FB584601F034
:10122000DDFA45E005A850F83400484539D805A94D
:10123000601C51F83000484533D905A800EBC400C4
:10124000406830B96620FFF73FFF00202049087052
:1012500027E06E20FFF738FF05A800EBC4000079F7
:101260001B49087005A901EBC4014868FFF72CF978
:10127000CDE9000117480088FFF726F9074600224C
:10128000154BFFF7ADF80546DDE90023FFF736F80B
:10129000CDE90201FFF739F91FFA80FB584601F04A
:1012A0009DFA601CC4B207480088A0423FF773AFA4
:1012B00000BF00BF19B0BDE8F08F000002F80008C1
:1012C000250000200C6C0040F4000020805101003B
:1012D0002C00002028000020000059401D48806993
:1012E00040F6040108431B4988611B48006820F44C
:1012F0007040194908600846006840F410400860D2
:101300001648008840F001001449088013481C303A
:10131000008840F4C04011491C31088040F29F50C1
:101320000E49283108806420091D08800B482030B0
:10133000008840F440500949203108806420074962
:1013400040310880081D008840F40040091D0880D5
:10135000704700000010024004080140002C0140CA
:101360002DE9F0438DB081468846164606255A2061
:101370008DF800003C208DF801002EB9FF208DF87B
:1013800002008DF8030009E026480088C0B28DF8FD
:10139000020024480088000A8DF803008DF80460DC
:1013A0008DF80580002407E019F804000DF8050009
:1013B000681CC5B2601CC4B24445F5DB29466846CA
:1013C000FFF77EFD0746F8B20DF80500681CC5B2B0
:1013D000380A0DF80500681CC5B29DF80200FF2808
:1013E00013D19DF80300FF280FD11EB1172E01D095
:1013F000192E14D1002405E01DF8040000F0EAFFC6
:10140000601CC4B2AC42F7DB09E0002405E01DF823
:10141000040000F0DFFF601CC4B2AC42F7DB0DB08B
:10142000BDE8F083086C00402DE9F05F05460E46EC
:101430003001FFF744F88146394905FB01F0FFF719
:101440003EF882464946FEF71BFF07463846FFF73F
:1014500048F884B22046FFF732F883463946FEF753
:10146000DAFE82464FF08341FEF7D8FE8146FFF751
:1014700038F880464FF6FF7000EA041404EB0800C9
:1014800084B22848806940F00400264988612648D3
:10149000006820F47020244908600846006840F481
:1014A000403008600846006820F47F400860084625
:1014B000006840F40B4008601A48C06940F40030EE
:1014C0001849C8610846006940F4003008610846C0
:1014D000006920F40030086114480480001D008871
:1014E00042F20C0108431149091D08800846008892
:1014F00040F4807008800846008840F02000088092
:1015000009481030006820F01010074910310860B9
:101510000846006840F480100860BDE8F09F0000B5
:1015200040420F0000100240000801400844004003
:101530001848008800F0010018B31748006800F44C
:10154000807088B915480068401C14490860084636
:1015500000684FF46161B0FBF1F201FB120030B999
:1015600001200F49087002E000200C4908600D4876
:101570000088401C0B4908800B480078401C0A4931
:1015800008700448008840F6FA7108400149088054
:1015900070470000042800400C0C0140340000207B
:1015A0003800002030000020320000200948006888
:1015B00040F4A060074908600748007806490870B1
:1015C0000648006840F008004FF0E021C1F8000133
:1015D000704700000CED00E003E400E000E100E0F3
:1015E0000FB42DE9F04F87B00024DFF8FCA3DFF83B
:1015F000FC93BDF84000FE490988884208D0BDF838
:10160000400028B1BDF840004FF6FF7188427DD1FF
:101610009DF84200012850D100210022F54B1B68A3
:101620000093F44B1B1D1B680193F24BDB1D1B68E1
:10163000029300201BE01DF8203004AD6B544B1CBE
:10164000D9B23DF82030C3F307236B544B1CD9B2F9
:101650005DF82030C3F307436B544B1CD9B25DF8DF
:1016600020301B0E6B544B1CD9B2431CD8B203283C
:10167000E1DB002008E011AB1B5C04AD2D5CAB424C
:1016800000D003E0431CD8B20C28F4DB00BF0C28C8
:1016900012D110AB5B7C1A434FF6FF7303EA0222B0
:1016A00010AB1B7C1A43D24B1B880023D04D2B80E0
:1016B0002B461B8813432B8000BF9DF84200022855
:1016C00002D10120CC4908709DF8420016284AD169
:1016D000002006900590002421E006A830F81410A0
:1016E0006000401C11AA105C014306A820F81410E9
:1016F00030F814004FF6FF7101EA002006A921F826
:10170000140006A830F8140011A900E0A2E011F8B6
:101710001410084306A921F81400601CC4B2082C58
:10172000DBDBB64DA81EFFF7E7FABDF81800294627
:1017300000F0F8FEBDF81A00A91C00F0F3FE2878AE
:101740008DF814002888000A8DF81500A8788DF807
:1017500016006888000A8DF817001722042105A8D2
:10176000FFF7FEFD00BF9DF84200182867D100205A
:101770000490059006900290039000241FE004A8B6
:1017800030F814106000401C11AA105C014304A83A
:1017900020F8141030F814004FF6FF7101EA002011
:1017A00004A921F8140004A830F8140011A911F8B4
:1017B0001410084304A921F81400601CC4B2062CBC
:1017C000DDDB00F0ADFAFFF7F1FEBDF81A00C0B2A4
:1017D000BDF81810C9B2CDE90010BDF81650EBB233
:1017E000BDF81450EAB2BDF81250E9B2BDF81000CD
:1017F00000F074FB00F01AFA814800798DF80800B7
:101800007F488088000A8DF809007D4880798DF82E
:101810000A007B48C0798DF80B00794800788DF874
:101820000C00774840788DF80D00754880788DF869
:101830000E001922072102A8FFF792FD00BF9DF8B4
:101840004200122806D16A4800884FF6FF7108430B
:10185000674908806648B0F800B04FF6FF708345CE
:101860007ED0BDF8400062490988884203D0BDF8A7
:101870004000002874D19DF842000A2830D19DF81C
:101880004300401E032190FBF1F05E490870584868
:10189000001D008800205649091D08800846008860
:1018A0005849097808435249091D08804E4800F0FC
:1018B0005FFB002408E011A9085D514600F0B8FB69
:1018C0000AF1020A601CC4B29DF84300A042F2DC97
:1018D000002006900B22012106A8FFF741FD00BF62
:1018E0009DF842000E2841D1012047490870084662
:1018F0000078012839D19DF8440030B900204349CF
:1019000008706620FFF7E0FB25E000F0C1FE9DF8BF
:1019100044003E4908706E20FFF7D6FB3B48007834
:10192000FEF7D2FD05460E4639480088FEF7CCFD8D
:1019300007460022374BFEF753FD2A463346CDE9D2
:101940000001FEF7DBFCCDE90201FEF7DEFD80B20F
:10195000059000F043FF2D48007806900F2200E02C
:10196000BDE0012106A8FFF7FBFC00BF9DF8420087
:10197000042831D100251F48006800901D48001D33
:10198000006801901B48C01D0068029000261BE003
:101990001DF8260004A94855681CC5B23DF826006C
:1019A000C0F307204855681CC5B25DF82600C0F397
:1019B00007404855681CC5B25DF82600000E485522
:1019C000681CC5B2701CC6B2032EE1DB05220C21D7
:1019D00004A8FFF7C5FC00BF9DF84200062832D1DD
:1019E000024800F0C5FA17E000F8000800F400080B
:1019F000086C0040E8F7FF1F2E00002002FC0008E2
:101A0000F40000202D000020250000202C000020E4
:101A10002800002000005940002408E011A9085DBA
:101A2000494600F005FB09F10209601CC4B29DF8AB
:101A30004300A042F2DC002006900722012106A804
:101A4000FFF78EFC00BF9DF84200082813D109F172
:101A50000209002407E099F800000DF8040009F1DC
:101A60000209601CC4B2142CF5DB0922142168465B
:101A7000FFF776FC00BF9DF84200132828D11421FF
:101A800002A8FEF768FB00F0D1F8174800798DF83E
:101A9000080015488088000A8DF8090012488079EE
:101AA0008DF80A001048C0798DF80B000E480078B8
:101AB0008DF80C000C4840788DF80D000A488078AD
:101AC0008DF80E001522072102A8FFF749FC00BF80
:101AD0009DF84200142802D100200449087007B084
:101AE000BDE8F00F5DF814FBF40000202500002095
:101AF0002DE9F04389B000242A4800884FF6FF7191
:101B000088424BD128480078032847D127480078DD
:101B1000002843D12648006806902548001D00682B
:101B200007902348C01D0068089000252CE0FF2086
:101B3000064607468046814606A850F8250000EA7A
:101B4000090901A800F80490601CC4B206A850F866
:101B5000250008EA102801A800F80480601CC4B21F
:101B600006A850F8250007EA104701A80755601C91
:101B7000C4B206A850F8250006EA106601A806556A
:101B8000601CC4B2681CC5B2032DD0DB00220C213E
:101B900001A8FFF7E5FB00200349087009B0BDE884
:101BA000F0830000086C0040320000202E0000206E
:101BB000E8F7FF1FF0B503460C461546642093FB7B
:101BC000F0F0C6B2642093FBF0F700FB1730C1B20F
:101BD000132E02DD01F16400C1B20846CF1701EBFC
:101BE000977701EBA707BAB2072092FBF0F700FB4B
:101BF000172082B25719601EDFF82CC01CF80000B5
:101C0000384482B2CF1701EB9777BF10A1EB87075B
:101C10001FB9032C01DA501E82B2072092FBF0F7A5
:101C200000FB1720C0B2F0BD702900082DE9F0417B
:101C300040F2B2780025364806883604001D008838
:101C400006443448B6FBF0F40FE01FFA88F0FFF7C3
:101C5000FFF930B1B4F5B77F02D3A4F5B77402E051
:101C600006E0A4F26D1408F10108B4F5B67FECD8D3
:101C700000BF2949A1F8048015E01FFA88F0FFF79A
:101C8000E7F930B1012D04D11D2C01D31D3C09E031
:101C90000BE02248405DA04203D82048405D241A52
:101CA00000E002E06D1C1C2CE7D200BF1A49CC7189
:101CB000681C88711748B6FBF0F100FB11674FF400
:101CC0006160B7FBF0F0144908704FF46160B7FB36
:101CD000F0F100FB11703C21B0FBF1F00E494870AF
:101CE0004FF46160B7FBF0F100FB11703C21B0FBD9
:101CF000F1F201FB1200084988700B46DA799979F4
:101D00009888FFF757FF04490872BDE8F08100008A
:101D10001828004080510100F400002040290008EC
:101D200010B54F4800884F490860084600880004F5
:101D300008604B48001D008809680844494908604C
:101D400008460068002872D14748C06940F08050BA
:101D50004549C8610846C06940F00060C861434811
:101D6000006840F48070414908603F48006A40F0D4
:101D700001003D49086200BF3B48006A00F00200D4
:101D80000028F9D03AA000F0F9FB3748006A40F487
:101D90008070354908620846006A40F400400862D5
:101DA00000BF2F481438008800F020000028F8D029
:101DB00000BF2B481438008800F008000028F8D035
:101DC00027481838008840F0010025491839088054
:101DD00000BF23481438008800F020000028F8D005
:101DE0001F481438008840F010001D49143908803D
:101DF0000020091D088047F6FF70091D088018485B
:101E00001438008820F0100015491439088000BFEC
:101E100013481438008800F020000028F8D0134838
:101E2000006820F480701149086018E0FFE700BFE7
:101E30000B481438008800F008000028F8D0084843
:101E40001838008840F0010005491839088000BFA3
:101E500003481438008800F020000028F8D010BD96
:101E60001828004058000020001002400070004078
:101E7000696E69740000000000B5164800881649B4
:101E8000086008460088000408601248001D0088A9
:101E9000096808441049086008460068B8B100BFE6
:101EA0000C481438008800F008000028F8D00948D1
:101EB0001838008840F0010006491839088000BF32
:101EC00004481438008800F020000028F8D0FFF7FC
:101ED0006DFB00BD18280040580000202DE9FC478C
:101EE00005460E4617469846DDE90A9A43463A46A5
:101EF00031462846CDE9009AFEF7A8FE0446194867
:101F0000C06940F080501749C8610846C06940F078
:101F10000060C8611448006840F48070124908608D
:101F20001248008840F01000104908800F4918310D
:101F30000C80200C091F08800C48008820F010003D
:101F40000A49088000BF0948008800F020000028E6
:101F5000F9D00548006820F4807003490860BDE8A6
:101F6000FC87000000100240007000400428004080
:101F700070B505460024FEF741FF45F6FF7000F0FE
:101F800041F80446C4B90E48006940F002000C490B
:101F9000086108464561006940F04000086145F667
:101FA000FF7000F02FF80446012C05D004480069AA
:101FB00020F002000249086100F01AF8204670BDC6
:101FC000002002400948C16801F0010008B1012069
:101FD000704701F0040008B10220F9E701F0100099
:101FE00008B10320F4E70020F2E7000000200240DF
:101FF0000348006940F08000014908617047000013
:102000000020024070B5044600BFFFF7DBFF054625
:10201000012D00D006E00120FEF79CFE601E84B278
:10202000002CF2D100BF04B9FF25284670BD000086
:1020300070B505460E46FEF7E1FEFF20FFF7E2FF12
:10204000044694B90B48006940F001000949086151
:102050003580FF20FFF7D6FF0446012C05D0054848
:10206000006920F0010003490861FFF7C1FF204625
:1020700070BD00000020024010B500F001F810BD56
:102080000CB50020019000903348006840F4803087
:102090003149086000BF3048006800F4003000900B
:1020A0000198401C0190009818B90198B0F5A06FF4
:1020B000F1D12948006800F4003010B101200090EF
:1020C00001E0002000900098012843D123480068D7
:1020D00040F01000214908600846006820F0030025
:1020E00008600846006840F0020008601A4840682E
:1020F000194948600846406848600846406840F40E
:10210000806048600846406820F47C1048600846BB
:10211000406840F4E81048600846006840F080706D
:10212000086000BF0C48006800F000700028F9D07B
:102130000948406820F003000749486008464068A5
:1021400040F00200486000BF0348406800F00C0007
:102150000828F9D10CBD0000001002400020024008
:1021600010B51348006840F00100114908600846A6
:102170004068104908400E494860084600680E490A
:1021800008400B4908600846006820F48020086079
:102190000846406820F4FE0048604FF41F00886045
:1021A000FFF76AFF4FF000600449086010BD0000AF
:1021B000001002400000FFF8FFFFF6FE08ED00E00F
:1021C0000E48008800F00100B8B10D4800780128E1
:1021D0000DD10C480078401E0A4908700846007866
:1021E00028B90120084908700020054908700348F3
:1021F000008820F001000149088070471004004069
:102200000500002003000020040000200D4AD269D0
:1022100042F002020B4BDA610B4A1080121F118050
:10222000094A203A128842F00102074B203B1A80EB
:10223000054A2C3A128842F00102034B2C3B1A80CB
:1022400070470000001002402C040040094800685C
:1022500040F4A06007490860074800780649087004
:102260000648006840F000504FF0E021C1F800013E
:10227000704700000CED00E01DE400E000E100E02C
:102280000A480078012810D109490888411C88B201
:10229000074909880021064A11801146098801432F
:1022A00011800021014A117000BF704738000020E2
:1022B000046C00400F48008800F02000C0B10E48B8
:1022C0000078A8B90B48001D00880C490870084622
:1022D00000780B490B4A128888540A480088401C31
:1022E00008490880012008490870642007490870DF
:1022F0007047000000380140040000200200002068
:1023000070000020000000200500002003000020D5
:102310000B4800680B4908400949086008460068F6
:1023200009490843064908603021084801700848F7
:10233000006840F020004FF0E021C1F80401704730
:102340000CED00E0FFF8FA050004FA0525E400E0D2
:1023500004E100E00B49098801F0200181B109493D
:10236000091D0988C8B208490978072908DA074908
:10237000054A1278885404490978491C024A1170A8
:102380007047000000440040640000205D00002011
:102390000B4800680B490840094908600846006876
:1023A00009490843064908600848006840F04000B1
:1023B0004FF0E021C1F80401302105480170704759
:1023C0000CED00E0FFF8FA050004FA0504E100E076
:1023D00026E400E00549088000BF0449091F098878
:1023E00001F040010029F8D0704700000438014096
:1023F0002DE9F0438DB03F4F3F480088052876D146
:10240000FEF7DEFA8146FEF75DFA80463B49484614
:10241000FDF704FF81463A494046FDF7FFFE80463E
:1024200038480688FFF702FC01208DF80000387854
:102430008DF801004846FEF754F8C0B28DF802004E
:102440004846FEF74EF8000A8DF803004046FEF7B6
:1024500048F8C0B28DF804004046FEF742F8000A82
:102460008DF80500284800788DF80600F0B28DF848
:102470000700300A8DF80800244800788DF809001C
:10248000224840788DF80A00204880788DF80B00AB
:1024900007211F48FEF7F2FC05469DB91C4800794C
:1024A0008DF80C001A4840788DF80D001848007817
:1024B0008DF80E001648C0788DF80F00144880780B
:1024C0008DF81000032211216846FEF749FF002015
:1024D00009490880002404E000200D490855601CCB
:1024E000C4B2072CF8DB00200A49087000BF0DB009
:1024F000BDE8F08300F80008300000200000204113
:1025000000401C46046C00402C000020F400002019
:102510005D00002064000020002001490860704731
:10252000082C004010B502460B461C46FEF766FC20
:102530001048C06800F001000F4908700846007894
:10254000B8B90C48006940F001000A4908612280CE
:102550000846C06800F00100074908700846007886
:10256000012806D00348006941F2F661084001499C
:10257000086110BD002002401E0000200FB4054B72
:1025800010B503A9044A029800F017F810BC5DF8D2
:1025900014FB00003D2700086C00002002E008C882
:1025A000121F08C1002AFAD170477047002001E0CD
:1025B00001C1121F002AFBD170472DE9F84F99463F
:1025C000924688460546002706E025280AD051464F
:1025D0004A4690476D1C7F1C28780028F5D1384664
:1025E000BDE8F88F002315F8011F18462E2915D1D4
:1025F00015F8011F04232A290DD06FF02F02297826
:10260000A1F13004092C09D800EB800002EB400056
:1026100008446D1CF3E758F8040B6D1C2A78002A57
:10262000DDD0632A07D0732A0FD0104651464A46A0
:1026300090477F1C2AE018F8042B8DF80020002119
:102640008DF801106E46012103E058F8046B4FF03D
:10265000FF315A074FF0000401D409E0641C8442A2
:102660000BDA8C42FADB325D002AF7D105E0641CFC
:102670008C42FCDB305D0028F9D1274404E016F8D9
:10268000010B51464A469047641EF8D26D1CA3E7E1
:10269000F0B595B05022254901A8FDF743FD244F20
:1026A000002406E039880BA820F81410BF1C601C19
:1026B00084B2142CF6DB1F4806884FF47A7096FB20
:1026C000F0F085B24FF47A7096FBF0F100FB1160E8
:1026D000B0F5FA7F01DD681C85B2262D02DD64208D
:1026E0001549088000241BE025B9BDF82C001249CB
:1026F000088017E001A830F81400A8420CDD24B9C6
:10270000BDF82C000C4908800CE0601E0BA931F8C4
:1027100010000949088005E0601C84B2601C84B286
:10272000142CE1DB00BF15B0F0BD0000F02800085C
:1027300000F40008046C00402800002000BF054A97
:10274000128802F04002002AF9D0C2B2014B1B1DD0
:102750001A80704700380140FEF748FC4FF41651CC
:10276000482000F05DF8FFF7D3FDFEF7DFF9FEF734
:1027700009F8FEF71BF8FEF723FCFEF7AFFD662015
:10278000FEF7A2FC00201449087041F61F41092001
:10279000FFF73CFDFFF75AFDFEF730FBFFF76CFB40
:1027A000FEF774FC4FF416614820FEF73DFEFFF77C
:1027B000EFFD4FF47A710420FEF7F2FB0BE0FEF719
:1027C000E7FBFFF795F9FEF79DFCFFF759FDFFF7D3
:1027D0000FFEFEF793FBF2E72C0000200E4909885C
:1027E000884217D00D49098821F400410B4A118015
:1027F000111F08800849088008493039098841F0CC
:102800000101064A303A11800449098841F4004127
:10281000024A11807047000006000020442C01404D
:102820002DE9F05F05460E463001FDF748FE814672
:102830002B4905FB01F0FDF742FE82464946FDF7B4
:102840001FFD07463846FDF74CFE84B22046FDF7D3
:1028500036FE83463946FDF7DEFC82464FF0834163
:10286000FDF7DCFC8146FDF73CFE80464FF6FF702D
:1028700000EA041404EB080084B21A48806940F0AE
:102880000400184988610846806940F480408861E6
:102890001548006820F47F60134908600846006806
:1028A00040F40B6008600F48C06840F480400D4958
:1028B000C8600846C06820F48040C8600B480480A7
:1028C000001D008842F20C0108430849091D0880D8
:1028D0000846008840F020000880BDE8F09F000016
:1028E00040420F0000100240040801400838014037
:1028F000000002000400060008000A000C000E00A0
:10290000100012001400160018001A001C001E000F
:10291000200022002400260000000000000000002B
:1029200000000000000000000000000000000000A7
:102930000000000000000000000000000000000097
:102940001F1C1F1E1F1E1F1F1E1F1E1F4A616E46BB
:1029500065624D61724170724D61794A756E4A755A
:102960006C4175675365704F63744E6F7644656351
:1029700000030306010406020500030546726964AC
:10298000617900004D6F6E646179000053756E646B
:102990006179000053617475726461790000000010
:1029A0005765646E657364617900000054756573E2
:1029B0006461790054687572736461790000000085
:1029C000E029000800000020700000009C2500089D
:1029D000502A00087000002090040000AC25000878
:1029E00000000000000000000000000000000000E7
:1029F00000000000000000000000000000000000D7
:102A000000000000000000000000000300000000C3
:102A10000000000000000000000000008C290008F9
:102A200084290008AC290008A0290008B42900085E
:102A30007C29000894290008000000000000000024
:102A40000000000000000000000000000000000086
:0400000508000101ED
:00000001FF
